:020000040800F2
:10000000D00A00208901000891300008C1280008AA
:100010008D30000821090008F137000800000000B9
:10002000000000000000000000000000F1310008A6
:100030002509000800000000953000087132000812
:10004000A3010008A3010008A3010008A301000800
:10005000A3010008A3010008A3010008A3010008F0
:10006000A3010008A3010008A3010008A3010008E0
:10007000A3010008A3010008A3010008A3010008D0
:10008000A3010008A3010008A3010008A3010008C0
:10009000A3010008A3010008A3010008A3010008B0
:1000A000A3010008A3010008A3010008A3010008A0
:1000B000A3010008A3010008A3010008A301000890
:1000C000A3010008A3010008A3010008A301000880
:1000D000A3010008E1370008A3010008A3010008FC
:1000E000A3010008A3010008A301000800F002F822
:1000F00000F03AF80AA090E8000C82448344AAF188
:100100000107DA4501D100F02FF8AFF2090EBAE885
:100110000F0013F0010F18BFFB1A43F0010318473B
:100120003C3F00005C3F0000103A24BF78C878C113
:10013000FAD8520724BF30C830C144BF04680C60ED
:10014000704700000023002400250026103A28BF35
:1001500078C1FBD8520728BF30C148BF0B60704739
:100160001FB51FBD10B510BD00F0A2F81146FFF776
:10017000F7FF03F0B3FC00F0C0F803B4FFF7F2FFA1
:1001800003BC00F0C5F80000094880470948004753
:10019000FEE7FEE7FEE7FEE7FEE7FEE7FEE7FEE737
:1001A000FEE7FEE704480549054A064B7047000094
:1001B000DF320008ED000008D0040020D00A002043
:1001C000D0060020D0060020B2F120030AD5C2F1EB
:1001D000200320FA02F001FA03F321FA02F140EAC7
:1001E0000300704721FA03F04FF00001704710B58B
:1001F000203AC0F00B80B1E81850203AA0E818501F
:10020000B1E81850A0E81850BFF4F5AF5FEA027CDF
:1002100024BFB1E81850A0E8185044BF18C918C04E
:10022000BDE810405FEA827C24BF51F8043B40F8EF
:10023000043B08BF7047D20728BF31F8023B48BFD4
:1002400011F8012B28BF20F8023B48BF00F8012B12
:1002500070474FF0000200B5134694469646203989
:1002600022BFA0E80C50A0E80C50B1F12001BFF46F
:10027000F7AF090728BFA0E80C5048BF0CC05DF8D5
:1002800004EB890028BF40F8042B08BF704748BF23
:1002900020F8022B11F0804F18BF00F8012B704797
:1002A0007047704770470000004870477004002096
:1002B0007546FFF7F9FFAE4605006946534620F044
:1002C0000700854618B020B5FFF76CFFBDE8204059
:1002D0004FF000064FF000074FF000084FF0000B02
:1002E00021F00701AC46ACE8C009ACE8C009ACE8B5
:1002F000C009ACE8C0098D46704710B50446AFF39D
:1003000000802046BDE81040FFF737BF704700006F
:1003100001491820ABBEFEE7260002007FB5044667
:100320000D460026002003906420022103AACDE997
:1003300000210290217901230E22206800F0B2FFF3
:1003400000B101269DF80D009DF80C1040EA012037
:100350002880304604B070BDFEB504460D46002628
:1003600064200121CDE900510290217901230B2263
:10037000206800F097FF00B101263046FEBD7FB532
:1003800004460025002600200390A07B08B9012028
:10039000A073E07B08B90120E073207C08B901203C
:1003A0002074607C08B901206074A07C08B9012029
:1003B000A074E07C08B90120E074207D08B9012018
:1003C0002075607D08B902206075E07B012806D0A9
:1003D000022809D0032810D004281CD116E0E07DA3
:1003E00020F00301E1751AE0E07D40F00101E175C4
:1003F000E07D20F00201E17511E0E07D40F00201B6
:10040000E175E07D00F00101E17508E0E07D40F07C
:100410000301E17503E00125284604B070BD00BF6B
:10042000207C012806D0022809D0032810D00428F7
:100430001CD116E0E07D20F00C01E17519E0E07DB3
:1004400040F00401E175E07D20F00801E17510E065
:10045000E07D20F00401E175E07D40F00801E175E8
:1004600007E0E07D40F00C01E17502E0012528463F
:10047000D3E700BF607C012804D0022807D00328FE
:1004800018D10DE0E07D20F03001E17515E0E07D50
:1004900040F01001E175E07D20F02001E1750CE0F5
:1004A000E07D00F01001E175E07D40F02001E17594
:1004B000012602E001252846AFE700BF4EB3A07C2D
:1004C000012806D0022809D0032810D004281CD106
:1004D00016E0E07D20F0C001E17519E0E07D40F01C
:1004E0004001E175E07D20F08001E17510E0E07DE4
:1004F00020F04001E175E07D40F08001E17507E00A
:10050000E07D40F0C001E17502E00125284684E766
:1005100000BFE07C012806D0022809D0032810D0B3
:1005200004281CD116E0A07D20F00300A07519E07E
:10053000A07D40F00100A075A07D20F00200A07514
:1005400010E0A07D20F00100A075A07D40F0020029
:10055000A07507E0A07D40F00300A07502E0012532
:1005600028465AE700BF207D092846D2DFE800F080
:1005700045050A131C252E374000A07D20F01C00E5
:10058000A0753DE0A07D20F01800A075A07D40F092
:100590000400A07534E0A07D20F01400A075A07DBB
:1005A00040F00800A0752BE0A07D20F01000A075A1
:1005B000A07D40F00C00A07522E0A07D20F00C0092
:1005C000A075A07D40F01000A07519E0A07D20F07E
:1005D0000800A075A07D40F01400A07510E0A07D7B
:1005E00020F00400A075A07D40F01800A07507E081
:1005F000A07D40F01C00A07502E0012528460CE714
:1006000000BF607D012802D002280AD104E0A07D4D
:1006100020F04000A07507E0A07D40F04000A075EC
:1006200002E001252846F8E600BF6421022204F119
:100630001600CDE9012100902179012307222068CD
:1006400000F0EAFF10B101252846E6E603A920469E
:10065000FFF782FE10B101252846DEE69DF80C006A
:1006600000F0200010B901252846D6E69DF80C00C0
:1006700000F0080010B101252846CEE69DF80C00D8
:1006800000F0100010B101252846C6E62846C4E651
:10069000024602B111B96FF00100704710790B7971
:1006A000984201DD0120F8E710790B79984202DACF
:1006B0004FF0FF30F1E750794B79984201DD01208E
:1006C000EBE750794B79984202DA4FF0FF30E4E7DC
:1006D000D088CB88984201DD0120DEE7D088CB8826
:1006E000984202DA4FF0FF30D7E790688B68984263
:1006F00001D90120D1E790688B68984202D24FF06F
:10070000FF30CAE7D068CB68984201D90120C4E71E
:10071000D068CB68984202D24FF0FF30BDE700208E
:10072000BBE700000020014908707047140000205A
:100730002DE9F04306460F469446984600230024D0
:100740000025314636B12FB1BCF1000F02D0B8F10F
:10075000000F03D14FF0FF30BDE8F08306E0A2F1B7
:10076000300003EB830900EB4903491C0A781AB1F6
:10077000302A01DB392AF2DD08782E2802D04FF02A
:10078000FF30E9E7491C06E0A2F1300004EB8409E0
:1007900000EB4904491C0878021E03D0302A01DB13
:1007A000392AF1DD08782E2802D04FF0FF30D3E748
:1007B000491C06E0A2F1300005EB850900EB490574
:1007C000491C0878021E03D0302A01DB392AF1DDEA
:1007D000087810B14FF0FF30BEE7002B09DB632B28
:1007E00007DC002C05DB632C03DC002D01DB632D13
:1007F00002DD4FF0FF30AFE73B708CF80040A8F807
:1008000000500020A8E7000070B505460DB905208E
:1008100070BD074C07492068884201D00120F7E7E6
:10082000482221462846FFF7E2FC0020F0E70000BE
:1008300000FD0008525657462DE9F04385B00646A4
:10084000002000903746DFF88C804FF048091EB931
:10085000052005B0BDE8F0831F48306000F07EFA47
:1008600004460CB10220F4E70020019019480390DF
:1008700001200490694601A800F0B6F904461CB1B5
:1008800000F00AFA0220E4E700251AE057F825C034
:10089000624600234146022000F008FA04461CB1DB
:1008A00000F0FAF90220D4E7D8F8000057F8251034
:1008B000884203D000F0F0F90320CAE708F10408E9
:1008C0006D1C09F10300B5EB900FDFD300F0E4F9E4
:1008D0000020BEE700FD0008525657460149086057
:1008E000704700001800002000B5A5B013A8FFF75E
:1008F0008BFF0DF10A035A1E02A907A0FFF718FF8C
:1009000013A901A8FFF7C4FE20B101A8FFF794FFC7
:1009100025B000BD0020FBE7312E302E3200000054
:1009200000BFFEE7704710B50446204600F048F9C6
:1009300010BD0000002004E00021034A1154411CB6
:10094000C8B21028F8DB70474001002072B600BF23
:10095000FEE700000021074AD1610749096941F01B
:100960000401054A11611146096941F04001116114
:100970007047000050020020002002400021074A7A
:10098000D1610749096941F00201054A1161114627
:100990004861096941F0400111617047500200202F
:1009A000002002400022054BDA61054A126942F03C
:1009B0000102034B1A6101807047000050020020C1
:1009C0000020024000201E49C96801F0100139B121
:1009D0001C49C96941F002011A4AD16140F0100076
:1009E0001749C96801F0040139B11649C96941F0D4
:1009F0000101144AD16140F004001149C96901F0B4
:100A0000010169B10F49C96941F004010D4AD16181
:100A100000BF0B49C96921F00101094AD16100BF3A
:100A200000BF40F20111884206D10549C96921F091
:100A30000101034AD16101E00149C86000BF70476C
:100A4000002002405002002070B5044600F03CFB3C
:100A5000054609E0601C38B124B100F035FB401BAD
:100A6000A04201D9032070BD1248C06800F0010007
:100A70000028EFD10F48C06800F0200020B100BF6F
:100A800020200C49C86000BF0A48C06800F0100070
:100A900048B90848C06900F0010020B90548C0689D
:100AA00000F0040018B1FFF78DFF0120DBE7002004
:100AB000D9E70000002002400146002291F8210001
:100AC000022808D00420886300BF002081F820009D
:100AD00000BF012070470868006820F00E000B6816
:100AE00018600868006820F001000B68186091F831
:100AF000403001209840CB6B5860012081F82100E4
:100B000000BF002081F8200000BF1046E2E700008F
:100B100070B50446002594F82100022803D0042073
:100B2000A063012548E02068006820F00E002168DD
:100B300008602068006820F00100216808601F49F3
:100B40002068884201D1012026E01C491431206828
:100B5000884201D110201FE01849283120688842BE
:100B600001D1801518E015493C312068884201D137
:100B7000801411E0114950312068884202D14FF4AD
:100B8000803009E00D4964312068884202D14FF479
:100B9000801001E04FF0807008490839486001205A
:100BA00084F8210000BF002084F8200000BF606BA3
:100BB00010B12046616B8847284670BD080002408E
:100BC00070B5044600F080FA06462546681C10B150
:100BD00004480078054400BF00F076FA801BA84264
:100BE000FAD370BD0C0000202DE9F04104460E46FA
:100BF0000127002500BF2648007E012802D10220DF
:100C0000BDE8F08101202249087600BF2068022853
:100C100013D14CF25030FFF717FF90BB0120FFF7C4
:100C200099FE4CF25030FFF70FFF07461948006954
:100C300020F004001749086123E04CF25030FFF720
:100C400003FFF0B94FF0FF303060A56812E028468E
:100C5000FFF794FE4CF25030FFF7F6FE07460D48C2
:100C6000006920F002000B4908610FB1356007E010
:100C700005F58065D4E9021001EB8020A842E6D892
:100C800000BF00BF00200249087600BF3846B7E722
:100C900050020020002002400348006940F080001C
:100CA0000149086100207047002002402DE9FE4FF5
:100CB00005468B46174698460126002400200290E0
:100CC00000BF2448007E012802D10220BDE8FE8F2B
:100CD00001202049087600BF4CF25030FFF7B4FEE7
:100CE000064686BB012D02D10120029006E0022DAE
:100CF00002D10220029001E00420029000241EE0B4
:100D00002201B946C24648465146FFF75DFA80B215
:100D10000190022000FB04B000900199FFF742FE11
:100D20004CF25030FFF790FE06460B48006920F069
:100D300001000949086106B104E0601CC4B20298D0
:100D40008442DDDB00BF00BF00200249087600BFFF
:100D50003046BBE750020020002002400020084936
:100D6000096901F0800151B10649054A51600649FF
:100D700051601146096901F0800101B101207047FD
:100D80000020024023016745AB89EFCD2DE9F847EC
:100D90000346002294466EE14FF0010808FA02F47F
:100DA000D1F8008008EA0400A0427DD1DFF8DCA27F
:100DB000D1F80480A8EB0A09D0453AD014DCB8F188
:100DC000030F50D009DCB8F1000F31D0B8F1010F9A
:100DD0001CD0B8F1020F49D120E0B8F1110F18D0A2
:100DE000B8F1120F42D11EE0B9F5881F25D006DCFC
:100DF000B9F5803F20D0B9F5801F37D11AE0B9F599
:100E0000001F18D0B9F5041F30D117E0D1F80CC07D
:100E10002DE0D1F80C8008F1040C28E0D1F80C800A
:100E200008F1080C23E0D1F80C8008F10C0C1EE04E
:100E300000BF00BF00BF00BF00BF00BFD1F80880E7
:100E4000B8F1000F02D14FF0040C0BE0D1F808808C
:100E5000B8F1010F03D14FF0080C1C6102E04FF014
:100E6000080C5C6103E04FF0000C00E000BF00BF25
:100E7000FF2801D8984601E003F104084646FF2800
:100E800002D84FEA820803E0A2F108084FEA880876
:100E90004746D6F800804FF00F0909FA07F928EA0B
:100EA00009080CFA07F900E088E048EA0908C6F8E2
:100EB0000080D1F8048008F08058B8F1805F7DD1BF
:100EC00000BFDFF8CC81D8F8188048F00108DFF8BF
:100ED000C091C9F81880C846D8F8188008F00108F1
:100EE000CDF8008000BF00BF4FEAB9384FEA920941
:100EF00058F829504FEA82784FEA18794FF00F08D6
:100F000008FA09F825EA0805DFF88881434502D187
:100F10004FF0000816E0DFF88081434502D14FF022
:100F200001080FE0DFF87481434502D14FF0020859
:100F300008E0DFF86C81434502D14FF0030801E07F
:100F40004FF004084FEA82794FEA197908FA09F854
:100F500048EA0505DFF84C814FEA920948F8295024
:100F6000D1F8048008F48018B8F5801F0AD1DFF8A2
:100F70003881D8F8008048EA0008DFF82C91C9F8D9
:100F8000008009E0DFF82081D8F8008028EA000816
:100F9000DFF81491C9F80080D1F8048008F4001833
:100FA000B8F5001F10D1DFF8008108F10408D8F867
:100FB000008048EA0008DFF8F09000E05AE009F10C
:100FC0000409C9F800800DE0DFF8DC8008F10408AE
:100FD000D8F8008028EA0008DFF8CC9009F104096D
:100FE000C9F80080D1F8048008F40038B8F5003F53
:100FF0000ED1DFF8B480A8F10408D8F8008048EAE0
:101000000008DFF8A490A9F10409C9F800800DE0F8
:10101000DFF89480A8F10408D8F8008028EA0008D6
:10102000DFF88490A9F10409C9F80080D1F80480A0
:1010300008F48038B8F5803F0ED1DFF86C80A8F155
:101040000808D8F8008048EA0008DFF85C90A9F1A9
:101050000809C9F800800DE0DFF84C80A8F1080805
:10106000D8F8008028EA0008DFF83C90A9F10809C8
:10107000C9F80080521CD1F8008028FA02F8B8F1B3
:10108000000F7FF489AEBDE8F88700000000111062
:101090000010024000080140000C01400010014017
:1010A0000014014008000140080401400246936812
:1010B0000B400BB1012000E0002070470AB1016134
:1010C00001E00B04036170470148006870470000AD
:1010D0000400002070B504460CB9012070BD94F8DE
:1010E0003D0028B9002084F83C00204600F046FB73
:1010F000242084F83D002068006820F00100216869
:1011000008602068006840F400402168086020689A
:10111000006820F400402168086000F02BFD0546BF
:101120005C496068884206D85B48854201D201204C
:1011300007E0002005E05948854201D2012000E087
:101140000020012800D1C9E75548B5FBF0F620681A
:10115000406820F03F003043216848604D49606896
:10116000884201D8701C07E04FF4967070434FF42A
:101170007A71B0FBF1F0401C2168096A21F03F014F
:1011800008432168086243496068884214D8681E91
:1011900061684900B0FBF1F0401CC0F30B0004286B
:1011A00001D204203DE0681E61684900B0FBF1F007
:1011B000401CC0F30B0034E0A06838B9681E6168B9
:1011C00001EB4101B0FBF1F0401C0AE0681E6168D0
:1011D00001EBC10202EB0111B0FBF1F0401C40F445
:1011E0008040C0F30B0008B901201AE0A06848B99C
:1011F000681E616801EB4101B0FBF1F0401CC0F3D7
:101200000B000CE0681E616801EBC10202EB0111EA
:10121000B0FBF1F0401CC0F30B0040F4804040F400
:1012200000402168C9694CF6FF7291430843216868
:10123000C861D4E9070108432168096821F0C001A9
:10124000084321680860D4E90310084321688968CD
:1012500048F2FF329143084321688860D4E90501D0
:1012600008432168C96821F0FF0108432168C8606C
:101270002068006840F001002168086000202064B8
:10128000202084F83D000020206384F83E0000BF49
:1012900024E70000A086010080841E0000093D00B4
:1012A00040420F002DE9FE4F04460F4690469946F6
:1012B000DDE90CAB0E9E00200290FFF705FF05460E
:1012C00094F83D00202872D119230122CE492046EE
:1012D000009501F06AFC10B10220BDE8FE8F00BF4E
:1012E00094F83C00012801D10220F6E7012084F89F
:1012F0003C0000BF2068006800F0010028B92068A9
:10130000006840F00100216808602068006820F44F
:10131000006021680860222084F83D00402084F8A5
:101320003E0000202064C4F824A0A4F82AB0608DF8
:101330002085B648E0624B46424639462046CDE914
:10134000006501F0DFFA08B10120C6E7208D88B9F9
:1013500000BF0020019020684069019020688069EA
:10136000019000BF00BF2068006840F40070216851
:1013700008604BE0208D01281AD12068006820F415
:1013800080602168086072B600BF0020019020686C
:101390004069019020688069019000BF00BF20680B
:1013A000006840F400702168086062B62EE029E110
:1013B000208D022819D12068006840F4006021685F
:1013C000086072B600BF002001902068406901905B
:1013D00020688069019000BF00BF2068006820F489
:1013E00080602168086062B610E02068006840F400
:1013F00080602168086000BF00200190206840697B
:10140000019020688069019000BF00BFEBE0208D53
:1014100003287DD8208D012815D12A463146204643
:1014200001F09FFC08B1012057E720680069616A5C
:101430000870606A401C6062208D401E2085608DAF
:10144000401E6085CFE0208D02282CD1334600223B
:101450006F492046009501F0A8FB08B101203CE748
:1014600072B62068006840F4007021680860206847
:101470000069616A0870606A401C6062208D401ECD
:101480002085608D401E608562B620680069616AB3
:101490000870606A401C6062208D401E2085608D4F
:1014A000401E60859FE03346002259492046009542
:1014B00001F07BFB08B101200FE72068006820F4F1
:1014C00080602168086072B620680069616A0870EF
:1014D000606A401C6062208D401E2085608D401E29
:1014E00060854C4800681921B0FBF1F04FF47A7127
:1014F000B0FBF1F0C0EBC00000EB8000029000BF39
:101500000298401E02900298A8B90020206300E0D3
:1015100039E0202084F83D00002084F83E00206C53
:1015200040F02000206462B600BF002084F83C0038
:1015300000BF0120D1E620684069C0F38000002888
:10154000DED02068006840F40070216808602068E0
:101550000069616A0870606A401C6062208D401EEC
:101560002085608D401E608562B620680069616AD2
:101570000870606A401C6062208D401E2085608D6E
:10158000401E60852FE02A463146204601F0E9FBE7
:1015900008B10120A1E620680069616A0870606AEC
:1015A000401C6062208D401E2085608D401E60853D
:1015B00020684069C0F38000A8B1208D032805D1C0
:1015C0002068006820F48060216808602068006955
:1015D000616A0870606A401C6062208D401E208530
:1015E000608D401E6085208D00287FF410AF202084
:1015F00084F83D00002084F83E0000BF84F83C00E1
:1016000000BF6AE6022068E6020010000000FFFF4B
:1016100004000100100000202DE9FC5F04460F4685
:1016200090469946DDE90CAB0E9EFFF74DFD054651
:1016300094F83D0020287DD1192301224D492046F0
:10164000009501F0B2FA10B10220BDE8FC9F00BF86
:1016500094F83C00012801D10220F6E7012084F82B
:101660003C0000BF2068006800F0010028B9206835
:10167000006840F00100216808602068006820F4DC
:10168000006021680860212084F83D00402084F833
:101690003E0000202064C4F824A0A4F82AB0608D85
:1016A00020853548E0624B46424639462046CDE922
:1016B000006501F0D7F908B10120C6E731E02A46FC
:1016C0003146204601F092FB50B1206C042805D130
:1016D0002068006840F40070216808600120B4E7C9
:1016E000606A007821680861606A401C6062208D31
:1016F000401E2085608D401E608520684069C0F3D3
:10170000800070B1208D60B1606A00782168086146
:10171000606A401C6062208D401E2085608D401EE6
:101720006085208D0028CAD12A463146204601F026
:1017300009FA00E01CE050B1206C042805D12068B3
:10174000006840F400702168086001207DE720688F
:10175000006840F4007021680860202084F83D0093
:10176000002084F83E0000BF84F83C0000BF6CE716
:1017700002206AE7020010000000FFFF10B586B0EB
:1017800004460020029003900490059016492068BA
:10179000884226D100BF1548806940F008001349EF
:1017A00088610846806900F00800019000BF00BF12
:1017B0004FF440600290122003900320059002A98C
:1017C0000B48FFF7E3FA00BF0848C06940F4800007
:1017D0000649C8610846C06900F48000019000BF56
:1017E00000BF06B010BD00000058004000100240CD
:1017F000000C014003480068034909780844014986
:1018000008607047040000200C00002010B5084854
:10181000006840F0100006490860032000F0A8F8B6
:101820000F2000F007F800F02BF8002010BD00009A
:101830000020024070B504460E4800784FF47A71DB
:10184000B1FBF0F00C490968B1FBF0F5284600F057
:101850001BFC08B1012070BD102C07D200222146CC
:10186000501E00F047F80548046001E00120F2E74F
:101870000020F0E70C0000201000002008000020ED
:1018800008B500BF1148806940F001000F49886128
:101890000846806900F00100009000BF00BF00BF53
:1018A0000846C06940F08050C8610846C06900F031
:1018B0008050009000BF00BF00BF0549486820F07D
:1018C000E06040F00070486000BF08BD00100240BA
:1018D0000000014001460846002809DB00F01F0314
:1018E00001229A4043099B0003F1E023C3F8002141
:1018F00000BF70472DE9F05F80460D461646002771
:1019000001F078FF074639462A46334601F00700C2
:10191000C0F1070ABAF1040F02D94FF0040A01E03E
:10192000C0F1070AD14600F1040ABAF1070F02D24A
:101930004FF0000A01E0A0F1030AD4464FF0010A7B
:101940000AFA09FAAAF1010A0AEA020A0AFA0CFAE0
:101950004FF0010B0BFA0CFBABF1010B0BEA030B85
:101960004AEA0B042146404601F04CFFBDE8F09FD7
:1019700000BF00F00702064B19684FF6FF0319403D
:10198000044B0B4343EA0221014B196000BF70472F
:101990000CED00E00000FA0500BF00BF00BF00BF73
:1019A00000BFBFF34F8F00BF00BF00BF09480068F2
:1019B00000F4E06008490843001D0649086000BFC4
:1019C00000BF00BFBFF34F8F00BF00BF00BF00BF0D
:1019D00000BFFDE70CED00E00000FA0570B504461D
:1019E0000D460CB9012070BD5A48006800F0070090
:1019F000A8420ED25748006820F0070028435549F6
:101A000008600846006800F00700A84201D00120E5
:101A1000E9E7207800F0020002281DD1207800F0CC
:101A20000400042805D14C48406840F4E0604A496D
:101A30004860207800F00800082805D14648406832
:101A400040F46050444948604348406820F0F0004A
:101A5000A168084340494860207800F0010078B34D
:101A60006068012806D13C48006800F4003090B955
:101A70000120B8E76068022806D13748006800F006
:101A8000007040B90120AEE73348006800F0020062
:101A900008B90120A7E73048406820F003006168DA
:101AA00008432D494860FFF70FFB064609E0FFF7A2
:101AB0000BFB801B41F28831884202D9032092E758
:101AC00007E02548406800F00C006168B0EB810F2A
:101AD000EDD12048006800F00700A8420ED91D484B
:101AE000006820F0070028431A490860084600688B
:101AF00000F00700A84201D0012074E7207800F030
:101B00000400042807D11448406820F4E060E1682C
:101B1000084311494860207800F00800082808D1DF
:101B20000D48406820F46050216940EAC1000A492C
:101B3000486000F03FF808494968C1F30311074ABB
:101B4000515CC8400649086006480068FFF772FE0D
:101B5000002048E700200240001002403A40000800
:101B600010000020080000200148006870470000B5
:101B70001000002000B5FFF7F7FF04494968C1F3E2
:101B80000221034A515CC84000BD00000010024021
:101B90004A40000800B5FFF7E7FF04494968C1F370
:101BA000C221034A515CC84000BD00000010024041
:101BB0004A40000870B500210022002400230020C4
:101BC000134D696801F00C05F5B1042D02D0082D04
:101BD00019D101E00F4819E00F4DC1F38346AB5D09
:101BE00001F4803555B10A4D6D68C5F340450B4E83
:101BF000725D084D5D43B5FBF2F402E0084D03FB56
:101C000005F4204602E000BF024800BF00BF70BDDF
:101C10000010024000127A002840000838400008F6
:101C200000093D00F8B504460CB90120F8BD207844
:101C300000F00100002878D0F848406800F00C005F
:101C400004280CD0F548406800F00C00082811D199
:101C5000F248406800F48030B0F5803F0AD1EF4888
:101C6000006800F4003000285FD0606800285CD174
:101C70000120DBE700BF6068B0F5803F06D1E74890
:101C8000006840F48030E549086028E0606858B991
:101C9000E248006820F48030E049086008460068A7
:101CA00020F4802008601AE06068B0F5A02F0BD106
:101CB000DA48006840F48020D84908600846006887
:101CC00040F4803008600AE0D448006820F4803096
:101CD000D24908600846006820F48020086000BFF0
:101CE000606888B1FFF7F0F9054606E0FFF7ECF908
:101CF000401B642801D9032098E7C848006800F415
:101D000000300028F2D010E0FFF7DEF9054606E0CB
:101D1000FFF7DAF9401B642801D9032086E7BF48A2
:101D2000006800F400300028F2D1207800F00200B2
:101D3000022857D1B948406800F00C0050B1B748AC
:101D4000406800F00C00082818D1B448406800F43E
:101D5000803098B9B148006800F0020020B12069D5
:101D6000012801D0012061E7AC48006820F0F800AC
:101D7000616940EAC100A949086033E02069E8B11F
:101D80000120A7490860FFF79FF9054606E0FFF725
:101D90009BF9401B022801D9032047E79F480068B0
:101DA00000F002000028F2D09C48006820F0F80003
:101DB000616940EAC1009949086013E00020984930
:101DC0000860FFF781F9054606E0FFF77DF9401B43
:101DD000022801D9032029E79048006800F002009A
:101DE0000028F2D1207800F0080008282DD1A06941
:101DF000B8B101208B490860FFF766F9054606E097
:101E0000FFF762F9401B022801D903200EE783483F
:101E1000406A00F002000028F2D0012001F03CF9F5
:101E200013E000207F490860FFF74EF9054606E001
:101E3000FFF74AF9401B022801D90320F6E677484C
:101E4000406A00F002000028F2D1207800F004007F
:101E5000042873D100277148C06900F0805070B920
:101E600000BF6E48C06940F080506C49C8610846A8
:101E7000C06900F08050009000BF00BF01276A4891
:101E8000006800F48070B0B96748006840F4807062
:101E900065490860FFF718F9054606E0FFF714F9F1
:101EA000401B642801D90320C0E65F48006800F4A5
:101EB00080700028F2D000BFE068012806D15748A2
:101EC000006A40F001005549086227E0E06858B90F
:101ED0005248006A20F00100504908620846006A32
:101EE00020F00400086219E0E06805280BD14B4897
:101EF000006A40F00400494908620846006A40F060
:101F0000010008620AE04548006A20F001004349E8
:101F100008620846006A20F00400086200BFE0681A
:101F2000A0B1FFF7D1F8054609E0FFF7CDF8401B57
:101F300041F28831884202D9032077E622E037480F
:101F4000006A00F002000028EFD012E0FFF7BCF8B2
:101F5000054608E0FFF7B8F8401B41F28831884297
:101F600001D9032062E62D48006A00F00200002833
:101F7000F0D1012F05D12948C06920F080502749B0
:101F8000C86100BFE069C8B32448406800F00C0095
:101F9000082860D0E069022848D10020204908665E
:101FA000FFF792F8054606E0FFF78EF8401B02287F
:101FB00001D903203AE61948006800F000700028B3
:101FC000F2D1206AB0F5803F07D11448406820F470
:101FD0000030A168084311494860D4E9080108436A
:101FE0000E49496821F4741108430C4948600120E6
:101FF0000B490866FFF768F8054607E03DE0FFF784
:1020000063F8401B022801D903200FE6034800684B
:1020100000F000700028F2D02FE000000010024015
:1020200000004242800442420070004000201449F7
:102030000866FFF749F8054606E0FFF745F8401B3C
:10204000022801D90320F1E50E48006800F0007075
:102050000028F2D111E0E069012800D1E6E5094845
:10206000466806F48031206A814204D106F470117A
:10207000606A814201D00120D8E50020D6E5000049
:10208000000042420010024070B504462546681E1A
:10209000B0F1807F01D301200FE0681E4FF0E021F6
:1020A00048610F214FF0FF3001F0ACFB00204FF0F2
:1020B000E021886107200861002070BD30B502462C
:1020C0000B4600BF92F83C00012801D1022030BD30
:1020D000012082F83C0000BF022082F83D00106819
:1020E00044681068816824F070041868044310681C
:1020F0004460104D1068A8420BD01068B0F1804FBA
:1021000007D00D4D1068A84203D00C4D1068A842AE
:1021100005D121F0800158680143106881600120D9
:1021200082F83D0000BF002082F83C0000BF00BFE5
:10213000CDE70000002C01400004004000080040F2
:1021400010B504460CB9012010BD94F83D0028B923
:10215000002084F83C00204600F026F8022084F895
:102160003D00211D206801F0BBF8012084F84600E5
:1021700000BF84F83E0001213F2001554020015559
:102180004120015500BF00BF012084F842004320D8
:102190000155442001554520015500BF012084F818
:1021A0003D000020D0E7000008B5094A01689142CF
:1021B0000DD100BF0749C96941F00401054AD16149
:1021C0001146C96901F00401009100BF00BF08BDBC
:1021D00000080040001002402DE9F04104460D4681
:1021E000002700BF94F83C00012802D10220BDE87E
:1021F000F081012084F83C0000BF022084F83D00FB
:102200002068866826F0770626F47F462068866078
:102210002868502833D00CDC202850D004DC00285B
:102220004BD0102851D149E0302849D040284CD11A
:1022300039E060282DD0702807D0B0F5805F03D03A
:10224000B0F5005F41D10DE041E0D5E902136A68C5
:10225000206801F087F82068866846F077062068D5
:10226000866034E0D5E902136A68206801F07AF8E4
:102270002068806840F480402168886027E0EA6830
:102280006968206801F082F85021206801F075F833
:102290001DE0EA686968206801F08BF86021206819
:1022A00001F06BF813E0EA686968206801F06EF8E5
:1022B0004021206801F061F809E000BF00BF00BFC5
:1022C0002968206801F059F801E0012700BF00BF2C
:1022D000012084F83D0000BF002084F83C0000BFCE
:1022E000384684E7704770472DE9F84F0446206868
:1022F00005682068C668206847694FF00009CA462B
:1023000005F00F09B9F1000F0AD105F0200038B12E
:1023100006F0200020B1204601F0CFF8BDE8F88F8C
:10232000B9F1000F7BD007F0010018B906F49070E6
:10233000002874D005F0010030B106F4807018B1A7
:10234000606C40F00100606405F0040030B107F0FB
:10235000010018B1606C40F00200606405F00200FA
:1023600030B107F0010018B1606C40F00400606407
:1023700005F0080048B106F0200010B907F0010090
:1023800018B1606C40F008006064606C002845D0B3
:1023900005F0200028B106F0200010B1204601F021
:1023A0008CF820684069C0F3801A606C00F0080067
:1023B00010B9BAF1000F2CD0204601F038F820688F
:1023C000406900F0400000B300BF00BF2168143135
:1023D00051E8001F21F040002168143141E800025B
:1023E000002AF3D100BFE06B50B17748E16B48633E
:1023F000E06BFEF78DFB88B1E06B416B88470DE029
:102400002046FFF770FF09E009E02046FFF76BFF69
:1024100004E02046FFF767FF002060647EE7206B42
:10242000012877D105F01000002873D006F01000C5
:102430000028FAD000BF00200090206800680090BB
:1024400020684068009000BF00BF2068406900F02D
:10245000400000285FD0E06B006840681FFA80F8F9
:10246000B8F1000F55D0A08D404552DDA4F82E8064
:10247000E06B8069202843D000BF00BF21680C3189
:1024800051E8001F21F4807021680C3141E80002FE
:10249000002AF3D100BF00BF00BF2168143151E80A
:1024A000001F21F001002168143141E80002002AD8
:1024B000F3D100BF00BF00BF2168143151E8001FF5
:1024C00021F040002168143141E80002002AF3D1D4
:1024D00000BF202084F842000020206300BF00BF1E
:1024E00021680C3151E8001F21F0100021680C31E7
:1024F00041E80002002AF3D100BFE06BFEF7DCFAEE
:1025000002206063A08DE28D801A81B22046FFF721
:10251000E9FE03E742E0A08DE18D401A1FFA80F842
:10252000E08DD0B3B8F1000F37D000BF00BF2168F5
:102530000C3151E8001F21F4907021680C3141E802
:102540000002002AF3D100BF00BF00BF2168143190
:1025500051E8001F21F001002168143141E8000218
:10256000002AF3D100BF202084F84200002020631D
:1025700000BF00BF21680C3151E8001F21F010009E
:1025800021680C3141E80002002AF3D100BF02208B
:10259000606341462046FFF7A5FEBFE605F08000D8
:1025A00030B106F0800018B1204601F0A3F8B5E67E
:1025B00005F0400030B106F0400018B1204600F0B0
:1025C0006CFFABE600BFA9E61B34000810B504465B
:1025D0000CB9012010BDA06900B100E000BF94F863
:1025E000410028B9002084F84000204600F02AF875
:1025F000242084F841002068C06820F4005021683D
:10260000C860204600F0D8FF2068006920F49040A0
:10261000216808612068406920F02A00216848612B
:102620002068C06840F400502168C86000206064E1
:10263000202084F8410084F842000020606300BF3D
:10264000C8E7000010B586B0044600200290039051
:10265000049005901E492068884236D100BF1D486D
:10266000806940F480401B4988610846806900F415
:102670008040019000BF00BF00BF0846806940F065
:10268000040088610846806900F00400019000BFE2
:1026900000BF48150290022003900320059002A974
:1026A0000D48FEF773FB4FF480600290002003900A
:1026B000049002A90848FEF769FB00221146252074
:1026C000FFF718F92520FFF705F906B010BD000047
:1026D00000380140001002400008014070B5044677
:1026E0000D46164694F8420020280BD105B10EB9CC
:1026F000012070BD0020206332462946204600F0AC
:10270000D9FFF6E70220F4E710B50446084920682F
:1027100088420BD10748FFF7E7FD0749087801F029
:1027200067FB012204490348FFF7D8FF10BD0000F2
:102730000038014004020020400000202DE9F84F3D
:1027400004460E46174699464FF0000A94F8410099
:10275000202850D106B117B90120BDE8F88F00201C
:102760006064212084F84100FEF7AEFC8246A78415
:10277000E784A068B0F5805F04D1206910B9002516
:10278000B04602E035464FF000081EE053460022F6
:1027900080212046CDF8009000F0DCFF20B1202001
:1027A00084F841000320D8E745B9B8F80000C0F329
:1027B00008002168486008F1020803E028782168D1
:1027C00048606D1CE08C401EE084E08C0028DDD168
:1027D0005346002240212046CDF8009000F0BAFF79
:1027E00020B1202084F841000320B6E7202084F89F
:1027F00041000020B1E70220AFE7704710B5022189
:10280000802000F00DF80621802000F009F8082152
:10281000802000F005F85221802000F001F810BD62
:1028200070B505460C46002280210B48FEF746FC99
:102830000120FEF778F80421284600F0DBFC08218F
:10284000204600F0D7FC012280210348FEF736FC29
:102850000120FEF768F870BD000801402DE9F04145
:1028600005460E4617460024002280211348FEF735
:1028700025FC0120FEF757F80321A02000F0BAFC48
:10288000A806050E0621284600F0B4FC00BF08E0AB
:10289000305D082100F0AEFC0A20FEF744F8601C11
:1028A000C4B2BC42F4DB012280210448FEF706FCDE
:1028B0000120FEF738F8BDE8F08100000008014073
:1028C00000BFFEE7014608684069C0F38020B0B150
:1028D0006FF480600A68506100200863202081F84E
:1028E0003D00002081F83E00086C40F004000864C0
:1028F00000BF002081F83C0000BF0120704700208D
:10290000FCE700002DE9F84304460F4615469946BA
:10291000DDE908862068006840F48060216808606E
:102920002068006840F480702168086043460022F7
:102930004FF001112046009600F037F960B1206891
:10294000006800F48070B0F5807F02D14FF4007011
:1029500020640320BDE8F88307F0FE0021680861C9
:10296000334642463E49204600F07EF908B1012038
:10297000F0E700BF002000902068406900902068C8
:102980008069009000BF00BF32464146204600F0FB
:102990002DFA50B1206C042805D12068006840F45D
:1029A0000070216808600120D4E7B9F1010F03D15C
:1029B000E8B22168086117E0C5F3072021680861C3
:1029C00032464146204600F011FA50B1206C0428EE
:1029D00005D12068006840F400702168086001207B
:1029E000B8E7E8B22168086132464146204600F067
:1029F000FDF950B1206C042805D12068006840F42E
:102A00000070216808600120A4E72068006840F495
:102A1000807021680860434600224FF00111204673
:102A2000009600F0C2F858B12068006800F4807089
:102A3000B0F5807F02D14FF400702064032089E755
:102A4000F8B240F00100216808613346424604496B
:102A5000204600F009F908B101207BE7002079E762
:102A6000020001002DE9F8430446884615469946C0
:102A7000DDE908672068006840F48070216808601C
:102A8000334600224FF001112046009700F08DF8E8
:102A900060B12068006800F48070B0F5807F02D1DA
:102AA0004FF4007020640320BDE8F88308F0FE00B6
:102AB000216808613B4632462149204600F0D4F89F
:102AC00008B10120F0E700BF0020009020684069B5
:102AD000009020688069009000BF00BF3A463146F0
:102AE000204600F083F950B1206C042805D12068FD
:102AF000006840F40070216808600120D4E7B9F153
:102B0000010F03D1E8B22168086117E0C5F307207F
:102B1000216808613A463146204600F067F950B115
:102B2000206C042805D12068006840F400702168FA
:102B300008600120B8E7E8B2216808610020B3E727
:102B40000200010070B504460D46164625E02046F9
:102B5000FFF7B8FE08B1012070BD681CE8B1FEF7B0
:102B6000B3FA801BA84200D8BDB920684069C0F301
:102B7000800090B900202063202084F83D000020D0
:102B800084F83E00206C40F02000206400BF00204C
:102B900084F83C0000BF0120DEE720684069C0F3F4
:102BA00080000028D3D00020D6E72DE9F04104466C
:102BB0000D4617461E46DDF8188038E0701CA8B395
:102BC000FEF782FAA0EB0800B04200D876BBC5F34E
:102BD000074001280AD120684069A9B20840A9B27B
:102BE000884201D101200BE0002009E020688069C3
:102BF000A9B20840A9B2884201D1012000E000201A
:102C0000B84214D100202063202084F83D00002029
:102C100084F83E00206C40F02000206400BF0020BB
:102C200084F83C0000BF0120BDE8F081FFE7C5F358
:102C3000074001280AD120684069A9B20840A9B21A
:102C4000884201D101200BE0002009E02068806962
:102C5000A9B20840A9B2884201D1012000E00020B9
:102C6000B842ABD00020DFE72DE9F04104460D4625
:102C700016461F4658E020684069C0F38020E8B13E
:102C80002068006840F40070216808606FF480607C
:102C90002168486100202063202084F83D00002046
:102CA00084F83E00206C40F00400206400BF002047
:102CB00084F83C0000BF0120BDE8F081701C90B397
:102CC000FEF702FAC01BB04200D866BBC5F307404E
:102CD00001280AD120684069A9B20840A9B28842F7
:102CE00001D101200BE0002009E020688069A9B231
:102CF0000840A9B2884201D1012000E0002090B92B
:102D000000202063202084F83D00002084F83E004D
:102D1000206C40F02000206400BF002084F83C00BC
:102D200000BF0120C8E7FFE7C5F3074001280AD12B
:102D300020684069A9B20840A9B2884201D10120A7
:102D40000BE0002009E020688069A9B20840A9B220
:102D5000884201D1012000E0002000288BD0002013
:102D6000AAE770B504460D46164637E0206840696C
:102D7000C0F30010A0B16FF010002168486100207E
:102D80002063202084F83D00002084F83E00206C61
:102D9000206400BF002084F83C0000BF012070BD0B
:102DA000FEF792F9801BA84200D8BDB9206840699F
:102DB000C0F3801090B900202063202084F83D00EB
:102DC000002084F83E00206C40F02000206400BF0A
:102DD000002084F83C0000BF0120E0E72068406943
:102DE000C0F380100028C1D00020D8E770B5044699
:102DF0000D46164625E02046FFF764FD08B1012088
:102E000070BD681CE8B1FEF75FF9801BA84200D8CE
:102E1000BDB920684069C0F3C01090B9002020639C
:102E2000202084F83D00002084F83E00206C40F013
:102E30002000206400BF002084F83C0000BF012077
:102E4000DEE720684069C0F3C0100028D3D000201E
:102E5000D6E7000070B504460D4A32F814100D4A4A
:102E600052F82400FEF722F90546012D00D100E0BA
:102E7000002009490855012D04D10120074901F816
:102E8000240003E00020054901F8240070BD000083
:102E900056400008300000203C0000206104002063
:102EA000094911F82010012906D18140074A1278FA
:102EB0001143064A117006E001218140034A12784D
:102EC0008A4302490A707047610400203F000020D5
:102ED00000B585B00020019002900390049000BFDF
:102EE0002F48806940F020002D498861084680699C
:102EF00000F02000009000BF00BF00BF08468069BE
:102F000040F0040088610846806900F004000090E9
:102F100000BF00BF00BF0846806940F0080088611C
:102F20000846806900F00800009000BF00BF002242
:102F3000FC211C48FEF7C2F8002207211A48FEF7C0
:102F4000BDF804200190012002900390022004901B
:102F500001A91448FDF71AFFF82001900120029002
:102F6000002003900220049001A90E48FDF70EFFF7
:102F7000072001900120029000200390022004907D
:102F800001A90948FDF702FF4FF4604001900020BD
:102F90000290039001A90448FDF7F8FE05B000BDBA
:102FA0000010024000080140000C014010B50B4821
:102FB0000B4908600B484860002109488160C160E6
:102FC0004FF480410161002141618161C161016271
:102FD000FEF780F808B1FDF7B9FC10BD00580040BD
:102FE00068010020A086010000B587B00020039092
:102FF00004900590069001900290144814490860CE
:10300000002048600021124881604FF6FF71C160C6
:10301000002101618161FFF793F808B1FDF796FC8B
:103020004FF48050039003A90948FFF7D5F808B181
:10303000FDF78CFC00200190029001A90448FFF7E5
:103040003DF808B1FDF782FC07B000BD0008004064
:10305000BC01002010B50B480B4908604FF4E1306B
:103060004860002108488160C16001610C21416114
:1030700000218161C161FFF7A9FA08B1FDF766FC83
:1030800010BD0000003801400402002000BFFEE730
:1030900000BFFEE77047000008B508490968C90885
:1030A0004FF47A72B1FBF2F14143009100BF00BFCF
:1030B00000994A1E00920029F9D108BD1000002095
:1030C0004A49097A21F00E01484A11721146497A9B
:1030D00021F0FE0151720B286FD2DFE800F00612DA
:1030E0001C2834404C58626F7B004049097A41F0FB
:1030F0000A013E4A11721146497A41F0F0015172BB
:1031000071E03A49097A394A11721146497A41F017
:103110006001517267E03549097A41F00C01334A88
:1031200011721146497A41F0B00151725BE02F49AA
:10313000097A41F004012D4A11721146497A41F091
:10314000F00151724FE02949097A41F00601274AFE
:1031500011721146497A41F06001517243E02349EE
:10316000097A41F00601214A11721146497A41F06B
:10317000D001517237E01D49097A41F00E011B4A16
:1031800011721146497A41F0D00151722BE0174972
:10319000097A164A11721146497A41F0700151724A
:1031A00021E01249097A41F00E01104A11721146CC
:1031B000497A41F0F001517215E013E00B49097AA8
:1031C00041F00601094A11721146497A41F0F001B5
:1031D000517208E00549097A044A11721146497A88
:1031E000517200E000BF00BF7047000040010020A6
:1031F0007047000070B504460D46002621E000220D
:1032000002211148FDF75AFF04F0800028B900227E
:1032100004210D48FDF752FF04E0012204210A4871
:10322000FDF74CFF0120FDF77EFB0122022106483D
:10323000FDF744FF0120FDF776FB6006040E701CCD
:10324000C6B2AE42DBDB70BD000C014030B90749AD
:10325000097801F0FE01054A117005E0034909787B
:1032600041F00101014A1170704700004001002047
:1032700010B5FEF7BFFA10BD00B58FB0282105A824
:10328000FCF7E7FF14216846FCF7E3FF01200590F7
:1032900000040690002007900120099002200C9065
:1032A000C1030D914FF4E0110E9105A8FEF7BAFC91
:1032B00008B1FDF74BFB0F20009002200190002089
:1032C00002904FF480600390002004900221684631
:1032D000FEF784FB08B1FDF739FB0FB000BD704766
:1032E00010B502681C4B984208D0B0F1804F05D051
:1032F0001A4B984202D01A4B984203D122F0700226
:103300004B681A43144B984208D0B0F1804F05D057
:10331000124B984202D0124B984203D122F44072D1
:10332000CB681A4322F080034C6943EA040202602E
:103330008B68C3620B688362074B984201D10B69AB
:10334000036301234361036903F001031BB10369B4
:1033500023F00103036110BD002C01400004004074
:103360000008004030B50C46816821F47F4142EAF4
:10337000032525432943816030BD0A46816821F039
:10338000700142F0070319438160704730B50B4666
:103390001446026A056A25F001050562816921F07B
:1033A000F00141EA041122F00A021A43816102622B
:1033B00030BD30B50B461446026A056A25F010058B
:1033C0000562816921F4704141EA043122F0A002D2
:1033D00042EA03128161026230BD000030B9074940
:1033E000097801F0EF01054A117005E003490978F9
:1033F00041F01001014A11707047000040010020A7
:1034000010B5002406E02046FFF724FD2046FFF714
:1034100047FD641C032CF6DB10BD70B505466C6AD5
:103420000020E085E0842046FEF75DFF70BD00BF10
:1034300000BF02680C3252E8002F22F4907102683B
:103440000C3242E80013002BF3D100BF00BF00BFD5
:103450000268143252E8002F22F00101026814328F
:1034600042E80013002BF3D100BF016B01290ED1FC
:1034700000BF00BF02680C3252E8002F22F010019A
:1034800002680C3242E80013002BF3D100BF202168
:1034900080F8421000210163704710B5044620688F
:1034A000C06820F040002168C860202084F84100F6
:1034B0002046FFF7A2F9002010BDF8B5044694F8A5
:1034C0004200222875D1A068B0F5805F0CD1206938
:1034D00050B90025A66A20684068C0F30800308013
:1034E000A06A801CA06215E0A56A0026A068B0F55D
:1034F000805F03D0A06828B9206918B920684068A7
:10350000287004E02068406800F07F002870A06AFE
:10351000401CA062E08D401E80B2E085002846D1AC
:103520002068C06820F020002168C8602068C0685A
:1035300020F480702168C8602068406920F0010094
:1035400021684861202084F8420000206063206BDD
:10355000012826D10020206300BF00BF21680C3164
:1035600051E8001F21F0100021680C3141E80002F1
:10357000002AF3D100BF2068006800F01000102876
:103580000AD100BF002000902068006800902068E9
:103590004068009000BF00BFA18D2046FEF7A2FE4C
:1035A00002E02046FFF7B0F80020F8BD01E000205F
:1035B000FBE70220F9E7000070B5044621680969BD
:1035C00021F44051E2681143226811612269A16827
:1035D0001143626941EA02052168C96841F20C623F
:1035E000914329432268D1602168496921F44071DF
:1035F000A2691143226851612D4A2168914202D18A
:10360000FEF7C8FA01E0FEF7B5FA00EBC00101EBE6
:10361000001162689200B1FBF2F100EBC00202EB14
:10362000001263689B00B2FBF3F26423B2FBF3F277
:1036300002EBC20303EB0212A1EB8201322202EB86
:1036400001116422B1FBF2F101F0F00100EBC002C4
:1036500002EB001263689B00B2FBF3F26423B2FB3F
:10366000F3F201EB021200EBC00101EB0011636801
:103670009B00B1FBF3F100EBC00303EB00136668A2
:10368000B600B3FBF6F36426B3FBF6F303EBC30615
:1036900006EB0313A1EB8301322303EB0111642337
:1036A000B1FBF3F101F00F0111442268916070BD8C
:1036B0000038014010B5034699629A85DA850020EA
:1036C0005864222083F84200186928B11868C0683D
:1036D00040F480701C68E0601868406940F00100A8
:1036E0001C6860611868C06840F020001C68E060D9
:1036F000002010BD014691F84100212828D188689A
:10370000B0F5805F0BD1086948B90A6A1088C0F328
:1037100008000B685860086A801C086205E00B6AA4
:10372000581C086218780B685860C88C401E80B21C
:10373000C88458B90868C06820F080000B68D86059
:103740000868C06840F040000B68D86000207047EF
:103750000220FCE72DE9F84304460D46174698463B
:10376000089E31E0701C70B3FDF7AEFCA0EB0800C2
:10377000B04200D816B90320BDE8F8832068C068BD
:1037800000F00400F8B1802D1ED0402D1CD0206820
:103790000068C0F3C000B0B100BF002000902068F6
:1037A0000068009020684068009000BF00BF20467D
:1037B000FFF73DFE0820606400BF002084F8400051
:1037C00000BF0120D8E7FFE7206800682840A84232
:1037D00001D1012000E00020B842C3D00020CBE797
:1037E00010B50248FEF780FD10BD00000402002065
:1037F00000BFFEE702480068C0F3022070470000E7
:103800000CED00E010B5002804DB0A07130E054A92
:10381000135406E00A07140E034A00F00F031B1F9F
:10382000D45410BD00E400E018ED00E010B51E21F6
:10383000652000F0C1F90B21662000F0BDF910BD34
:1038400001460020087800024A78104300028A7876
:1038500010430002CA781043704700002DE9FC5F56
:103860000446454800EB04090146601D095C424AD4
:10387000201D105C41EA002A1146E01C11F800B03E
:1038800009F106000090BBF1060F36D007DCBBF152
:10389000060F6DD2DFE80BF015181B1E292DBBF1AA
:1038A0000B0F52D006DCBBF1080F47D0BBF10A0F5B
:1038B0005ED146E0BBF10E0F48D0BBF12B0F57D1C4
:1038C0004FE000F0EFF854E000F0BAF951E000F0FA
:1038D000CFF84EE02849A01D085C28490870002256
:1038E0000321084600F06EFB43E0012024490870E4
:1038F0003FE00120234908703BE01F49601D095C3F
:103900001D4A201D105C41EA002A002513E0A01D7D
:103910002844801C1849085C0702A01D2844C01CCC
:10392000085C07442144891D481900F02DF80190D6
:10393000381D284485B25545E9DB1AE0FFF776FFCC
:1039400017E072B6FEF728F813E012E00A49A01D4E
:103950000E5CE01D11F800804146304600F096FAFA
:1039600007E00549A01D0E5C304600F089F800E034
:1039700000BF00BFBDE8FC9F700200202B000020AC
:10398000290000202A0000202DE9F047044626786F
:1039900094F80180A0784FF6FF7101EA0025E078E5
:1039A000284485B2304600F04BF80746084800EB43
:1039B00047004078404502D00020BDE8F0872A4605
:1039C000211D304600F01AF881464846F5E7000010
:1039D000524000082DE9F04104460D462946204694
:1039E00000F026F907463946652000F0E5F806465E
:1039F000012E01D1BDE8F0810020FBE72DE9F04167
:103A000004460D4616460127652C05D13146284649
:103A1000FFF7E0FF074600E000BF00BF3846BDE803
:103A2000F08130B502460020002305E012F8015B6A
:103A30002C18E0B25C1CA3B28B42F7DB30BD000057
:103A400070B5054600F012F80646002407E0064867
:103A500010F81400A84200D103E0601CC4B2B442C4
:103A6000F5DB00BF204670BD5240000802207047C1
:103A700010B5002422460321022000F0A3FA10BD55
:103A800007280CD2DFE800F00405060708090A0041
:103A900006E005E004E003E002E001E000E000BF32
:103AA00000BF704710B500240B48007840B90021D2
:103AB000204600F047F9C4B201200749087004E02D
:103AC0000121204600F03EF9C4B222460321002025
:103AD00000F078FA10BD00002C000020FDF796FEE3
:103AE000FFF7CAFBFFF7F4F9FFF7B4FAFFF77CFA28
:103AF000FFF75CFAFCF716FE2748006840686FF095
:103B000020002549096808606FF0400022490968D3
:103B10000860012221492048FEF7E0FD1E48FCF71D
:103B2000DDFE00F09DF9FCF7DFFE00F089F81C488F
:103B30001C4908606C2008710846FCF720FCFEF761
:103B40005DFEFCF7F7FE0120FFF748FC0120FFF7C0
:103B50007DFB102214490020FEF780FE0122402147
:103B60001248FDF7ABFA002208211048FDF7A6FA2B
:103B700010E000F08FF9FFF743FC0D490948FCF70E
:103B8000CDFB0C480078FFF79BFA10220649002075
:103B9000FEF764FEEDE70000040200204000002074
:103BA0006801002050010020400100200008014071
:103BB000000000203F00002070B505460C4600269E
:103BC0001A480078012800D170BD2946304600F01F
:103BD000B9F806460221304600F0B4F80646002146
:103BE000304600F0AFF806460421304600F0AAF84F
:103BF0000646210E304600F0A5F80646C4F30741FC
:103C0000304600F09FF80646C4F30721304600F026
:103C100099F80646E1B2304600F094F8064632467E
:103C20000321072000F0CEF90120CDE72800002075
:103C300010B503460C461846FFF702FE10BD000003
:103C40003EB50024002000900190029025A000F0D5
:103C5000C1F885B22A4623A1204600F05FF8C4B21D
:103C600022A000F0B7F885B22A4620A1204600F035
:103C700055F8C4B222A000F0ADF885B22A4620A1C2
:103C8000204600F04BF8C4B21FA000F0A3F885B2A4
:103C90002A461DA1204600F041F8C4B21CA000F045
:103CA00099F885B22A461AA1204600F037F8C4B226
:103CB00016A000F08FF885B22A4614A1204600F025
:103CC0002DF8C4B214A000F085F885B22A4612A1DE
:103CD000204600F023F8C4B222460321012000F060
:103CE00071F93EBD7B2270223A220000666E6C6F35
:103CF00069316E696F39367A6D6D6562000000005A
:103D0000222C2276223A2200312E302E3200000060
:103D1000222C226D223A00007D0000002DE9F041A6
:103D200004460E461546064807192A4631463846C7
:103D300000F02EF8601984B22046BDE8F081000042
:103D400030040020024B1A181170431C98B27047BF
:103D50003004002000200B4909680B4A1268914288
:103D60000FD008490A6809498A4202D38739054AAF
:103D7000116004490968087802490968491C014A28
:103D80001160704724000020200000202A04002039
:103D9000F0B505460E4613462A46344605B10EB91F
:103DA0000020F0BDA24202D9E018904208D20021C2
:103DB00003E0605C5054481C81B29942F9DB07E093
:103DC000194603E0481E275C175481B20029F9DC2C
:103DD0002846E6E70146002209B900207047002284
:103DE00000E0521C11F8013B002BFAD11046F5E718
:103DF00012490968124A1268891A01291CD010490F
:103E000009680E4A1268914206D90D4909680B4AA1
:103E10001268891A87290FD209490A6809498A4212
:103E200002D38739064A11600549096808700449B8
:103E30000968491C024A11607047000024000020F4
:103E4000200000202A04002001B54FF0FF3301229A
:103E500069460248FEF772FC08BD0000040200201B
:103E600005480649086006490860002005490870B1
:103E7000FF20054908707047A303002020000020A0
:103E800024000020280000202B00002008B901B1E8
:103E900000BF704770B50024002509E0FFF75AFF06
:103EA0003A490A880988491C384B1980384988548E
:103EB00036480088B0F5997F03D800F0A7F80028AD
:103EC000ECDC32480088072800DA70BD46E0304854
:103ED000005D552802D0601C84B23FE02C49601C74
:103EE000085CAA2802D0601C84B237E02849A01CD4
:103EF000085C10B1A01C84B230E02549201D085C8C
:103F00004FF6FF7101EA00252149601D085CC01DC4
:103F1000284485B2B5F59D7F05D91E481E49086025
:103F20001E4908601FE019480088001BA84200DAFB
:103F300019E06A1E91B2164A1019FFF772FD611955
:103F4000491E134A515C884202D0E01C84B205E04D
:103F50002046FFF783FC601984B200BF0B4800883D
:103F6000001B0728B3DA00BF08480088001B074978
:103F7000088008460088002806DD05480119034826
:103F800002880348FFF704FF00BF9EE71C000020E3
:103F900070020020A3030020240000202000002045
:103FA00070B504460D4604B105B970BD03E0207834
:103FB000FFF74AFF641C281EA5F101018DB2F6D15E
:103FC00000BFF2E72DE9F04105460E4614460027F2
:103FD00055200D490870AA20487008468670C570A3
:103FE000201208714C71E01D84B2601E81B2064837
:103FF000FFF717FD0746601E03490F54214602488C
:10400000FFF7CEFFBDE8F0812A04002004480068D5
:1040100004490968884201D0012070470020FCE76C
:1040200020000020240000200203040506070809E0
:104030000A0B0C0D0E0F1010010200000000000012
:104040000000010203040607080900000000010245
:104050000304650266020080004000207C400008E6
:10406000000000204000000028010008BC400008BB
:1040700040000020900A00004401000800000000F9
:1040800000000000100000000100000000127A0093
:104090000000000000000000000000000000000020
:1040A000000000000000000000000000000C0140C3
:0C40B000000C0140000C0140000000006A
:04000005080000ED02
:00000001FF
