:020000040800F2
:10400000D01900208941000871550008F1540008BA
:104010006D55000815430008E9590008000000002C
:10402000000000000000000000000000A155000892
:10403000194300080000000075550008A35500084A
:10404000A3410008A3410008A3410008A3410008C0
:10405000A3410008A3410008A3410008A3410008B0
:10406000A3410008A3410008A3410008A3410008A0
:10407000A3410008A3410008A3410008A341000890
:10408000A3410008A3410008A3410008A341000880
:10409000A3410008A3410008A3410008A341000870
:1040A000A3410008A3410008A3410008A341000860
:1040B000A3410008A3410008A3410008A341000850
:1040C000A3410008A3410008A3410008A341000840
:1040D000A3410008D9590008A3410008A3410008E2
:1040E000A3410008A3410008A341000800F002F822
:1040F00000F03AF80AA090E8000C82448344AAF148
:104100000107DA4501D100F02FF8AFF2090EBAE845
:104110000F0013F0010F18BFFB1A43F001031847FB
:10412000EC2100000C220000103A24BF78C878C1AE
:10413000FAD8520724BF30C830C144BF04680C60AD
:10414000704700000023002400250026103A28BFF5
:1041500078C1FBD8520728BF30C148BF0B607047F9
:104160001FB51FBD10B510BD00F077F81146FFF761
:10417000F7FF01F01FFE00F095F803B4FFF7F2FF20
:1041800003BC00F09DF8000009488047094800473B
:10419000FEE7FEE7FEE7FEE7FEE7FEE7FEE7FEE7F7
:1041A000FEE7FEE704480549054A064B7047000054
:1041B00011560008ED400008D0130020D01900204F
:1041C000D0150020D015002010B5431C02E010F8D7
:1041D000011B71B18107FAD14FF0013202C88C1A6C
:1041E0008C4314EAC211F9D0C01A0A0603D0C01ECB
:1041F00010BDC01A10BD0A0401D0801E10BD0902F6
:10420000FCD0401E10BD4FF0000200B5134694468E
:104210009646203922BFA0E80C50A0E80C50B1F11E
:104220002001BFF4F7AF090728BFA0E80C5048BF32
:104230000CC05DF804EB890028BF40F8042B08BFD0
:10424000704748BF20F8022B11F0804F18BF00F8CC
:10425000012B7047704770477047754600F02CF887
:10426000AE4605006946534620F00700854618B063
:1042700020B5FFF797FFBDE820404FF000064FF054
:1042800000074FF000084FF0000B21F00701AC468B
:10429000ACE8C009ACE8C009ACE8C009ACE8C009AA
:1042A0008D46704710B50446AFF300802046BDE848
:1042B0001040FFF762BF00000048704770130020F5
:1042C00001491820ABBEFEE726000200704700003F
:1042D0000020014908707047101000200149086053
:1042E000704700001410002070B5044608480068AC
:1042F00060B15CB12046FFF767FF85B241F28833B9
:104300002A4621460248006801F092F870BD00007C
:104310001410002000BFFEE7704772B600BFFEE732
:104320000146002291F82100022808D00420886369
:1043300000BF002081F8200000BF012070470868FE
:10434000006820F00E000B6818600868006820F014
:1043500001000B68186091F8403001209840CB6B49
:104360005860012081F8210000BF002081F8200062
:1043700000BF1046E2E7000070B50446002594F83F
:104380002100022803D00420A063012548E0206812
:10439000006820F00E00216808602068006820F0A6
:1043A0000100216808601F492068884201D101206E
:1043B00026E01C4914312068884201D110201FE0FA
:1043C000184928312068884201D1801518E0154924
:1043D0003C312068884201D1801411E011495031EC
:1043E0002068884202D14FF4803009E00D496431E1
:1043F0002068884202D14FF4801001E04FF08070B5
:10440000084908394860012084F8210000BF0020D5
:1044100084F8200000BF606B10B12046616B8847B4
:10442000284670BD080002402DE9F84703460022E7
:1044300094466EE14FF0010808FA02F4D1F80080CA
:1044400008EA0400A0427DD1DFF8DCA2D1F80480A4
:10445000A8EB0A09D0453AD014DCB8F1030F50D0CC
:1044600009DCB8F1000F31D0B8F1010F1CD0B8F160
:10447000020F49D120E0B8F1110F18D0B8F1120F96
:1044800042D11EE0B9F5881F25D006DCB9F5803F82
:1044900020D0B9F5801F37D11AE0B9F5001F18D028
:1044A000B9F5041F30D117E0D1F80CC02DE0D1F8D8
:1044B0000C8008F1040C28E0D1F80C8008F1080CFD
:1044C00023E0D1F80C8008F10C0C1EE000BF00BF07
:1044D00000BF00BF00BF00BFD1F80880B8F1000FD7
:1044E00002D14FF0040C0BE0D1F80880B8F1010FB5
:1044F00003D14FF0080C1C6102E04FF0080C5C6126
:1045000003E04FF0000C00E000BF00BFFF2801D81F
:10451000984601E003F104084646FF2802D84FEA16
:10452000820803E0A2F108084FEA88084746D6F857
:1045300000804FF00F0909FA07F928EA09080CFA78
:1045400007F900E088E048EA0908C6F80080D1F8D9
:10455000048008F08058B8F1805F7DD100BFDFF89B
:10456000CC81D8F8188048F00108DFF8C091C9F86C
:104570001880C846D8F8188008F00108CDF80080E7
:1045800000BF00BF4FEAB9384FEA920958F82950E6
:104590004FEA82784FEA18794FF00F0808FA09F8C5
:1045A00025EA0805DFF88881434502D14FF000086D
:1045B00016E0DFF88081434502D14FF001080FE09B
:1045C000DFF87481434502D14FF0020808E0DFF8BC
:1045D0006C81434502D14FF0030801E04FF004081D
:1045E0004FEA82794FEA197908FA09F848EA05058D
:1045F000DFF84C814FEA920948F82950D1F804803D
:1046000008F48018B8F5801F0AD1DFF83881D8F88F
:10461000008048EA0008DFF82C91C9F8008009E022
:10462000DFF82081D8F8008028EA0008DFF814912C
:10463000C9F80080D1F8048008F40018B8F5001F0C
:1046400010D1DFF8008108F10408D8F8008048EAAA
:104650000008DFF8F09000E05AE009F10409C9F819
:1046600000800DE0DFF8DC8008F10408D8F8008055
:1046700028EA0008DFF8CC9009F10409C9F80080A5
:10468000D1F8048008F40038B8F5003F0ED1DFF807
:10469000B480A8F10408D8F8008048EA0008DFF8E0
:1046A000A490A9F10409C9F800800DE0DFF8948016
:1046B000A8F10408D8F8008028EA0008DFF8849000
:1046C000A9F10409C9F80080D1F8048008F4803801
:1046D000B8F5803F0ED1DFF86C80A8F10808D8F853
:1046E000008048EA0008DFF85C90A9F10809C9F8E1
:1046F00000800DE0DFF84C80A8F10808D8F80080B1
:1047000028EA0008DFF83C90A9F10809C9F8008000
:10471000521CD1F8008028FA02F8B8F1000F7FF49B
:1047200089AEBDE8F88700000000111000100240BB
:1047300000080140000C014000100140001401403D
:10474000080001400804014001480068704700006B
:104750000010002003480068034909780844014913
:1047600008607047001000200810002010B50848AD
:10477000006840F0100006490860032000F0A8F827
:104780000F2000F007F800F02BF8002010BD00000B
:104790000020024070B504460E4800784FF47A714C
:1047A000B1FBF0F00C490968B1FBF0F5284600F0C8
:1047B000F9FB08B1012070BD102C07D20022214660
:1047C000501E00F047F80548046001E00120F2E7C0
:1047D0000020F0E7081000200C100020041000203A
:1047E00008B500BF1148806940F001000F49886199
:1047F0000846806900F00100009000BF00BF00BFC4
:104800000846C06940F08050C8610846C06900F0A1
:104810008050009000BF00BF00BF0549486820F0ED
:10482000E06040F00070486000BF08BD001002402A
:104830000000014001460846002809DB00F01F0384
:1048400001229A4043099B0003F1E023C3F80021B1
:1048500000BF70472DE9F05F80460D4616460027E1
:1048600001F0C4F8074639462A46334601F00700EE
:10487000C0F1070ABAF1040F02D94FF0040A01E0AF
:10488000C0F1070AD14600F1040ABAF1070F02D2BB
:104890004FF0000A01E0A0F1030AD4464FF0010AEC
:1048A0000AFA09FAAAF1010A0AEA020A0AFA0CFA51
:1048B0004FF0010B0BFA0CFBABF1010B0BEA030BF6
:1048C0004AEA0B042146404601F098F8BDE8F09F03
:1048D00000BF00F00702064B19684FF6FF031940AE
:1048E000044B0B4343EA0221014B196000BF7047A0
:1048F0000CED00E00000FA0570B504460D460CB959
:10490000012070BD5A48006800F00700A8420ED28E
:104910005748006820F007002843554908600846BA
:10492000006800F00700A84201D00120E9E72078E4
:1049300000F0020002281DD1207800F004000428B5
:1049400005D14C48406840F4E0604A49486020780E
:1049500000F00800082805D14648406840F460503F
:10496000444948604348406820F0F000A16808438B
:1049700040494860207800F0010078B36068012861
:1049800006D13C48006800F4003090B90120B8E737
:104990006068022806D13748006800F0007040B90E
:1049A0000120AEE73348006800F0020008B901209A
:1049B000A7E73048406820F00300616808432D49AC
:1049C0004860FFF7C1FE064609E0FFF7BDFE801B09
:1049D00041F28831884202D9032092E707E0254856
:1049E000406800F00C006168B0EB810FEDD1204809
:1049F000006800F00700A8420ED91D48006820F0AA
:104A0000070028431A4908600846006800F00700BC
:104A1000A84201D0012074E7207800F004000428A7
:104A200007D11448406820F4E060E1680843114968
:104A30004860207800F00800082808D10D48406838
:104A400020F46050216940EAC1000A49486000F042
:104A50003FF808494968C1F30311074A515CC8404F
:104A60000649086006480068FFF794FE002048E702
:104A70000020024000100240EE6200080C100020EE
:104A80000410002001480068704700000C1000204E
:104A900000B5FFF7F7FF04494968C1F30221034A53
:104AA000515CC84000BD000000100240FE620008DA
:104AB00000B5FFF7E7FF04494968C1F3C221034A83
:104AC000515CC84000BD000000100240FE620008BA
:104AD00070B500210022002400230020134D6968D6
:104AE00001F00C05F5B1042D02D0082D19D101E01B
:104AF0000F4819E00F4DC1F38346AB5D01F48035DB
:104B000055B10A4D6D68C5F340450B4E725D084DB9
:104B10005D43B5FBF2F402E0084D03FB05F42046CB
:104B200002E000BF024800BF00BF70BD001002409D
:104B300000127A00DC620008EC62000800093D0007
:104B4000F8B504460CB90120F8BD207800F001004A
:104B5000002878D0F848406800F00C0004280CD0F9
:104B6000F548406800F00C00082811D1F248406870
:104B700000F48030B0F5803F0AD1EF48006800F4BF
:104B8000003000285FD0606800285CD10120DBE79E
:104B900000BF6068B0F5803F06D1E748006840F488
:104BA0008030E549086028E0606858B9E24800684C
:104BB00020F48030E04908600846006820F4802036
:104BC00008601AE06068B0F5A02F0BD1DA480068E1
:104BD00040F48020D84908600846006840F48030DE
:104BE00008600AE0D448006820F48030D2490860A8
:104BF0000846006820F48020086000BF606888B123
:104C0000FFF7A2FD054606E0FFF79EFD401B642866
:104C100001D9032098E7C848006800F40030002854
:104C2000F2D010E0FFF790FD054606E0FFF78CFD9F
:104C3000401B642801D9032086E7BF48006800F4C0
:104C400000300028F2D1207800F00200022857D16D
:104C5000B948406800F00C0050B1B748406800F017
:104C60000C00082818D1B448406800F4803098B986
:104C7000B148006800F0020020B12069012801D08D
:104C8000012061E7AC48006820F0F800616940EA63
:104C9000C100A949086033E02069E8B10120A749B3
:104CA0000860FFF751FD054606E0FFF74DFD401B8C
:104CB000022801D9032047E79F48006800F002005E
:104CC0000028F2D09C48006820F0F800616940EAB2
:104CD000C1009949086013E0002098490860FFF777
:104CE00033FD054606E0FFF72FFD401B022801D9E2
:104CF000032029E79048006800F002000028F2D164
:104D0000207800F0080008282DD1A069B8B1012052
:104D10008B490860FFF718FD054606E0FFF714FD14
:104D2000401B022801D903200EE78348406A00F0A7
:104D300002000028F2D0012000F01EFC13E0002049
:104D40007F490860FFF700FD054606E0FFF7FCFC21
:104D5000401B022801D90320F6E67748406A00F09C
:104D600002000028F2D1207800F00400042873D15A
:104D700000277148C06900F0805070B900BF6E48CC
:104D8000C06940F080506C49C8610846C06900F0B5
:104D90008050009000BF00BF01276A48006800F4FF
:104DA0008070B0B96748006840F480706549086059
:104DB000FFF7CAFC054606E0FFF7C6FC401B642867
:104DC00001D90320C0E65F48006800F48070002825
:104DD000F2D000BFE068012806D15748006A40F0D1
:104DE00001005549086227E0E06858B95248006A56
:104DF00020F00100504908620846006A20F00400D3
:104E0000086219E0E06805280BD14B48006A40F0C1
:104E10000400494908620846006A40F0010008623F
:104E20000AE04548006A20F001004349086208464C
:104E3000006A20F00400086200BFE068A0B1FFF73C
:104E400083FC054609E0FFF77FFC401B41F28831F7
:104E5000884202D9032077E622E03748006A00F052
:104E600002000028EFD012E0FFF76EFC054608E0D4
:104E7000FFF76AFC401B41F28831884201D90320C8
:104E800062E62D48006A00F002000028F0D1012FF0
:104E900005D12948C06920F080502749C86100BF6A
:104EA000E069C8B32448406800F00C00082860D0CE
:104EB000E069022848D1002020490866FFF744FC39
:104EC000054606E0FFF740FC401B022801D90320FD
:104ED0003AE61948006800F000700028F2D1206A14
:104EE000B0F5803F07D11448406820F40030A16835
:104EF000084311494860D4E9080108430E4949684C
:104F000021F4741108430C49486001200B490866DC
:104F1000FFF71AFC054607E03DE0FFF715FC401BD4
:104F2000022801D903200FE60348006800F0007052
:104F30000028F2D02FE000000010024000004242A2
:104F40008004424200700040002014490866FFF7C8
:104F5000FBFB054606E0FFF7F7FB401B022801D9E3
:104F60000320F1E50E48006800F000700028F2D13F
:104F700011E0E069012800D1E6E50948466806F439
:104F80008031206A814204D106F47011606A814246
:104F900001D00120D8E50020D6E500000000424203
:104FA0000010024070B504462546681EB0F1807FAF
:104FB00001D301200FE0681E4FF0E02148610F216E
:104FC0004FF0FF3000F01AFD00204FF0E021886123
:104FD00007200861002070BD704770472DE9F84F29
:104FE0000446206805682068C668206847694FF055
:104FF0000009CA4605F00F09B9F1000F0AD105F002
:10500000200038B106F0200020B1204600F051FB0E
:10501000BDE8F88FB9F1000F7BD007F0010018B997
:1050200006F49070002874D005F0010030B106F449
:10503000807018B1606C40F00100606405F00400FD
:1050400030B107F0010018B1606C40F002006064FC
:1050500005F0020030B107F0010018B1606C40F0BB
:105060000400606405F0080048B106F0200010B9A3
:1050700007F0010018B1606C40F008006064606CDB
:10508000002845D005F0200028B106F0200010B11E
:10509000204600F00EFB20684069C0F3801A606C67
:1050A00000F0080010B9BAF1000F2CD0204600F033
:1050B000BAFA2068406900F0400000B300BF00BFAA
:1050C0002168143151E8001F21F04000216814319B
:1050D00041E80002002AF3D100BFE06B50B17748ED
:1050E000E16B4863E06BFFF747F988B1E06B416B18
:1050F00088470DE02046FFF770FF09E009E02046F1
:10510000FFF76BFF04E02046FFF767FF00206064B5
:105110007EE7206B012877D105F01000002873D0BE
:1051200006F010000028FAD000BF00200090206890
:105130000068009020684068009000BF00BF2068B1
:10514000406900F0400000285FD0E06B00684068D4
:105150001FFA80F8B8F1000F55D0A08D404552DD00
:10516000A4F82E80E06B8069202843D000BF00BFE8
:1051700021680C3151E8001F21F4807021680C3146
:1051800041E80002002AF3D100BF00BF00BF216840
:10519000143151E8001F21F001002168143141E869
:1051A0000002002AF3D100BF00BF00BF2168143104
:1051B00051E8001F21F040002168143141E800024D
:1051C000002AF3D100BF202084F842000020206391
:1051D00000BF00BF21680C3151E8001F21F0100012
:1051E00021680C3141E80002002AF3D100BFE06BD6
:1051F000FFF796F802206063A08DE28D801A81B2DD
:105200002046FFF7E9FE03E742E0A08DE18D401A5A
:105210001FFA80F8E08DD0B3B8F1000F37D000BF8F
:1052200000BF21680C3151E8001F21F49070216803
:105230000C3141E80002002AF3D100BF00BF00BFDB
:105240002168143151E8001F21F001002168143158
:1052500041E80002002AF3D100BF202084F8420078
:105260000020206300BF00BF21680C3151E8001FFF
:1052700021F0100021680C3141E80002002AF3D12E
:1052800000BF0220606341462046FFF7A5FEBFE64F
:1052900005F0800030B106F0800018B1204600F023
:1052A00025FBB5E605F0400030B106F0400018B12E
:1052B000204600F0EEF9ABE600BFA9E61356000861
:1052C00010B504460CB9012010BDA06900B100E082
:1052D00000BF94F8410028B9002084F8400020461F
:1052E00000F02AF8242084F841002068C06820F4E7
:1052F00000502168C860204600F05AFA2068006912
:1053000020F49040216808612068406920F02A005C
:10531000216848612068C06840F400502168C86076
:1053200000206064202084F8410084F842000020BE
:10533000606300BFC8E7000010B586B004460020D7
:1053400002900390049005901E492068884236D14F
:1053500000BF1D48806940F480401B4988610846B1
:10536000806900F48040019000BF00BF00BF084684
:10537000806940F0040088610846806900F00400FC
:10538000019000BF00BF4815029002200390032047
:10539000059002A90D48FFF747F84FF4806002908E
:1053A00000200390049002A90848FFF73DF800226E
:1053B00011462520FFF74EFA2520FFF73BFA06B0ED
:1053C00010BD0000003801400010024000080140FC
:1053D00070B504460D46164694F8420020280BD1BD
:1053E00005B10EB9012070BD002020633246294668
:1053F000204600F05BFAF6E70220F4E710B5044619
:105400000849206888420BD10748FFF7E7FD0749A4
:10541000087800F039FE012204490348FFF7D8FF5D
:1054200010BD00000038014034110020341000206D
:105430002DE9F84F04460E46174699464FF0000AEC
:1054400094F84100202850D106B117B90120BDE8D9
:10545000F88F00206064212084F84100FFF774F980
:105460008246A784E784A068B0F5805F04D12069F4
:1054700010B90025B04602E035464FF000081EE0A6
:105480005346002280212046CDF8009000F05EFABD
:1054900020B1202084F841000320D8E745B9B8F8AE
:1054A0000000C0F308002168486008F1020803E02A
:1054B0002878216848606D1CE08C401EE084E08CF8
:1054C0000028DDD15346002240212046CDF800902F
:1054D00000F03CFA20B1202084F841000320B6E718
:1054E000202084F841000020B1E70220AFE7704798
:1054F00000BFFEE708B500BF0D48806940F02000FE
:105500000B4988610846806900F02000009000BFC8
:1055100000BF00BF0846806940F00400886108466B
:10552000806900F00400009000BF00BF08BD0000CB
:105530000010024010B50B480B4908604FF4E130F1
:105540004860002108488160C16001610C2141610F
:1055500000218161C161FFF7B3FE08B1FEF7DDFEF6
:1055600010BD0000003801403411002000BFFEE7EC
:1055700000BFFEE77047000008B508490968C90880
:105580004FF47A72B1FBF2F14143009100BF00BFCA
:1055900000994A1E00920029F9D108BD0C10002084
:1055A000704710B5FFF7D6F810BD00B58FB02821B1
:1055B00005A8FEF728FE14216846FEF724FE012008
:1055C0000590000406900020079001200990022019
:1055D0000C90C1030D914FF4E0110E9105A8FFF757
:1055E000AFFA08B1FEF799FE0F200090022001905B
:1055F000002002904FF4806003900020049002216C
:105600006846FFF779F908B1FEF787FE0FB000BDD5
:10561000704770B505466C6A0020E085E08420463E
:10562000FFF7DBFC70BD00BF00BF02680C3252E820
:10563000002F22F4907102680C3242E80013002B14
:10564000F3D100BF00BF00BF0268143252E8002F40
:1056500022F001010268143242E80013002BF3D15A
:1056600000BF016B01290ED100BF00BF02680C32E0
:1056700052E8002F22F0100102680C3242E80013B9
:10568000002BF3D100BF202180F8421000210163DC
:10569000704710B504462068C06820F040002168BB
:1056A000C860202084F841002046FFF720FF00203A
:1056B00010BDF8B5044694F84200222875D1A068C0
:1056C000B0F5805F0CD1206950B90025A66A20682A
:1056D0004068C0F308003080A06A801CA06215E01A
:1056E000A56A0026A068B0F5805F03D0A06828B93D
:1056F000206918B920684068287004E02068406874
:1057000000F07F002870A06A401CA062E08D401E5F
:1057100080B2E085002846D12068C06820F02000D3
:105720002168C8602068C06820F480702168C86063
:105730002068406920F0010021684861202084F839
:10574000420000206063206B012826D100202063E6
:1057500000BF00BF21680C3151E8001F21F010008C
:1057600021680C3141E80002002AF3D100BF206813
:10577000006800F0100010280AD100BF002000903F
:1057800020680068009020684068009000BF00BF5B
:10579000A18D2046FFF720FC02E02046FFF72EFEF9
:1057A0000020F8BD01E00020FBE70220F9E700003F
:1057B00070B504462168096921F44051E26811433B
:1057C000226811612269A1681143626941EA0205F8
:1057D0002168C96841F20C62914329432268D16073
:1057E0002168496921F44071A2691143226851611D
:1057F0002D4A2168914202D1FFF75AF901E0FFF7E3
:1058000047F900EBC00101EB001162689200B1FBA7
:10581000F2F100EBC00202EB001263689B00B2FBE6
:10582000F3F26423B2FBF3F202EBC20303EB0212C6
:10583000A1EB8201322202EB01116422B1FBF2F1F1
:1058400001F0F00100EBC00202EB001263689B0064
:10585000B2FBF3F26423B2FBF3F201EB021200EBB2
:10586000C00101EB001163689B00B1FBF3F100EB99
:10587000C00303EB00136668B600B3FBF6F36426BF
:10588000B3FBF6F303EBC30606EB0313A1EB8301B3
:10589000322303EB01116423B1FBF3F101F00F019B
:1058A00011442268916070BD0038014010B5034674
:1058B00099629A85DA8500205864222083F8420094
:1058C000186928B11868C06840F480701C68E060EE
:1058D0001868406940F001001C6860611868C06881
:1058E00040F020001C68E060002010BD014691F8E7
:1058F0004100212828D18868B0F5805F0BD1086964
:1059000048B90A6A1088C0F308000B685860086A32
:10591000801C086205E00B6A581C086218780B6846
:105920005860C88C401E80B2C88458B90868C068E6
:1059300020F080000B68D8600868C06840F0400024
:105940000B68D860002070470220FCE72DE9F8437F
:1059500004460D4617469846089E31E0701C70B309
:10596000FEF7F2FEA0EB0800B04200D816B9032003
:10597000BDE8F8832068C06800F00400F8B1802D0D
:105980001ED0402D1CD020680068C0F3C000B0B10C
:1059900000BF0020009020680068009020684068E8
:1059A000009000BF00BF2046FFF73DFE0820606466
:1059B00000BF002084F8400000BF0120D8E7FFE7C7
:1059C000206800682840A84201D1012000E00020A2
:1059D000B842C3D00020CBE710B50248FFF7FEFA6B
:1059E00010BD00003411002000BFFEE7024800682F
:1059F000C0F30220704700000CED00E010B5002855
:105A000004DB0A07130E054A135406E00A07140EB6
:105A1000034A00F00F031B1FD45410BD00E400E044
:105A200018ED00E0704701460020087800024A782F
:105A3000104300028A7810430002CA78104370476E
:105A40002DE9FF5F04464FF0000A8648204403908A
:105A50008449601D095C834A201D105C41EA0029CD
:105A60001146E01C11F800B00398801D0190BBF1B5
:105A70000F0F7DD2DFE80BF0080B0E111C2024F273
:105A800045F24895F2F2E60000F078F9E7E000F020
:105A900021FAE4E000F06AF9E1E07249A01D085C37
:105AA0007149087000220321084600F0E5FBD6E0AA
:105AB00001206E490870D2E001206D490870CEE0E7
:105AC0006849601D095C674A201D105C41EA002995
:105AD000002713E0A01D3844801C6249085C0502C1
:105AE000A01D3844C01C085C05442144891DC81908
:105AF00000F0C8F80646281D384487B24F45E9DB58
:105B0000ADE0FFF78FFFAAE04FF00008B8F1000FFB
:105B100004D14FF48070574908800EE0B8F1010FAE
:105B200004D14FF400705349088006E0B8F1020F29
:105B300003D14FF480604F4908804A49A01D085C9A
:105B40004D49086008460068000208604549E01DAC
:105B5000085C4949096808434749086008460068E5
:105B6000000208603F4904F10800085C424900E077
:105B700074E009680843404908600846006800026C
:105B80000860384904F10900085C3B49096808438A
:105B900039490860002000F0AFFA0A203749087040
:105BA0005DE0364800780A284BD10120344908705E
:105BB0002C49601D095C2B4A201D105C41EA00291C
:105BC0001146A01D0D5C2D02E01D085C05432D0251
:105BD00004F10800085C05432D0204F10900085C8B
:105BE00005438A4604F10A008244B9F1040F0DD13D
:105BF00021480068854209D100222946504600F01C
:105C00005FF9064600201D49087010E0A9F1040064
:105C100018490988884206DC82B22946504600F0BD
:105C20004FF9064603E00020144908700026012EB3
:105C300004D1002203210B2000F01EFB002010499C
:105C400008700CE00749A01D085C0290E01D085C8C
:105C500000900099029800F073FA00E000BF00BFC6
:105C6000BDE8FF9F7C110020271000202510002098
:105C7000261000202A1000202C10002030100020B8
:105C8000241000202DE9F0470446267894F801807E
:105C9000A0784FF6FF7101EA0025E078284485B22C
:105CA000304600F04BF80746084800EB47004078C4
:105CB000404502D00020BDE8F0872A46211D30462D
:105CC00000F01AF881464846F5E700000663000830
:105CD0002DE9F04104460D462946204600F0F3F830
:105CE00007463946652000F0AFF80646012E01D17F
:105CF000BDE8F0810020FBE72DE9F04104460D46A8
:105D000016460127652C05D131462846FFF7E0FFEE
:105D1000074600E000BF00BF3846BDE8F08130B55F
:105D200002460020002305E012F8015B2C18E0B2C7
:105D30005C1CA3B28B42F7DB30BD000070B505469A
:105D400000F012F80646002407E0064810F8140098
:105D5000A84200D103E0601CC4B2B442F5DB00BF2E
:105D6000204670BD066300080220704710B500246D
:105D700022460321022000F07FFA10BD10B5002456
:105D80000B48007840B90021204600F027F9C4B242
:105D900001200749087004E00121204600F01EF9A7
:105DA000C4B222460321002000F066FA10BD0000B4
:105DB00028100020154816490860FEF7D7FCFFF7A9
:105DC000F4FBFFF797FBFFF7B5FBFEF781FA1148ED
:105DD000006840686FF020000E49096808606FF0A5
:105DE00040000C490968086001220B490948FFF787
:105DF000EFFA0848FEF772FA08A0FEF775FA00F00D
:105E000089F901E000F0A0F9FCE70000004000087B
:105E100008ED00E0341100203410002020205354FD
:105E20004D3332204170706C69636174696F6E200C
:105E3000656E746572207375636365737366756CE4
:105E40006C210D0A0000000070B505460C460026C6
:105E50001A480078012800D170BD2946304600F06C
:105E6000BDF806460221304600F0B8F8064600218B
:105E7000304600F0B3F806460421304600F0AEF894
:105E80000646210E304600F0A9F80646C4F3074145
:105E9000304600F0A3F80646C4F30721304600F070
:105EA0009DF80646E1B2304600F098F806463246C4
:105EB0000321072000F0E0F90120CDE724100020A5
:105EC00003460120704710B503460C461846FFF7FD
:105ED000AAFD10BD3EB50024002000900190029064
:105EE00025A000F0C3F885B22A4623A1204600F081
:105EF00061F8C4B222A000F0B9F885B22A4620A108
:105F0000204600F057F8C4B222A000F0AFF885B2E6
:105F10002A4620A1204600F04DF8C4B21FA000F090
:105F2000A5F885B22A461DA1204600F043F8C4B268
:105F30001CA000F09BF885B22A461AA1204600F06A
:105F400039F8C4B219A000F091F885B22A4617A119
:105F5000204600F02FF8C4B215A000F087F885B2F3
:105F60002A4613A1204600F025F8C4B22246032198
:105F7000012000F081F93EBD7B2270223A22000010
:105F8000666E6C6F69316E696F39367A6D6D6562F8
:105F900000000000222C2276223A2200312E302EE0
:105FA00030000000222C226D223A00003200000056
:105FB0007D0000002DE9F04104460E4615460648D6
:105FC00007192A463146384600F02EF8601984B287
:105FD0002046BDE8F08100003C130020024B1A1857
:105FE0001170431C98B270473C13002000200B49ED
:105FF00009680B4A126891420FD008490A6809499A
:106000008A4202D38739054A116004490968087831
:1060100002490968491C014A11607047201000209C
:106020001C10002036130020F0B505460E4613461E
:106030002A46344605B10EB90020F0BDA24202D96D
:10604000E018904208D2002103E0605C5054481CE4
:1060500081B29942F9DB07E0194603E0481E275C4C
:10606000175481B20029F9DC2846E6E701460022F0
:1060700009B900207047002200E0521C11F8013BD2
:10608000002BFAD11046F5E712490968124A126846
:10609000891A01291CD0104909680E4A12689142D8
:1060A00006D90D4909680B4A1268891A87290FD247
:1060B00009490A6809498A4202D38739064A1160A8
:1060C00005490968087004490968491C024A1160B9
:1060D00070470000201000201C1000203613002004
:1060E00001B54FF0FF33012269460248FFF7A0F9DE
:1060F00008BD00003411002070B50446002521467B
:106100002846FFF76BFF05462A4603210A2000F0C8
:10611000B3F870BD054806490860064908600020CC
:1061200005490870FF20054908707047AF1200202C
:106130001C10002020100020241000202710002018
:1061400008B901B100BF704770B50024002509E00F
:10615000FFF74CFF3A490A880988491C384B1980D7
:106160003849885436480088B0F5997F03D800F044
:10617000A7F80028ECDC32480088072800DA70BD58
:1061800046E03048005D552802D0601C84B23FE0F4
:106190002C49601C085CAA2802D0601C84B237E03D
:1061A0002849A01C085C10B1A01C84B230E025492D
:1061B000201D085C4FF6FF7101EA00252149601D92
:1061C000085CC01D284485B2B5F59D7F05D91E48E1
:1061D0001E4908601E4908601FE019480088001B1E
:1061E000A84200DA19E06A1E91B2164A1019FFF7A8
:1061F00096FD6119491E134A515C884202D0E01C89
:1062000084B205E02046FFF71BFC601984B200BF92
:106210000B480088001B0728B3DA00BF0848008835
:10622000001B0749088008460088002806DD05484D
:106230000119034802880348FFF7F6FE00BF9EE7F6
:10624000181000207C110020AF1200202010002028
:106250001C10002070B504460D4604B105B970BD90
:1062600003E02078FFF73CFF641C281EA5F1010124
:106270008DB2F6D100BFF2E72DE9F04105460E469A
:106280001446002755200D490870AA20487008467A
:106290008670C570201208714C71E01D84B2601EBA
:1062A00081B20648FFF73BFD0746601E03490F54C5
:1062B00021460248FFF7CEFFBDE8F08136130020EB
:1062C0000448006804490968884201D001207047E9
:1062D0000020FCE71C100020201000200203040511
:1062E000060708090A0B0C0D0E0F10100102000022
:1062F0000000000000000102030406070809000076
:106300000000010203046502660200002C6300081D
:1063100000100020340000002841000860630008DD
:10632000341000209C0900004441000800000000D7
:10633000100000000100000000127A0000000000C0
:10634000000000000000000000000000000000004D
:10635000000000000000000000000000000000003D
:04000005080040EDC2
:00000001FF
