:020000040800F2
:10000000A80A0020910100089D1E0008AD1D0008EF
:10001000991E000871080008152300080000000060
:10002000000000000000000000000000CD1E0008DD
:100030007508000800000000A11E0008CF1E00087F
:10004000AB010008AB010008AB010008AB010008E0
:10005000AB010008AB010008AB010008AB010008D0
:10006000AB010008AB010008AB010008AB010008C0
:10007000AB010008AB010008AB010008AB010008B0
:10008000AB010008AB010008AB010008AB010008A0
:10009000AB010008AB010008AB010008AB01000890
:1000A000AB010008AB010008AB010008AB01000880
:1000B000AB010008AB010008AB010008AB01000870
:1000C000AB010008AB010008AB010008AB01000860
:1000D000AB01000805230008AB010008AB010008D4
:1000E000AB010008AB010008AB01000800F002F80A
:1000F00000F03FF80AA090E8000C82448344AAF183
:100100000107DA4501D100F034F8AFF2090EBAE880
:100110000F0013F0010F18BFFB1A43F0010318473B
:10012000B42E0000D42E0000103A24BF78C878C145
:10013000FAD8520724BF30C830C144BF04680C60ED
:10014000704700000023002400250026103A28BF35
:1001500078C1FBD8520728BF30C148BF0B60704739
:10016000642900F09780002070471FB51FBD10B5AF
:1001700010BD00F0C4F91146FFF7F7FF02F0E4FAF2
:1001800000F0E2F903B4FFF7F2FF03BC00F0EAF974
:100190000948804709480047FEE7FEE7FEE7FEE71B
:1001A000FEE7FEE7FEE7FEE7FEE7FEE70448054957
:1001B000054A064B704700003D1F0008ED0000088F
:1001C000A8040020A80A0020A8060020A8060020F5
:1001D000B2F120030AD5C2F1200320FA02F001FA9D
:1001E00003F321FA02F140EA0300704721FA03F019
:1001F0004FF00001704700000FB41CB50C0007AAB7
:10020000009001D02044401E074B7B44694601907A
:10021000069800F054F9002C03D06946002000F045
:1002200061F91CBC5DF814FBE10200002DE9F0410E
:100230000E460446002020622046E168884730B31D
:10024000252805D0D4E901219047206A401CF2E717
:10025000E168204600278847050018D0A5F1410035
:10026000192802D820354FF4006732462946204627
:100270002760FFF775FF40B1012804D0F61D26F076
:1002800007060836D8E7361DD6E72846DAE7206A9B
:10029000BDE8F0812DE9F04106460024106875297B
:1002A000314616A510D0AFF30080002802DA404294
:1002B00013A507E031688A0701D512A502E04907B6
:1002C00004D511A5012401E0AFF3008000210A222A
:1002D00006F1240709E0B0FBF2FCB0FBF2F302FBED
:1002E0001C00303078541846491C0028F3D12346AE
:1002F0002A463046BDE8F04100F083B80000000017
:100300002D0000002B0000002000000010B5431C51
:1003100002E010F8011B71B18107FAD14FF00132F0
:1003200002C88C1A8C4314EAC211F9D0C01A0A060A
:1003300003D0C01E10BDC01A10BD0A0401D0801E1B
:1003400010BD0902FCD0401E10BD10B5203AC0F00F
:100350000B80B1E81850203AA0E81850B1E81850C6
:10036000A0E81850BFF4F5AF5FEA027C24BFB1E803
:100370001850A0E8185044BF18C918C0BDE8104074
:100380005FEA827C24BF51F8043B40F8043B08BF7D
:100390007047D20728BF31F8023B48BF11F8012B44
:1003A00028BF20F8023B48BF00F8012B70474FF0F0
:1003B000000200B5134694469646203922BFA0E8B5
:1003C0000C50A0E80C50B1F12001BFF4F7AF0907C1
:1003D00028BFA0E80C5048BF0CC05DF804EB8900B2
:1003E00028BF40F8042B08BF704748BF20F8022BF5
:1003F00011F0804F18BF00F8012B7047704770470D
:1004000070472DE9F0470D4699469246044600F1A3
:1004100024080168880604D5E06921F010012160F4
:1004200000E00120A84201DD471B00E00027A16990
:100430007A1902EB0900081AA0612078C00602D4DC
:100440002046AFF30080002608E0D4E901211AF825
:1004500006009047206A401C761C20624E45F4DB63
:100460002078C0060AD52046AFF3008006E0D4E924
:10047000012130209047206A401C2062381EA7F1DD
:100480000107F4DC07E0D4E9012118F805009047E2
:10049000206A401C2062281EA5F10105F3DC2046DD
:1004A000AFF300802078000602D50220BDE8F08777
:1004B0000120FBE701694A1C02610878704700B51A
:1004C0008FB0CDE901310021059105497944CDE98D
:1004D000031011466846FFF7A9FE0FB000BD0000EB
:1004E000E5FFFFFF0A6802F8010B0A607047D1E9D7
:1004F00000239A4202D2531C0B601070704775465D
:1005000000F02CF8AE4605006946534620F007007F
:10051000854618B020B5FFF749FEBDE820404FF0F2
:1005200000064FF000074FF000084FF0000B21F0DD
:100530000701AC46ACE8C009ACE8C009ACE8C009AA
:10054000ACE8C0098D46704710B50446AFF3008093
:100550002046BDE81040FFF715BE00000048704778
:100560004804002001491820ABBEFEE72600020027
:10057000704700000A48026841680A4882420DD369
:10058000094882420AD20648814207D3074881427D
:1005900004D201F0010008B1012070470020FCE7FF
:1005A00000400008001000200050002000FC00085F
:1005B000044801680448814201D1012070470020AD
:1005C000FCE7000000FC000855AA55AA00B585B05C
:1005D0000020009000F06CFB002001900548039083
:1005E00001200490694601A800F0A8FA00F0FEFA84
:1005F00005B000BD00FC00082DE9F04385B00446BD
:100600000E4600200090B4F1006F03D318488442D6
:1006100000D21EB9052005B0BDE8F083154884421C
:1006200001D20520F7E7204600F0DAF90746A119C4
:10063000481E00F0D5F98046A8EB070000F101093B
:1006400000F036FB05460DB10220E4E700200190E2
:100650000394CDF81090694601A800F06FFA0546A2
:1006600000F0C4FA0DB10220D5E70020D3E7000066
:1006700000000108004000082DE9F84F05468B46B0
:100680009046A946C2465C463148854208D3314867
:10069000854205D2BBF1000F02D0B8F1000F02D1A4
:1006A0000520BDE8F88F05EB08002A49884201D9EA
:1006B0000520F6E700F0FCFA06460EB10220F0E74E
:1006C00024E02078617840EA0120A17840EA0140E6
:1006D000E17840EA01600090002349460220009A38
:1006E00000F08EFA06461EB100F080FA0220D8E72C
:1006F000D9F800000099884203D000F077FA03206F
:10070000CFE709F10409241DAAF1040ABAF1040F84
:10071000D7D2BAF1000F16D04FF0FF30009000276B
:1007200003E0E05D0DF807007F1C5745F9D3002377
:1007300049460220009A00F063FA06461EB100F016
:1007400055FA0220ADE700F051FA0020A9E70000B9
:100750000040000800FC00080020014908707047B4
:10076000180000200449054A0868904201D0002082
:1007700070470120FCE7000000FD00085256574674
:1007800070B5FFF7F7FE18B372B600204FF0E02106
:1007900008614861886100BF09E04FF0FF320D49F0
:1007A00041F820200C4941F82020411CC8B20828FB
:1007B000F3DB00F09DF909484468254601460868C6
:1007C00080F3088800BF08460549086062B6A8475C
:1007D00070BD000080E100E080E200E00040000821
:1007E00008ED00E070B505460DB9052070BD074C59
:1007F00007492068884201D00120F7E748222146B6
:100800002846FFF7A2FD0020F0E7000000FD0008E9
:100810005256574610B500F04BFA054A00230549D9
:10082000022000F0EDF9044600F0E0F910BD0000F0
:1008300055AA55AA00FC000801490860704700004D
:100840001C00002070B504460848006860B15CB127
:100850002046FFF75BFD85B241F288332A462146E8
:100860000248006801F042FA70BD00001C00002040
:1008700000BFFEE7704772B600BFFEE70021074ADF
:10088000D1610749096941F00401054A1161114626
:10089000096941F0400111617047000088010020A2
:1008A000002002400021074AD1610749096941F04F
:1008B0000201054A116111464861096941F0400190
:1008C0001161704788010020002002400022054B82
:1008D000DA61054A126942F00102034B1A61018094
:1008E00070470000880100200020024000201E49BF
:1008F000C96801F0100139B11C49C96941F0020110
:100900001A4AD16140F010001749C96801F004018A
:1009100039B11649C96941F00101144AD16140F069
:1009200004001149C96901F0010169B10F49C969A0
:1009300041F004010D4AD16100BF0B49C96921F0A2
:100940000101094AD16100BF00BF40F20111884294
:1009500006D10549C96921F00101034AD16101E0CD
:100960000149C86000BF7047002002408801002094
:1009700070B5044600F044FB054609E0601C38B140
:1009800024B100F03DFB401BA04201D9032070BD03
:100990001248C06800F001000028EFD10F48C0687D
:1009A00000F0200020B100BF20200C49C86000BF2B
:1009B0000A48C06800F0100048B90848C06900F053
:1009C000010020B90548C06800F0040018B1FFF725
:1009D0008DFF0120DBE70020D9E700000020024066
:1009E0000146A1F10060800A70470146002291F89B
:1009F0002100022808D00420886300BF002081F86D
:100A0000200000BF012070470868006820F00E0039
:100A10000B6818600868006820F001000B68186017
:100A200091F8403001209840CB6B5860012081F84C
:100A3000210000BF002081F8200000BF1046E2E73F
:100A400070B50446002594F82100022803D0042044
:100A5000A063012548E02068006820F00E002168AE
:100A600008602068006820F00100216808601F49C4
:100A70002068884201D1012026E01C4914312068F9
:100A8000884201D110201FE018492831206888428F
:100A900001D1801518E015493C312068884201D108
:100AA000801411E0114950312068884202D14FF47E
:100AB000803009E00D4964312068884202D14FF44A
:100AC000801001E04FF0807008490839486001202B
:100AD00084F8210000BF002084F8200000BF606B74
:100AE00010B12046616B8847284670BD080002405F
:100AF00010B54FF0FF300649086100200861401E24
:100B0000C8600020C86000F0C7FA002010BD0000D7
:100B10000010024070B5044600F072FA0646254601
:100B2000681C10B104480078054400BF00F068FA62
:100B3000801BA842FAD370BD100000202DE9F041BF
:100B400004460E460127002500BF2648007E0128E6
:100B500002D10220BDE8F08101202249087600BFC1
:100B60002068022813D14CF25030FFF701FF90BBF0
:100B70000120FFF783FE4CF25030FFF7F9FE0746E5
:100B80001948006920F004001749086123E04CF27D
:100B90005030FFF7EDFEF0B94FF0FF303060A56840
:100BA00012E02846FFF77EFE4CF25030FFF7E0FEE1
:100BB00007460D48006920F002000B4908610FB19B
:100BC000356007E005F58065D4E9021001EB80206F
:100BD000A842E6D800BF00BF00200249087600BF47
:100BE0003846B7E78801002000200240034800692A
:100BF00040F0800001490861002070470020024059
:100C00002DE9FE4F05468B461746984601260024DF
:100C10000020029000BF2448007E012802D102205B
:100C2000BDE8FE8F01202049087600BF4CF250300D
:100C3000FFF79EFE064686BB012D02D101200290E1
:100C400006E0022D02D10220029001E00420029071
:100C500000241EE02201B946C24648465146FFF72D
:100C6000B7FA80B20190022000FB04B00090019915
:100C7000FFF72CFE4CF25030FFF77AFE06460B4889
:100C8000006920F001000949086106B104E0601C18
:100C9000C4B202988442DDDB00BF00BF00200249DD
:100CA000087600BF3046BBE78801002000200240E4
:100CB00000200849096901F0800151B10649054A3F
:100CC0005160064951601146096901F0800101B186
:100CD000012070470020024023016745AB89EFCD1A
:100CE0002DE9F8470346002294466EE14FF00108D3
:100CF00008FA02F4D1F8008008EA0400A0427DD18D
:100D0000DFF8DCA2D1F80480A8EB0A09D0453AD07C
:100D100014DCB8F1030F50D009DCB8F1000F31D06A
:100D2000B8F1010F1CD0B8F1020F49D120E0B8F1A1
:100D3000110F18D0B8F1120F42D11EE0B9F5881F7B
:100D400025D006DCB9F5803F20D0B9F5801F37D11A
:100D50001AE0B9F5001F18D0B9F5041F30D117E01B
:100D6000D1F80CC02DE0D1F80C8008F1040C28E07B
:100D7000D1F80C8008F1080C23E0D1F80C8008F1C0
:100D80000C0C1EE000BF00BF00BF00BF00BF00BFD3
:100D9000D1F80880B8F1000F02D14FF0040C0BE03D
:100DA000D1F80880B8F1010F03D14FF0080C1C6195
:100DB00002E04FF0080C5C6103E04FF0000C00E033
:100DC00000BF00BFFF2801D8984601E003F10408E6
:100DD0004646FF2802D84FEA820803E0A2F108083D
:100DE0004FEA88084746D6F800804FF00F0909FA05
:100DF00007F928EA09080CFA07F900E088E048EA50
:100E00000908C6F80080D1F8048008F08058B8F1CD
:100E1000805F7DD100BFDFF8CC81D8F8188048F022
:100E20000108DFF8C091C9F81880C846D8F81880C2
:100E300008F00108CDF8008000BF00BF4FEAB938C4
:100E40004FEA920958F829504FEA82784FEA187908
:100E50004FF00F0808FA09F825EA0805DFF888813D
:100E6000434502D14FF0000816E0DFF8808143458A
:100E700002D14FF001080FE0DFF87481434502D141
:100E80004FF0020808E0DFF86C81434502D14FF0D3
:100E9000030801E04FF004084FEA82794FEA19791C
:100EA00008FA09F848EA0505DFF84C814FEA92098B
:100EB00048F82950D1F8048008F48018B8F5801F4C
:100EC0000AD1DFF83881D8F8008048EA0008DFF856
:100ED0002C91C9F8008009E0DFF82081D8F8008063
:100EE00028EA0008DFF81491C9F80080D1F80480DE
:100EF00008F40018B8F5001F10D1DFF8008108F1E0
:100F00000408D8F8008048EA0008DFF8F09000E014
:100F10005AE009F10409C9F800800DE0DFF8DC802F
:100F200008F10408D8F8008028EA0008DFF8CC901F
:100F300009F10409C9F80080D1F8048008F40038E8
:100F4000B8F5003F0ED1DFF8B480A8F10408D8F856
:100F5000008048EA0008DFF8A490A9F10409C9F864
:100F600000800DE0DFF89480A8F10408D8F8008034
:100F700028EA0008DFF88490A9F10409C9F8008084
:100F8000D1F8048008F48038B8F5803F0ED1DFF83E
:100F90006C80A8F10808D8F8008048EA0008DFF85B
:100FA0005C90A9F10809C9F800800DE0DFF84C80D9
:100FB000A8F10808D8F8008028EA0008DFF83C907B
:100FC000A9F10809C9F80080521CD1F8008028FA5C
:100FD00002F8B8F1000F7FF489AEBDE8F887000091
:100FE000000011100010024000080140000C0140F8
:100FF00000100140001401400800014008040140B5
:10100000014800687047000008000020034800689D
:101010000349097808440149086070470800002026
:101020001000002010B50848006840F01000064984
:101030000860032000F0AAF80F2000F007F800F085
:101040002DF8002010BD00000020024070B50446BD
:101050000E4800784FF47A71B1FBF0F00C49096842
:10106000B1FBF0F5284600F0FBFB08B1012070BD94
:10107000102C07D200222146501E00F049F80548E6
:10108000046001E00120F2E70020F0E710000020FA
:10109000140000200C0000207047000008B500BFBD
:1010A0001148806940F001000F4988610846806955
:1010B00000F00100009000BF00BF00BF0846C069FB
:1010C00040F08050C8610846C06900F08050009030
:1010D00000BF00BF00BF0549486820F0E06040F055
:1010E0000070486000BF08BD0010024000000140D1
:1010F00001460846002809DB00F01F0301229A4040
:1011000043099B0003F1E023C3F8002100BF7047AF
:101110002DE9F05F80460D461646002701F0FCF8E9
:10112000074639462A46334601F00700C0F1070A50
:10113000BAF1040F02D94FF0040A01E0C0F1070A26
:10114000D14600F1040ABAF1070F02D24FF0000AAB
:1011500001E0A0F1030AD4464FF0010A0AFA09FAA5
:10116000AAF1010A0AEA020A0AFA0CFA4FF0010B84
:101170000BFA0CFBABF1010B0BEA030B4AEA0B0475
:101180002146404601F0D0F8BDE8F09F00BF00F0D6
:101190000702064B19684FF6FF031940044B0B4337
:1011A00043EA0221014B196000BF70470CED00E0DB
:1011B0000000FA0570B504460D460CB9012070BD5B
:1011C0005A48006800F00700A8420ED2574800684D
:1011D00020F007002843554908600846006800F0E1
:1011E0000700A84201D00120E9E7207800F00200C2
:1011F00002281DD1207800F00400042805D14C48B5
:10120000406840F4E0604A494860207800F00800F7
:10121000082805D14648406840F460504449486079
:101220004348406820F0F000A16808434049486006
:10123000207800F0010078B36068012806D13C48AE
:10124000006800F4003090B90120B8E76068022817
:1012500006D13748006800F0007040B90120AEE7C1
:101260003348006800F0020008B90120A7E73048C1
:10127000406820F00300616808432D494860FFF78B
:10128000BFFE064609E0FFF7BBFE801B41F2883136
:10129000884202D9032092E707E02548406800F021
:1012A0000C006168B0EB810FEDD12048006800F0C0
:1012B0000700A8420ED91D48006820F00700284307
:1012C0001A4908600846006800F00700A84201D0EB
:1012D000012074E7207800F00400042807D11448A6
:1012E000406820F4E060E1680843114948602078D4
:1012F00000F00800082808D10D48406820F460502C
:10130000216940EAC1000A49486000F03FF80849F5
:101310004968C1F30311074A515CC8400649086097
:1013200006480068FFF792FE002048E700200240D0
:1013300000100240B62F0008140000200C0000200E
:1013400001480068704700001400002000B5FFF756
:10135000F7FF04494968C1F30221034A515CC840C0
:1013600000BD000000100240C62F000800B5FFF7C6
:10137000E7FF04494968C1F3C221034A515CC840F0
:1013800000BD000000100240C62F000870B500210B
:101390000022002400230020134D696801F00C0591
:1013A000F5B1042D02D0082D19D101E00F4819E044
:1013B0000F4DC1F38346AB5D01F4803555B10A4D45
:1013C0006D68C5F340450B4E725D084D5D43B5FB3E
:1013D000F2F402E0084D03FB05F4204602E000BFF2
:1013E000024800BF00BF70BD0010024000127A002A
:1013F000A42F0008B42F000800093D00F8B50446EA
:101400000CB90120F8BD207800F00100002878D048
:10141000F848406800F00C0004280CD0F5484068FB
:1014200000F00C00082811D1F248406800F4803028
:10143000B0F5803F0AD1EF48006800F40030002882
:101440005FD0606800285CD10120DBE700BF6068E6
:10145000B0F5803F06D1E748006840F48030E549A8
:10146000086028E0606858B9E248006820F48030DD
:10147000E04908600846006820F4802008601AE00F
:101480006068B0F5A02F0BD1DA48006840F48020E6
:10149000D84908600846006840F4803008600AE0D7
:1014A000D448006820F48030D249086008460068BB
:1014B00020F48020086000BF606888B1FFF7A0FDBD
:1014C000054606E0FFF79CFD401B642801D9032078
:1014D00098E7C848006800F400300028F2D010E017
:1014E000FFF78EFD054606E0FFF78AFD401B6428E6
:1014F00001D9032086E7BF48006800F400300028C7
:10150000F2D1207800F00200022857D1B948406893
:1015100000F00C0050B1B748406800F00C000828FB
:1015200018D1B448406800F4803098B9B1480068D8
:1015300000F0020020B12069012801D0012061E7FC
:10154000AC48006820F0F800616940EAC100A94990
:10155000086033E02069E8B10120A7490860FFF77F
:101560004FFD054606E0FFF74BFD401B022801D961
:10157000032047E79F48006800F002000028F2D0EF
:101580009C48006820F0F800616940EAC100994970
:10159000086013E0002098490860FFF731FD054618
:1015A00006E0FFF72DFD401B022801D9032029E7A3
:1015B0009048006800F002000028F2D1207800F086
:1015C000080008282DD1A069B8B101208B49086016
:1015D000FFF716FD054606E0FFF712FD401B022847
:1015E00001D903200EE78348406A00F0020000287A
:1015F000F2D0012000F056FC13E000207F49086083
:10160000FFF7FEFC054606E0FFF7FAFC401B022848
:1016100001D90320F6E67748406A00F0020000286E
:10162000F2D1207800F00400042873D1002771481B
:10163000C06900F0805070B900BF6E48C06940F0CA
:1016400080506C49C8610846C06900F08050009025
:1016500000BF00BF01276A48006800F48070B0B97D
:101660006748006840F4807065490860FFF7C8FC6F
:10167000054606E0FFF7C4FC401B642801D903209F
:10168000C0E65F48006800F480700028F2D000BF18
:10169000E068012806D15748006A40F0010055492A
:1016A000086227E0E06858B95248006A20F001005B
:1016B000504908620846006A20F00400086219E0F8
:1016C000E06805280BD14B48006A40F00400494906
:1016D00008620846006A40F0010008620AE04548D6
:1016E000006A20F00100434908620846006A20F0C1
:1016F0000400086200BFE068A0B1FFF781FC054666
:1017000009E0FFF77DFC401B41F28831884202D995
:10171000032077E622E03748006A00F00200002844
:10172000EFD012E0FFF76CFC054608E0FFF768FC1D
:10173000401B41F28831884201D9032062E62D48DE
:10174000006A00F002000028F0D1012F05D12948DD
:10175000C06920F080502749C86100BFE069C8B364
:101760002448406800F00C00082860D0E069022896
:1017700048D1002020490866FFF742FC054606E0F4
:10178000FFF73EFC401B022801D903203AE6194826
:10179000006800F000700028F2D1206AB0F5803FA8
:1017A00007D11448406820F40030A168084311496B
:1017B0004860D4E9080108430E49496821F47411CE
:1017C00008430C49486001200B490866FFF718FCE4
:1017D000054607E03DE0FFF713FC401B022801D956
:1017E00003200FE60348006800F000700028F2D0E4
:1017F0002FE00000001002400000424280044242FC
:1018000000700040002014490866FFF7F9FB054608
:1018100006E0FFF7F5FB401B022801D90320F1E5A4
:101820000E48006800F000700028F2D111E0E06975
:10183000012800D1E6E50948466806F48031206AAF
:10184000814204D106F47011606A814201D0012006
:10185000D8E50020D6E5000000004242001002401A
:1018600070B504462546681EB0F1807F01D3012083
:101870000FE0681E4FF0E02148610F214FF0FF306C
:1018800000F052FD00204FF0E02188610720086140
:10189000002070BD704770472DE9F84F044620685E
:1018A00005682068C668206847694FF00009CA4685
:1018B00005F00F09B9F1000F0AD105F0200038B189
:1018C00006F0200020B1204600F089FBBDE8F88F2B
:1018D000B9F1000F7BD007F0010018B906F4907041
:1018E000002874D005F0010030B106F4807018B102
:1018F000606C40F00100606405F0040030B107F056
:10190000010018B1606C40F00200606405F0020054
:1019100030B107F0010018B1606C40F00400606461
:1019200005F0080048B106F0200010B907F00100EA
:1019300018B1606C40F008006064606C002845D00D
:1019400005F0200028B106F0200010B1204600F07C
:1019500046FB20684069C0F3801A606C00F0080004
:1019600010B9BAF1000F2CD0204600F0F2FA20682E
:10197000406900F0400000B300BF00BF216814318F
:1019800051E8001F21F040002168143141E80002B5
:10199000002AF3D100BFE06B50B17748E16B486398
:1019A000E06BFFF74DF888B1E06B416B88470DE0C5
:1019B0002046FFF770FF09E009E02046FFF76BFFC4
:1019C00004E02046FFF767FF002060647EE7206B9D
:1019D000012877D105F01000002873D006F0100020
:1019E0000028FAD000BF0020009020680068009016
:1019F00020684068009000BF00BF2068406900F088
:101A0000400000285FD0E06B006840681FFA80F853
:101A1000B8F1000F55D0A08D404552DDA4F82E80BE
:101A2000E06B8069202843D000BF00BF21680C31E3
:101A300051E8001F21F4807021680C3141E8000258
:101A4000002AF3D100BF00BF00BF2168143151E864
:101A5000001F21F001002168143141E80002002A32
:101A6000F3D100BF00BF00BF2168143151E8001F4F
:101A700021F040002168143141E80002002AF3D12E
:101A800000BF202084F842000020206300BF00BF78
:101A900021680C3151E8001F21F0100021680C3141
:101AA00041E80002002AF3D100BFE06BFEF79DFF82
:101AB00002206063A08DE28D801A81B22046FFF77C
:101AC000E9FE03E742E0A08DE18D401A1FFA80F89D
:101AD000E08DD0B3B8F1000F37D000BF00BF216850
:101AE0000C3151E8001F21F4907021680C3141E85D
:101AF0000002002AF3D100BF00BF00BF21681431EB
:101B000051E8001F21F001002168143141E8000272
:101B1000002AF3D100BF202084F842000020206377
:101B200000BF00BF21680C3151E8001F21F01000F8
:101B300021680C3141E80002002AF3D100BF0220E5
:101B4000606341462046FFF7A5FEBFE605F0800032
:101B500030B106F0800018B1204600F05DFBB5E61C
:101B600005F0400030B106F0400018B1204600F00A
:101B700026FAABE600BFA9E63F1F000810B50446F1
:101B80000CB9012010BDA06900B100E000BF94F8BD
:101B9000410028B9002084F84000204600F02AF8CF
:101BA000242084F841002068C06820F40050216897
:101BB000C860204600F092FA2068006920F4904046
:101BC000216808612068406920F02A002168486186
:101BD0002068C06840F400502168C860002060643C
:101BE000202084F8410084F842000020606300BF98
:101BF000C8E7000010B586B00446002002900390AC
:101C0000049005901E492068884236D100BF1D48C7
:101C1000806940F480401B4988610846806900F46F
:101C20008040019000BF00BF00BF0846806940F0BF
:101C3000040088610846806900F00400019000BF3C
:101C400000BF48150290022003900320059002A9CE
:101C50000D48FFF745F84FF4806002900020039094
:101C6000049002A90848FFF73BF8002211462520FE
:101C7000FFF74EFA2520FFF73BFA06B010BD000033
:101C800000380140001002400008014070B50446D1
:101C90000D46164694F8420020280BD105B10EB926
:101CA000012070BD0020206332462946204600F006
:101CB00093FAF6E70220F4E710B5044608492068D5
:101CC00088420BD10748FFF7E7FD0749087801F084
:101CD0003DF8012204490348FFF7D8FF10BD00007A
:101CE000003801403C0100203C0000202DE9F84F65
:101CF00004460E46174699464FF0000A94F84100F4
:101D0000202850D106B117B90120BDE8F88F002076
:101D10006064212084F84100FFF772F98246A784AD
:101D2000E784A068B0F5805F04D1206910B9002570
:101D3000B04602E035464FF000081EE05346002250
:101D400080212046CDF8009000F096FA20B12020A6
:101D500084F841000320D8E745B9B8F80000C0F383
:101D600008002168486008F1020803E0287821682B
:101D700048606D1CE08C401EE084E08C0028DDD1C2
:101D80005346002240212046CDF8009000F074FA1E
:101D900020B1202084F841000320B6E7202084F8F9
:101DA00041000020B1E70220AFE7704700BFFEE727
:101DB00010B5002005490870FEF7DCFB08B90620C5
:101DC00010BDFEF703FC0020FAE700001800002019
:101DD00010B54FF43C410748FEF70EFC04460CB129
:101DE000204610BD012004490870FEF713FD0020B5
:101DF000F7E70000004000081800002070B5044616
:101E00000D4616460548007808B9012070BD3246D7
:101E100029462046FEF730FCF8E7000018000020B5
:101E200008B500BF0D48806940F020000B4988616B
:101E30000846806900F02000009000BF00BF00BF8E
:101E40000846806940F0040088610846806900F017
:101E50000400009000BF00BF08BD00000010024059
:101E600010B50B480B4908604FF4E1304860002181
:101E700008488160C16001610C21416100218161DC
:101E8000C161FFF77BFE08B1FEF7F5FC10BD000055
:101E9000003801403C01002000BFFEE700BFFEE724
:101EA0007047000008B508490968C9084FF47A72FC
:101EB000B1FBF2F14143009100BF00BF00994A1EFF
:101EC00000920029F9D108BD14000020704710B518
:101ED000FFF79CF810BD00B58FB0282105A8FEF7CC
:101EE00066FA14216846FEF762FA012005900004A4
:101EF0000690002007900120099002200C90C10359
:101F00000D914FF4E0110E9105A8FFF777FA08B193
:101F1000FEF7B1FC0F2000900220019000200290FB
:101F20004FF4806003900020049002216846FFF780
:101F300041F908B1FEF79FFC0FB000BD704770B5C6
:101F400005466C6A0020E085E0842046FFF7A3FC8C
:101F500070BD00BF00BF02680C3252E8002F22F4AF
:101F6000907102680C3242E80013002BF3D100BFDD
:101F700000BF00BF0268143252E8002F22F00101B6
:101F80000268143242E80013002BF3D100BF016B4A
:101F900001290ED100BF00BF02680C3252E8002FA9
:101FA00022F0100102680C3242E80013002BF3D13A
:101FB00000BF202180F8421000210163704710B556
:101FC00004462068C06820F040002168C8602020D6
:101FD00084F841002046FFF7E8FE002010BDF8B568
:101FE000044694F84200222875D1A068B0F5805FBD
:101FF0000CD1206950B90025A66A20684068C0F35A
:1020000008003080A06A801CA06215E0A56A002646
:10201000A068B0F5805F03D0A06828B9206918B91E
:1020200020684068287004E02068406800F07F0065
:102030002870A06A401CA062E08D401E80B2E0853E
:10204000002846D12068C06820F020002168C860C0
:102050002068C06820F480702168C86020684069EA
:1020600020F0010021684861202084F8420000200F
:102070006063206B012826D10020206300BF00BFD1
:1020800021680C3151E8001F21F0100021680C314B
:1020900041E80002002AF3D100BF2068006800F088
:1020A000100010280AD100BF0020009020680068AE
:1020B000009020684068009000BF00BFA18D2046BE
:1020C000FFF7E8FB02E02046FFF7F6FD0020F8BD31
:1020D00001E00020FBE70220F9E7000070B50446AC
:1020E0002168096921F44051E268114322681161B5
:1020F0002269A1681143626941EA02052168C96841
:1021000041F20C62914329432268D16021684969F8
:1021100021F44071A2691143226851612D4A21685E
:10212000914202D1FFF722F901E0FFF70FF900EB2E
:10213000C00101EB001162689200B1FBF2F100EB0B
:10214000C00202EB001263689B00B2FBF3F264234F
:10215000B2FBF3F202EBC20303EB0212A1EB82012A
:10216000322202EB01116422B1FBF2F101F0F00125
:1021700000EBC00202EB001263689B00B2FBF3F2BB
:102180006423B2FBF3F201EB021200EBC00101EB9E
:10219000001163689B00B1FBF3F100EBC00303EB9C
:1021A00000136668B600B3FBF6F36426B3FBF6F3E0
:1021B00003EBC30606EB0313A1EB8301322303EB0E
:1021C00001116423B1FBF3F101F00F011144226806
:1021D000916070BD0038014010B5034699629A8540
:1021E000DA8500205864222083F84200186928B15B
:1021F0001868C06840F480701C68E0601868406926
:1022000040F001001C6860611868C06840F0200060
:102210001C68E060002010BD014691F841002128B3
:1022200028D18868B0F5805F0BD1086948B90A6A7F
:102230001088C0F308000B685860086A801C0862A8
:1022400005E00B6A581C086218780B685860C88C47
:10225000401E80B2C88458B90868C06820F0800069
:102260000B68D8600868C06840F040000B68D86010
:10227000002070470220FCE72DE9F84304460D4694
:1022800017469846089E31E0701C70B3FEF7B8FE02
:10229000A0EB0800B04200D816B90320BDE8F883CF
:1022A0002068C06800F00400F8B1802D1ED0402DD9
:1022B0001CD020680068C0F3C000B0B100BF00208F
:1022C000009020680068009020684068009000BF7F
:1022D00000BF2046FFF73DFE0820606400BF0020DD
:1022E00084F8400000BF0120D8E7FFE720680068BD
:1022F0002840A84201D1012000E00020B842C3D00C
:102300000020CBE710B50248FFF7C6FA10BD000069
:102310003C01002000BFFEE702480068C0F3022035
:10232000704700000CED00E010B5002804DB0A0740
:10233000130E054A135406E00A07140E034A00F070
:102340000F031B1FD45410BD00E400E018ED00E0A3
:10235000704701460020087800024A7810430002C6
:102360008A7810430002CA78104370472DE9F04F75
:1023700085B004464FF0000A9C48204404909B49D5
:10238000601D095C994A201D105C41EA0028114635
:10239000E01C11F800B00498801D0290BBF10F0FF3
:1023A0007ED2DFE80BF0080B0E111C20247D457D4A
:1023B00048937D7DF30000F0ABF912E100F0EAFBF9
:1023C0000FE100F09DF90CE18849A01D085C8849E7
:1023D000087000220321084600F0B2FD01E101204F
:1023E00084490870FDE0012083490870F9E07F49C5
:1023F000601D095C7D4A201D105C41EA0028002612
:1024000013E0A01D3044801C7849085C0502A01D23
:102410003044C01C085C05442144891D881900F023
:10242000FBF88146281D304486B24645E9DBD8E0FA
:10243000FFF78EFFD5E0002727B94FF480706F4972
:1024400008800AE0012F03D178026C49088004E07B
:10245000022F02D17802694908806449A01D085CF6
:102460006749086008460068000208605F49E01D8F
:10247000085C6349096808436149086008460068C8
:1024800000020860594904F10800085C5C490968C9
:1024900008435B490860084600680002086000E0E5
:1024A0009EE0524904F10900085C55490968084357
:1024B000534908600A2053490870012052490870A6
:1024C000FFF786FC002000F07BFC8AE04D48007896
:1024D0000A2878D101204D4908704449601D095CE3
:1024E000424A201D105C41EA00281146A01D0D5CE7
:1024F0002D02E01D085C05432D0204F10800085C74
:1025000005432D0204F10900085C05438A4604F1E5
:102510000A008244B8F1040F3AD139480068854274
:1025200036D100222946504600F014FB00203549E0
:10253000087035490870FFF73BFC0090009830BBED
:10254000002203210B2000F0FBFCC820FEF7E2FA7A
:1025500000BF00BF00BF00BF00BFBFF34F8F00BF71
:1025600000BF00BF2A48006800F4E0602949084322
:10257000001D2749086000BF00BF00BFBFF34F8F99
:1025800000BF00BF00BF00BF00BFFDE71CE017E0B9
:10259000A8F104001949098888420DDC82B2294655
:1025A000504600F0D7FA01280AD1002203210B205F
:1025B00000F0C6FC04E006E00020124908708146E5
:1025C0000020124908700CE00849A01D085C039027
:1025D000E01D085C01900199039800F015FC00E0F3
:1025E00000BF00BF05B0BDE8F08F0000A8010020CB
:1025F0002F0000202D0000202E000020320000209F
:102600003400002038000020000000202C000020B2
:102610000CED00E00000FA052DE9F04704462678AD
:1026200094F80180A0784FF6FF7101EA0025E07868
:10263000284485B2304600F04BF80746084800EBC6
:1026400047004078404502D00020BDE8F0872A4688
:10265000211D304600F01AF881464846F5E7000093
:10266000CE2F00082DE9F04104460D4629462046AC
:1026700000F088FA07463946652000F02FFA064632
:10268000012E01D1BDE8F0810020FBE72DE9F041EA
:1026900004460D4616460127652C05D131462846CD
:1026A000FFF7E0FF074600E000BF00BF3846BDE887
:1026B000F08130B502460020002305E012F8015BEE
:1026C0002C18E0B25C1CA3B28B42F7DB30BD0000DB
:1026D00070B5054600F012F80646002407E00648EB
:1026E00010F81400A84200D103E0601CC4B2B44248
:1026F000F5DB00BF204670BDCE2F000802207047DA
:1027000010B5002422460321022000F019FC10BD60
:1027100010B500240B48007840B90021204600F095
:10272000BDFAC4B201200749087004E00121204627
:1027300000F0B4FAC4B222460321002000F000FCED
:1027400010BD000030000020A4B0FEF76BFCFFF7C6
:10275000C2FBFFF765FBFFF783FBFDF7FDFF624858
:10276000006840686FF020005F49096808606FF0FA
:1027700040005D490968086001225C495A48FFF73A
:1027800085FA5948FEF758F800F028FB58A0FEF7E4
:1027900059F858A0FEF756F860A0FEF753F867A066
:1027A000FEF750F853A0FEF74DF8FDF701FF38B1E2
:1027B00068A0FEF747F8FDF709FF01206E49087091
:1027C0006D48007840B9FDF7D5FE28B96BA0FEF73B
:1027D00039F80120684908706748007800282DD131
:1027E00043A0FEF72FF86BA0FEF72CF873A0FEF7BE
:1027F00029F842F21074FEF703FC054614E000F0DD
:1028000007FB5D48007800B113E0FEF7F9FB6E4965
:102810000968401AB0F57A7F06D96CA0FEF712F865
:10282000FEF7EEFB68490860FEF7EAFB401BA0429A
:10283000E5D300BF2EA0FEF705F800BF4E48007894
:10284000002812D02AA0FDF7FDFF61A0FDF7FAFFD6
:102850006DA0FDF7F7FF5EA0FDF7F4FF70A0FDF798
:10286000F1FF23A0FDF7EEFF3AE0FDF783FE00281D
:1028700030D0FDF777FF08B312A8FDF7B3FFE0B93A
:10288000BDF84E009DF84D10CDE900109DF84C307C
:102890006AA2402102A8FDF7AFFC02A8FDF7D2FF13
:1028A0009DF8600040B16BA0FDF7CCFF18A8FDF7C4
:1028B000C9FF0FA0FDF7C6FF00BF00BF69A0FDF76D
:1028C000C1FF6420FEF726F9FDF75AFF6CA0FDF763
:1028D000B9FF02E074A0FDF7B5FF7BA0FDF7B2FFE2
:1028E00001E000F095FAFCE73C0100203C000020EC
:1028F0000D0A00003D3D3D3D3D3D3D3D3D3D3D3DE5
:102900003D3D3D3D3D3D3D3D3D3D3D3D3D3D3D3DF7
:102910003D3D3D3D3D3D3D3D0D0A000020205354D1
:102920004D33322049415020426F6F746C6F6164A7
:1029300065722076312E302E300D0A0020204D4356
:10294000553A2053544D33324631303343380D0A13
:10295000000000005741524E494E473A204C6173E7
:10296000742075706461746520696E636F6D706C3E
:10297000657465210D0A0000000000204170706C34
:1029800069636174696F6E20696E76616C69642138
:102990000D0A000057616974204669726D77617293
:1029A000652C206F72207761697420746F207275B6
:1029B0006E204150502E2E2E0D0A00005761697472
:1029C000696E672000000000040000202E00000057
:1029D0003D3D3D3D3D3D3D3D3D3D3D3D3D3D3D3D27
:1029E0003D3D3D3D3D3D3D3D3D3D3D3D3D3D3D3D17
:1029F0003D3D3D3D3D3D3D3D3D3D3D3D3D3D3D3D07
:102A00003D3D0D0A000000002020456E746572698E
:102A10006E6720494150204D6F64650D0A0000002B
:102A200057616974696E6720666F72206669726D9E
:102A3000776172652E2E2E0D0A0000004150502045
:102A400056657273696F6E3A2025642E25642E25B3
:102A5000640D0A004465736372697074696F6E3A3D
:102A6000200000004A756D70696E6720746F2061E8
:102A700070706C69636174696F6E2E2E2E0D0A0082
:102A80004552524F523A204A756D7020746F206142
:102A900070706C69636174696F6E206661696C65E2
:102AA00064210D0A000000004552524F523A204165
:102AB00070706C69636174696F6E20696E76616CA9
:102AC0006964210D0A000000456E74657220494159
:102AD00050206D6F64652E2E2E0D0A0070B50546D0
:102AE0000C4600261A480078012800D170BD2946FE
:102AF000304600F0D3F806460221304600F0CEF80A
:102B000006460021304600F0C9F80646042130464A
:102B100000F0C4F80646210E304600F0BFF8064625
:102B2000C4F30741304600F0B9F80646C4F3072164
:102B3000304600F0B3F80646E1B2304600F0AEF899
:102B4000064632460321072000F0FAF90120CDE7BE
:102B50002C0000202DE9F04104460D4616466EB1CA
:102B6000074805EB0008324621464046FFF746F984
:102B7000074617B10020BDE8F08100BF0120FAE749
:102B80000040000810B503460C461846FFF7E1FB6D
:102B900010BD00003EB5002400200090019002907E
:102BA00025A000F0C5F885B22A4623A1204600F0F2
:102BB00061F8C4B222A000F0BBF885B22A4620A179
:102BC000204600F057F8C4B222A000F0B1F885B258
:102BD0002A4620A1204600F04DF8C4B21FA000F004
:102BE000A7F885B22A461DA1204600F043F8C4B2DA
:102BF0001CA000F09DF885B22A461AA1204600F0DC
:102C000039F8C4B219A000F093F885B22A4617A18A
:102C1000204600F02FF8C4B215A000F089F885B264
:102C20002A4613A1204600F025F8C4B2224603210B
:102C3000012000F085F93EBD7B2270223A2200007F
:102C4000666E6C6F69316E696F39367A6D6D65626B
:102C500000000000222C2276223A2200312E302E53
:102C600030000000222C226D223A000032000000C9
:102C70007D0000002DE9F04104460E461546064849
:102C800007192A463146384600F030F8601984B2F8
:102C90002046BDE8F081000014040020024B1A1801
:102CA0001170431C98B270471404002000200C4996
:102CB00009680C4A1268914210D009490A680A4909
:102CC0008A4203D3A1F23311054A1160044909680D
:102CD000087803490968491C014A116070470000DF
:102CE00028000020240000200E040020F0B5054636
:102CF0000E4613462A46344605B10EB90020F0BDF3
:102D0000A24202D9E018904208D2002103E0605CA0
:102D10005054481C81B29942F9DB07E0194603E0A0
:102D2000481E275C175481B20029F9DC2846E6E7E3
:102D30000146002209B900207047002200E0521C21
:102D400011F8013B002BFAD11046F5E71349096849
:102D5000134A1268891A01291ED0114909680F4ABD
:102D60001268914207D90E4909680C4A1268891AFB
:102D7000B1F5997F10D80A490A680A498A4203D3F3
:102D8000A1F23311064A1160054909680870044927
:102D90000968491C024A11607047000028000020A1
:102DA000240000200E04002001B54FF0FF33012263
:102DB00069460248FEF79AFF08BD00003C0100206A
:102DC00070B50446002521462846FFF767FF0546F3
:102DD0002A4603210A2000F0B3F870BD05480649D1
:102DE000086006490860002005490870FF20054971
:102DF00008707047DB02002024000020280000201B
:102E00002C0000202F00002008B901B100BF70473E
:102E100070B50024002509E0FFF748FF3A490A8809
:102E20000988491C384B198038498854364800882D
:102E3000B0F5997F03D800F0A7F80028ECDC324801
:102E40000088072800DA70BD46E03048005D55284C
:102E500002D0601C84B23FE02C49601C085CAA28A8
:102E600002D0601C84B237E02849A01C085C10B175
:102E7000A01C84B230E02549201D085C4FF6FF718C
:102E800001EA00252149601D085CC01D284485B267
:102E9000B5F59D7F05D91E481E4908601E4908608A
:102EA0001FE019480088001BA84200DA19E06A1EDA
:102EB00091B2164A1019FFF7FCFB6119491E134A1B
:102EC000515C884202D0E01C84B205E02046FFF746
:102ED0004DFA601984B200BF0B480088001B072818
:102EE000B3DA00BF08480088001B0749088008467D
:102EF0000088002806DD05480119034802880348B8
:102F0000FFF7F4FE00BF9EE720000020A80100208C
:102F1000DB020020280000202400002070B50446B9
:102F20000D4604B105B970BD03E02078FFF73CFF02
:102F3000641C281EA5F101018DB2F6D100BFF2E795
:102F40002DE9F04105460E461446002755200D494F
:102F50000870AA20487008468670C5702012087153
:102F60004C71E01D84B2601E81B20648FFF7A1FBE0
:102F70000746601E03490F5421460248FFF7CEFF63
:102F8000BDE8F0810E040020044800680449096887
:102F9000884201D0012070470020FCE72400002077
:102FA0002800002002030405060708090A0B0C0D7F
:102FB0000E0F1010010200000000000000000102CE
:102FC000030406070809000000000102030465026B
:102FD00066020000F42F0008000000203C00000002
:102FE00028010008303000083C0000206C0A000076
:102FF0004401000800000000000000000000000084
:10300000100000000100000000127A000000000023
:1030100000000000000000000000000000000000B0
:1030200000000000000000000000000000000000A0
:04000005080000ED02
:00000001FF
