:020000040800F2
:10000000000B00208901000871220008A5200008CB
:100010006D220008CD060008F5270008000000004A
:10002000000000000000000000000000A122000805
:10003000D10600080000000075220008A322000875
:10004000A3010008A3010008A3010008A301000800
:10005000A3010008A3010008A3010008A3010008F0
:10006000A3010008A3010008A3010008A3010008E0
:10007000A3010008A3010008A3010008A3010008D0
:10008000A3010008A3010008A3010008A3010008C0
:10009000A3010008A3010008A3010008A3010008B0
:1000A000A3010008A3010008A3010008A3010008A0
:1000B000A3010008A301000815230008A3010008FC
:1000C000A3010008A3010008A3010008A301000880
:1000D000A3010008E5270008A3010008A301000808
:1000E000A3010008A3010008A301000800F002F822
:1000F00000F03AF80AA090E8000C82448344AAF188
:100100000107DA4501D100F02FF8AFF2090EBAE885
:100110000F0013F0010F18BFFB1A43F0010318473B
:100120000031000020310000103A24BF78C878C1A7
:10013000FAD8520724BF30C830C144BF04680C60ED
:10014000704700000023002400250026103A28BF35
:1001500078C1FBD8520728BF30C148BF0B60704739
:100160001FB51FBD10B510BD00F09DF81146FFF77B
:10017000F7FF02F043FD00F0BBF803B4FFF7F2FF16
:1001800003BC00F0C3F80000094880470948004755
:10019000FEE7FEE7FEE7FEE7FEE7FEE7FEE7FEE737
:1001A000FEE7FEE704480549054A064B7047000094
:1001B00011230008ED00000800050020000B0020BE
:1001C0000007002000070020B2F120030AD5C2F189
:1001D000200320FA02F001FA03F321FA02F140EAC7
:1001E0000300704721FA03F04FF00001704710B58B
:1001F000203AC0F00B80B1E81850203AA0E818501F
:10020000B1E81850A0E81850BFF4F5AF5FEA027CDF
:1002100024BFB1E81850A0E8185044BF18C918C04E
:10022000BDE810405FEA827C24BF51F8043B40F8EF
:10023000043B08BF7047D20728BF31F8023B48BFD4
:1002400011F8012B28BF20F8023B48BF00F8012B12
:1002500070474FF0000200B5134694469646203989
:1002600022BFA0E80C50A0E80C50B1F12001BFF46F
:10027000F7AF090728BFA0E80C5048BF0CC05DF8D5
:1002800004EB890028BF40F8042B08BF704748BF23
:1002900020F8022B11F0804F18BF00F8012B704797
:1002A000704770477047754600F02CF8AE46050061
:1002B0006946534620F00700854618B020B5FFF781
:1002C00071FFBDE820404FF000064FF000074FF0EF
:1002D00000084FF0000B21F00701AC46ACE8C00964
:1002E000ACE8C009ACE8C009ACE8C0098D4670476D
:1002F00010B50446AFF300802046BDE81040FFF77C
:100300003CBF000000487047A004002001491820AD
:10031000ABBEFEE726000200704700000A480268F4
:1003200041680A4882420DD3094882420AD20648EF
:10033000814207D30748814204D201F0010008B18D
:10034000012070470020FCE700400008001000205A
:100350000050002000FC0008044801680448814265
:1003600001D1012070470020FCE7000000FC0008DC
:1003700055AA55AA00B585B00020009000F0C6FB34
:10038000002001900548039001200490694601A8CF
:1003900000F002FB00F058FB05B000BD00FC0008B7
:1003A0002DE9F04385B004460E4600200090B4F1DC
:1003B000006F03D31848844200D21EB9052005B04F
:1003C000BDE8F0831548844201D20520F7E72046B6
:1003D00000F034FA0746A119481E00F02FFA8046B3
:1003E000A8EB070000F1010900F090FB05460DB1F4
:1003F0000220E4E7002001900394CDF810906946B4
:1004000001A800F0C9FA054600F01EFB0DB102205C
:10041000D5E70020D3E700000000010800400008F5
:100420002DE9F84F05468B469046A946C2465C46E4
:100430003148854208D33148854205D2BBF1000FCF
:1004400002D0B8F1000F02D10520BDE8F88F05EB0E
:1004500008002A49884201D90520F6E700F056FB3A
:1004600006460EB10220F0E724E02078617840EAE9
:100470000120A17840EA0140E17840EA0160009063
:10048000002349460220009A00F0E8FA06461EB111
:1004900000F0DAFA0220D8E7D9F800000099884283
:1004A00003D000F0D1FA0320CFE709F10409241D9D
:1004B000AAF1040ABAF1040FD7D2BAF1000F16D08C
:1004C0004FF0FF300090002703E0E05D0DF80700DB
:1004D0007F1C5745F9D3002349460220009A00F0BB
:1004E000BDFA06461EB100F0AFFA0220ADE700F0FB
:1004F000ABFA0020A9E700000040000800FC00085B
:1005000000200149087070472400002070B5FFF7F3
:1005100005FF18B372B600204FF0E0210861486172
:10052000886100BF09E04FF0FF320D4941F82020FB
:100530000C4941F82020411CC8B20828F3DB00F028
:1005400005FA0948446825460146086880F308888A
:1005500000BF08460549086062B6A84770BD0000A4
:1005600080E100E080E200E00040000808ED00E0EB
:10057000F0B504460D46164613B94FF0FF30F0BDF6
:10058000632C03DC632D01DC632E02DD4FF0FF30B2
:10059000F5E70A2094FBF0F0303018700A2094FB45
:1005A000F0F700FB1740303058702E2098700A206A
:1005B00095FBF0F03030D8700A2095FBF0F700FB87
:1005C0001750303018712E2058710A2096FBF0F029
:1005D000303098710A2096FBF0F700FB176030303E
:1005E000D871002018720021002200E0491C585CDC
:1005F000302801D10229F9DB41B10846491C13F822
:1006000000C01046521C03F800C005E093F800C07B
:100610001046521C03F800C04FF02E0C1046521C1E
:1006200003F800C00321585C302800D1491C08465B
:10063000491C13F800C01046521C03F800C04FF0CC
:100640002E0C1046521C03F800C00621585C3028BE
:1006500000D1491C0846491C13F800C01046521C22
:1006600003F800C00020985400BF88E770B5054625
:100670000DB9052070BD074C07492068884201D09C
:100680000120F7E7482221462846FFF7B0FD002069
:10069000F0E7000000FD00085256574610B500F084
:1006A00035FA054A00230549022000F0D7F904462F
:1006B00000F0CAF910BD000055AA55AA00FC0008B8
:1006C00001490860704700002800002000BFFEE7D5
:1006D000704772B600BFFEE70021074AD1610749A3
:1006E000096941F00401054A11611146096941F0A7
:1006F0004001116170470000E0010020002002402D
:100700000021074AD1610749096941F00201054A00
:10071000116111464861096941F04001116170475A
:10072000E0010020002002400022054BDA61054A6A
:10073000126942F00102034B1A6101807047000008
:10074000E00100200020024000201E49C96801F09D
:10075000100139B11C49C96941F002011A4AD1613D
:1007600040F010001749C96801F0040139B1164979
:10077000C96941F00101144AD16140F004001149F6
:10078000C96901F0010169B10F49C96941F004016A
:100790000D4AD16100BF0B49C96921F00101094A25
:1007A000D16100BF00BF40F20111884206D1054966
:1007B000C96921F00101034AD16101E00149C86022
:1007C00000BF704700200240E001002070B50446E1
:1007D00000F052FB054609E0601C38B124B100F07E
:1007E0004BFB401BA04201D9032070BD1248C068DA
:1007F00000F001000028EFD10F48C06800F0200091
:1008000020B100BF20200C49C86000BF0A48C06862
:1008100000F0100048B90848C06900F0010020B994
:100820000548C06800F0040018B1FFF78DFF0120F3
:10083000DBE70020D9E70000002002400146A1F1DB
:100840000060800A70470146002291F821000228CA
:1008500008D00420886300BF002081F8200000BF7A
:10086000012070470868006820F00E000B681860CF
:100870000868006820F001000B68186091F84030AB
:1008800001209840CB6B5860012081F8210000BF07
:10089000002081F8200000BF1046E2E770B5044652
:1008A000002594F82100022803D00420A06301252C
:1008B00048E02068006820F00E0021680860206889
:1008C000006820F00100216808601F492068884204
:1008D00001D1012026E01C4914312068884201D151
:1008E00010201FE0184928312068884201D1801566
:1008F00018E015493C312068884201D1801411E08C
:10090000114950312068884202D14FF4803009E00B
:100910000D4964312068884202D14FF4801001E013
:100920004FF08070084908394860012084F82100A0
:1009300000BF002084F8200000BF606B10B120468B
:10094000616B8847284670BD0800024010B54FF023
:10095000FF300649086100200861401EC860002081
:10096000C86000F0D5FA002010BD00000010024061
:1009700070B5044600F080FA06462546681C10B1A2
:1009800004480078054400BF00F076FA801BA842B6
:10099000FAD370BD1C0000202DE9F04104460E463C
:1009A0000127002500BF2648007E012802D1022031
:1009B000BDE8F08101202249087600BF20680228A6
:1009C00013D14CF25030FFF701FF90BB0120FFF72D
:1009D00083FE4CF25030FFF7F9FE074619480069D4
:1009E00020F004001749086123E04CF25030FFF773
:1009F000EDFEF0B94FF0FF303060A56812E02846F8
:100A0000FFF77EFE4CF25030FFF7E0FE07460D4840
:100A1000006920F002000B4908610FB1356007E062
:100A200005F58065D4E9021001EB8020A842E6D8E4
:100A300000BF00BF00200249087600BF3846B7E774
:100A4000E0010020002002400348006940F08000DF
:100A50000149086100207047002002402DE9FE4F47
:100A600005468B4617469846012600240020029032
:100A700000BF2448007E012802D10220BDE8FE8F7D
:100A800001202049087600BF4CF25030FFF79EFE4F
:100A9000064686BB012D02D10120029006E0022D00
:100AA00002D10220029001E00420029000241EE006
:100AB0002201B946C24648465146FFF785FB80B23F
:100AC0000190022000FB04B000900199FFF72CFE7A
:100AD0004CF25030FFF77AFE06460B48006920F0D2
:100AE00001000949086106B104E0601CC4B2029823
:100AF0008442DDDB00BF00BF00200249087600BF52
:100B00003046BBE7E00100200020024000200849F9
:100B1000096901F0800151B10649054A5160064951
:100B200051601146096901F0800101B1012070474F
:100B30000020024023016745AB89EFCD2DE9F8473E
:100B40000346002294466EE14FF0010808FA02F4D1
:100B5000D1F8008008EA0400A0427DD1DFF8DCA2D1
:100B6000D1F80480A8EB0A09D0453AD014DCB8F1DA
:100B7000030F50D009DCB8F1000F31D0B8F1010FEC
:100B80001CD0B8F1020F49D120E0B8F1110F18D0F4
:100B9000B8F1120F42D11EE0B9F5881F25D006DC4E
:100BA000B9F5803F20D0B9F5801F37D11AE0B9F5EB
:100BB000001F18D0B9F5041F30D117E0D1F80CC0D0
:100BC0002DE0D1F80C8008F1040C28E0D1F80C805D
:100BD00008F1080C23E0D1F80C8008F10C0C1EE0A1
:100BE00000BF00BF00BF00BF00BF00BFD1F808803A
:100BF000B8F1000F02D14FF0040C0BE0D1F80880DF
:100C0000B8F1010F03D14FF0080C1C6102E04FF066
:100C1000080C5C6103E04FF0000C00E000BF00BF77
:100C2000FF2801D8984601E003F104084646FF2852
:100C300002D84FEA820803E0A2F108084FEA8808C8
:100C40004746D6F800804FF00F0909FA07F928EA5D
:100C500009080CFA07F900E088E048EA0908C6F834
:100C60000080D1F8048008F08058B8F1805F7DD111
:100C700000BFDFF8CC81D8F8188048F00108DFF811
:100C8000C091C9F81880C846D8F8188008F0010843
:100C9000CDF8008000BF00BF4FEAB9384FEA920993
:100CA00058F829504FEA82784FEA18794FF00F0828
:100CB00008FA09F825EA0805DFF88881434502D1DA
:100CC0004FF0000816E0DFF88081434502D14FF075
:100CD00001080FE0DFF87481434502D14FF00208AC
:100CE00008E0DFF86C81434502D14FF0030801E0D2
:100CF0004FF004084FEA82794FEA197908FA09F8A7
:100D000048EA0505DFF84C814FEA920948F8295076
:100D1000D1F8048008F48018B8F5801F0AD1DFF8F4
:100D20003881D8F8008048EA0008DFF82C91C9F82B
:100D3000008009E0DFF82081D8F8008028EA000868
:100D4000DFF81491C9F80080D1F8048008F4001885
:100D5000B8F5001F10D1DFF8008108F10408D8F8B9
:100D6000008048EA0008DFF8F09000E05AE009F15E
:100D70000409C9F800800DE0DFF8DC8008F1040800
:100D8000D8F8008028EA0008DFF8CC9009F10409BF
:100D9000C9F80080D1F8048008F40038B8F5003FA5
:100DA0000ED1DFF8B480A8F10408D8F8008048EA32
:100DB0000008DFF8A490A9F10409C9F800800DE04B
:100DC000DFF89480A8F10408D8F8008028EA000829
:100DD000DFF88490A9F10409C9F80080D1F80480F3
:100DE00008F48038B8F5803F0ED1DFF86C80A8F1A8
:100DF0000808D8F8008048EA0008DFF85C90A9F1FC
:100E00000809C9F800800DE0DFF84C80A8F1080857
:100E1000D8F8008028EA0008DFF83C90A9F108091A
:100E2000C9F80080521CD1F8008028FA02F8B8F105
:100E3000000F7FF489AEBDE8F887000000001110B4
:100E40000010024000080140000C01400010014069
:100E50000014014008000140080401400246936864
:100E60000B400BB1012000E0002070470AB1016186
:100E700001E00B04036170470148006870470000FF
:100E80001400002003480068034909780844014918
:100E900008607047140000201C00002010B50848AE
:100EA000006840F0100006490860032000F0AAF82E
:100EB0000F2000F007F800F02DF8002010BD000012
:100EC0000020024070B504460E4800784FF47A7155
:100ED000B1FBF0F00C490968B1FBF0F5284600F0D1
:100EE000FBFB08B1012070BD102C07D20022214667
:100EF000501E00F049F80548046001E00120F2E7C7
:100F00000020F0E71C000020200000201800002036
:100F10007047000008B500BF1148806940F001002B
:100F20000F4988610846806900F00100009000BF09
:100F300000BF00BF0846C06940F08050C861084645
:100F4000C06900F08050009000BF00BF00BF05499D
:100F5000486820F0E06040F00070486000BF08BDC5
:100F6000001002400000014001460846002809DB4D
:100F700000F01F0301229A4043099B0003F1E02384
:100F8000C3F8002100BF70472DE9F05F80460D4691
:100F90001646002701F030FC074639462A463346FC
:100FA00001F00700C0F1070ABAF1040F02D94FF0AF
:100FB000040A01E0C0F1070AD14600F1040ABAF1BF
:100FC000070F02D24FF0000A01E0A0F1030AD44655
:100FD0004FF0010A0AFA09FAAAF1010A0AEA020A1A
:100FE0000AFA0CFA4FF0010B0BFA0CFBABF1010BF8
:100FF0000BEA030B4AEA0B042146404601F004FCCD
:10100000BDE8F09F00BF00F00702064B19684FF6DD
:10101000FF031940044B0B4343EA0221014B1960C3
:1010200000BF70470CED00E00000FA0570B5044603
:101030000D460CB9012070BD5A48006800F0070049
:10104000A8420ED25748006820F0070028435549AF
:1010500008600846006800F00700A84201D001209F
:10106000E9E7207800F0020002281DD1207800F086
:101070000400042805D14C48406840F4E0604A4927
:101080004860207800F00800082805D146484068EC
:1010900040F46050444948604348406820F0F00004
:1010A000A168084340494860207800F0010078B307
:1010B0006068012806D13C48006800F4003090B90F
:1010C0000120B8E76068022806D13748006800F0C0
:1010D000007040B90120AEE73348006800F002001C
:1010E00008B90120A7E73048406820F00300616894
:1010F00008432D494860FFF7BFFE064609E0FFF7A9
:10110000BBFE801B41F28831884202D9032092E75E
:1011100007E02548406800F00C006168B0EB810FE3
:10112000EDD12048006800F00700A8420ED91D4804
:10113000006820F0070028431A4908600846006844
:1011400000F00700A84201D0012074E7207800F0E9
:101150000400042807D11448406820F4E060E168E6
:10116000084311494860207800F00800082808D199
:101170000D48406820F46050216940EAC1000A49E6
:10118000486000F03FF808494968C1F30311074A75
:10119000515CC8400649086006480068FFF792FEA7
:1011A000002048E700200240001002400232000800
:1011B000200000201800002001480068704700004F
:1011C0002000002000B5FFF7F7FF04494968C1F38C
:1011D0000221034A515CC84000BD000000100240DB
:1011E0001232000800B5FFF7E7FF04494968C1F370
:1011F000C221034A515CC84000BD000000100240FB
:101200001232000870B500210022002400230020C3
:10121000134D696801F00C05F5B1042D02D0082DBD
:1012200019D101E00F4819E00F4DC1F38346AB5DC2
:1012300001F4803555B10A4D6D68C5F340450B4E3C
:10124000725D084D5D43B5FBF2F402E0084D03FB0F
:1012500005F4204602E000BF024800BF00BF70BD99
:101260000010024000127A00F0310008003200083D
:1012700000093D00F8B504460CB90120F8BD2078FE
:1012800000F00100002878D0F848406800F00C0019
:1012900004280CD0F548406800F00C00082811D153
:1012A000F248406800F48030B0F5803F0AD1EF4842
:1012B000006800F4003000285FD0606800285CD12E
:1012C0000120DBE700BF6068B0F5803F06D1E7484A
:1012D000006840F48030E549086028E0606858B94B
:1012E000E248006820F48030E04908600846006861
:1012F00020F4802008601AE06068B0F5A02F0BD1C0
:10130000DA48006840F48020D84908600846006840
:1013100040F4803008600AE0D448006820F480304F
:10132000D24908600846006820F48020086000BFA9
:10133000606888B1FFF7A0FD054606E0FFF79CFD59
:10134000401B642801D9032098E7C848006800F4CE
:1013500000300028F2D010E0FFF78EFD054606E0D1
:10136000FFF78AFD401B642801D9032086E7BF48A8
:10137000006800F400300028F2D1207800F002006C
:10138000022857D1B948406800F00C0050B1B74866
:10139000406800F00C00082818D1B448406800F4F8
:1013A000803098B9B148006800F0020020B120698F
:1013B000012801D0012061E7AC48006820F0F80066
:1013C000616940EAC100A949086033E02069E8B1D9
:1013D0000120A7490860FFF74FFD054606E0FFF72B
:1013E0004BFD401B022801D9032047E79F480068B6
:1013F00000F002000028F2D09C48006820F0F800BD
:10140000616940EAC1009949086013E000209849E9
:101410000860FFF731FD054606E0FFF72DFD401B94
:10142000022801D9032029E79048006800F0020053
:101430000028F2D1207800F0080008282DD1A069FA
:10144000B8B101208B490860FFF716FD054606E09C
:10145000FFF712FD401B022801D903200EE7834845
:10146000406A00F002000028F2D0012000F004FFE2
:1014700013E000207F490860FFF7FEFC054606E008
:10148000FFF7FAFC401B022801D90320F6E6774853
:10149000406A00F002000028F2D1207800F0040039
:1014A000042873D100277148C06900F0805070B9DA
:1014B00000BF6E48C06940F080506C49C861084662
:1014C000C06900F08050009000BF00BF01276A484B
:1014D000006800F48070B0B96748006840F480701C
:1014E00065490860FFF7C8FC054606E0FFF7C4FC45
:1014F000401B642801D90320C0E65F48006800F45F
:1015000080700028F2D000BFE068012806D157485B
:10151000006A40F001005549086227E0E06858B9C8
:101520005248006A20F00100504908620846006AEB
:1015300020F00400086219E0E06805280BD14B4850
:10154000006A40F00400494908620846006A40F019
:10155000010008620AE04548006A20F001004349A2
:1015600008620846006A20F00400086200BFE068D4
:10157000A0B1FFF781FC054609E0FFF77DFC401BA9
:1015800041F28831884202D9032077E622E03748C9
:10159000006A00F002000028EFD012E0FFF76CFCB8
:1015A000054608E0FFF768FC401B41F2883188429D
:1015B00001D9032062E62D48006A00F002000028ED
:1015C000F0D1012F05D12948C06920F0805027496A
:1015D000C86100BFE069C8B32448406800F00C004F
:1015E000082860D0E069022848D100202049086618
:1015F000FFF742FC054606E0FFF73EFC401B0228D1
:1016000001D903203AE61948006800F0007000286C
:10161000F2D1206AB0F5803F07D11448406820F429
:101620000030A168084311494860D4E90801084323
:101630000E49496821F4741108430C49486001209F
:101640000B490866FFF718FC054607E03DE0FFF789
:1016500013FC401B022801D903200FE60348006851
:1016600000F000700028F2D02FE0000000100240CF
:1016700000004242800442420070004000201449B1
:101680000866FFF7F9FB054606E0FFF7F5FB401B90
:10169000022801D90320F1E50E48006800F000702F
:1016A0000028F2D111E0E069012800D1E6E50948FF
:1016B000466806F48031206A814204D106F4701134
:1016C000606A814201D00120D8E50020D6E5000003
:1016D000000042420010024070B504462546681ED4
:1016E000B0F1807F01D301200FE0681E4FF0E021B0
:1016F00048610F214FF0FF3001F086F800204FF0D5
:10170000E021886107200861002070BD70477047A4
:1017100030B502460B4600BF92F83C00012801D1CB
:10172000022030BD012082F83C0000BF022082F878
:101730003D00106844681068816824F070041868DF
:10174000044310684460104D1068A8420BD0106824
:10175000B0F1804F07D00D4D1068A84203D00C4D5A
:101760001068A84205D121F0800158680143106833
:101770008160012082F83D0000BF002082F83C001B
:1017800000BF00BFCDE70000002C01400004004076
:101790000008004010B504460CB9012010BD94F8B3
:1017A0003D0028B9002084F83C00204600F026F8CF
:1017B000022084F83D00211D206800F0B3FD0120C7
:1017C00084F8460000BF84F83E0001213F20015507
:1017D000402001554120015500BF00BF012084F881
:1017E000420043200155442001554520015500BFCA
:1017F000012084F83D000020D0E7000038B5044601
:101800000D492068884215D100BF0C48C06940F0DE
:1018100004000A49C8610846C06900F0040000904D
:1018200000BF00BF002211461E20FFF7ADFB1E20A7
:10183000FFF79AFB38BD000000080040001002408E
:10184000014691F83D00012801D001207047022097
:1018500081F83D000868C06840F001000B68D8605E
:10186000124B086898420BD00868B0F1804F07D03F
:101870000F4B0868984203D00E4B086898420CD171
:101880000868806800F00702062A0CD00868006823
:1018900040F001000B68186005E00868006840F03F
:1018A00001000B6818600020D0E70000002C014008
:1018B00000040040000800402DE9F04104460D46B8
:1018C000002700BF94F83C00012802D10220BDE8A7
:1018D000F081012084F83C0000BF022084F83D0024
:1018E0002068866826F0770626F47F4620688660A2
:1018F0002868502833D00CDC202850D004DC002885
:101900004BD0102851D149E0302849D040284CD143
:1019100039E060282DD0702807D0B0F5805F03D063
:10192000B0F5005F41D10DE041E0D5E902136A68EE
:10193000206800F039FD2068866846F07706206848
:10194000866034E0D5E902136A68206800F02CFD57
:101950002068806840F480402168886027E0EA6859
:101960006968206800F034FD5021206800F027FDF0
:101970001DE0EA686968206800F03DFD602120688C
:1019800000F01DFD13E0EA686968206800F020FDA2
:101990004021206800F013FD09E000BF00BF00BF38
:1019A0002968206800F00BFD01E0012700BF00BF9F
:1019B000012084F83D0000BF002084F83C0000BFF7
:1019C000384684E7704770B504462068C5682068CB
:1019D000066906F00200022819D105F0020002286B
:1019E00015D1401F21680861012020772068806997
:1019F00000F0030018B12046FFF7E4FF05E02046A1
:101A000000F097F8204600F095F80020207706F0C7
:101A10000400042819D105F00400042815D1C0439E
:101A200021680861022020772068806900F44070F6
:101A300018B12046FFF7C6FF05E0204600F079F810
:101A4000204600F077F80020207706F008000828EC
:101A500019D105F00800082815D1C0432168086194
:101A6000042020772068C06900F0030018B12046E8
:101A7000FFF7A8FF05E0204600F05BF8204600F0E5
:101A800059F80020207706F01000102819D105F031
:101A90001000102815D1C043216808610820207764
:101AA0002068C06900F4407018B12046FFF78AFF33
:101AB00005E0204600F03DF8204600F03BF800200D
:101AC000207706F0010048B105F0010030B16FF059
:101AD000010021680861204600F02EF806F0800021
:101AE000802809D105F08000802805D1C0432168F5
:101AF00008612046FFF70AFE06F04000402809D1A1
:101B000005F04000402805D1C04321680861204607
:101B100000F03AF806F02000202809D105F0200056
:101B2000202805D1C043216808612046FFF7EFFD5A
:101B300070BD70477047000010B504460E488442DF
:101B400019D14FF480410D48FFF788F9012807D1DA
:101B50000B48007820B90B480068401C0949086010
:101B600008480068B0F57A7F05D90020054908606B
:101B700001200349087010BD50010020000C0140F5
:101B8000100000200C0000207047704770470000D4
:101B90002DE9F84F0446206805682068C66820686B
:101BA00047694FF00009CA4605F00F09B9F1000F67
:101BB0000AD105F0200038B106F0200020B12046FF
:101BC00000F07DFCBDE8F88FB9F1000F7BD007F085
:101BD000010018B906F49070002874D005F00100D7
:101BE00030B106F4807018B1606C40F001006064A0
:101BF00005F0040030B107F0010018B1606C40F04E
:101C00000200606405F0020030B107F0010018B175
:101C1000606C40F00400606405F0080048B106F014
:101C2000200010B907F0010018B1606C40F0080006
:101C30006064606C002845D005F0200028B106F0F3
:101C4000200010B1204600F03AFC20684069C0F343
:101C5000801A606C00F0080010B9BAF1000F2CD0A7
:101C6000204600F0E6FB2068406900F0400000B329
:101C700000BF00BF2168143151E8001F21F040006F
:101C80002168143141E80002002AF3D100BFE06B63
:101C900050B17748E16B4863E06BFEF7FFFD88B118
:101CA000E06B416B88470DE02046FFF76FFF09E0CE
:101CB00009E02046FFF76AFF04E02046FFF766FFD1
:101CC000002060647EE7206B012877D105F01000CA
:101CD000002873D006F010000028FAD000BF0020C2
:101CE000009020680068009020684068009000BF65
:101CF00000BF2068406900F0400000285FD0E06B22
:101D0000006840681FFA80F8B8F1000F55D0A08D28
:101D1000404552DDA4F82E80E06B8069202843D036
:101D200000BF00BF21680C3151E8001F21F4807012
:101D300021680C3141E80002002AF3D100BF00BF46
:101D400000BF2168143151E8001F21F00100216813
:101D5000143141E80002002AF3D100BF00BF00BFE8
:101D60002168143151E8001F21F04000216814312E
:101D700041E80002002AF3D100BF202084F842008D
:101D80000020206300BF00BF21680C3151E8001F14
:101D900021F0100021680C3141E80002002AF3D143
:101DA00000BFE06BFEF74FFD02206063A08DE28D67
:101DB000801A81B22046FFF7E8FE03E742E0A08DDB
:101DC000E18D401A1FFA80F8E08DD0B3B8F1000F12
:101DD00037D000BF00BF21680C3151E8001F21F44B
:101DE000907021680C3141E80002002AF3D100BF55
:101DF00000BF00BF2168143151E8001F21F001002D
:101E00002168143141E80002002AF3D100BF2020EC
:101E100084F842000020206300BF00BF21680C311D
:101E200051E8001F21F0100021680C3141E8000248
:101E3000002AF3D100BF0220606341462046FFF72D
:101E4000A4FEBFE605F0800030B106F0800018B1B6
:101E5000204600F051FCB5E605F0400030B106F038
:101E6000400018B1204600F01AFBABE600BFA9E61F
:101E70001F24000810B504460CB9012010BDA0694C
:101E800000B100E000BF94F8410028B9002084F8B8
:101E90004000204600F02AF8242084F84100206801
:101EA000C06820F400502168C860204600F086FB1E
:101EB0002068006920F4904021680861206840692A
:101EC00020F02A00216848612068C06840F4005072
:101ED0002168C86000206064202084F8410084F8F4
:101EE00042000020606300BFC8E7000010B586B064
:101EF0000446002002900390049005901E4920683B
:101F0000884236D100BF1D48806940F480401B499B
:101F100088610846806900F48040019000BF00BFDE
:101F200000BF0846806940F0040088610846806967
:101F300000F00400019000BF00BF4815029002208D
:101F400003900320059002A90D48FEF7F7FD4FF41A
:101F50008060029000200390049002A90848FEF7D8
:101F6000EDFD002211462520FFF70EF82520FEF793
:101F7000FBFF06B010BD0000003801400010024019
:101F80000008014070B504460D46164694F842001C
:101F900020280BD105B10EB9012070BD00202063AF
:101FA00032462946204600F087FBF6E70220F4E798
:101FB00010B504460849206888420BD10748FFF74E
:101FC000E7FD0749087800F0EBFF012204490348C8
:101FD000FFF7D8FF10BD0000003801409801002035
:101FE000500000202DE9F84F04460E46174699464A
:101FF0004FF0000A94F84100202850D106B117B9DB
:102000000120BDE8F88F00206064212084F84100A1
:10201000FEF732FF8246A784E784A068B0F5805FB0
:1020200004D1206910B90025B04602E035464FF0D2
:1020300000081EE05346002280212046CDF8009083
:1020400000F08AFB20B1202084F841000320D8E76B
:1020500045B9B8F80000C0F308002168486008F1ED
:10206000020803E02878216848606D1CE08C401E5F
:10207000E084E08C0028DDD1534600224021204638
:10208000CDF8009000F068FB20B1202084F84100DA
:102090000320B6E7202084F841000020B1E70220A9
:1020A000AFE7704700BFFEE710B500200549087094
:1020B000FEF734F908B9062010BDFEF75BF90020E1
:1020C000FAE700002400002010B54FF43C41074817
:1020D000FEF766F904460CB1204610BD0120044904
:1020E0000870FEF7DBFA0020F7E700000040000868
:1020F0002400002070B504460D46164605480078B9
:1021000008B9012070BD324629462046FEF788F9FD
:10211000F8E700002400002000B585B00020019001
:1021200002900390049000BF2348806940F0200093
:10213000214988610846806900F02000009000BFB6
:1021400000BF00BF0846806940F00400886108466F
:10215000806900F00400009000BF00BF00BF084687
:10216000806940F0080088610846806900F0080036
:10217000009000BF00BF002204211048FEF776FE49
:10218000012280210D48FEF771FE8420019001207C
:10219000029003900220049001A90848FEF7CEFCAB
:1021A0004FF48040019000200290039001A9044860
:1021B000FEF7C4FC05B000BD00100240000801405D
:1021C000000C014000B587B00020039004900590FA
:1021D0000690019002901548154908602320486038
:1021E00000211348816042F20F71C160002101613A
:1021F00080218161FFF7CEFA08B1FEF76AFA4FF449
:102200008050039003A90A48FFF756FB08B1FEF778
:1022100060FA00200190029001A90548FFF778FAC2
:1022200008B1FEF756FA07B000BD000000080040F4
:102230005001002010B50B480B4908604FF4E13005
:102240004860002108488160C16001610C21416142
:1022500000218161C161FFF70DFE08B1FEF739FA77
:1022600010BD0000003801409801002000BFFEE7CB
:1022700000BFFEE77047000008B508490968C908B3
:102280004FF47A72B1FBF2F14143009100BF00BFFD
:1022900000994A1E00920029F9D108BD20000020B3
:1022A000704710B5FEF7EEFD10BD00B58FB02821C8
:1022B00005A8FDF7CEFF14216846FDF7CAFF0120EF
:1022C000059000040690002007900120099002204C
:1022D0000C90C1030D914FF4E0110E9105A8FEF78B
:1022E000C9FF08B1FEF7F5F90F2000900220019018
:1022F000002002904FF4806003900020049002219F
:102300006846FEF793FE08B1FEF7E3F90FB000BD93
:102310007047000010B50248FFF755FB10BD0000E4
:102320005001002010B502681C4B984208D0B0F153
:10233000804F05D01A4B984202D01A4B984203D1D5
:1023400022F070024B681A43144B984208D0B0F147
:10235000804F05D0124B984202D0124B984203D1C5
:1023600022F44072CB681A4322F080034C6943EA9E
:10237000040202608B68C3620B688362074B984259
:1023800001D10B69036301234361036903F0010376
:102390001BB1036923F00103036110BD002C014050
:1023A000000400400008004030B50C46816821F46C
:1023B0007F4142EA032525432943816030BD0A4617
:1023C000816821F0700142F0070319438160704772
:1023D00030B50B461446026A056A25F00105056210
:1023E000816921F0F00141EA041122F00A021A4346
:1023F0008161026230BD30B50B461446026A056A3F
:1024000025F010050562816921F4704141EA04312B
:1024100022F0A00242EA03128161026230BD70B56F
:1024200005466C6A0020E085E0842046FFF7AEFB9D
:1024300070BD00BF00BF02680C3252E8002F22F4CA
:10244000907102680C3242E80013002BF3D100BFF8
:1024500000BF00BF0268143252E8002F22F00101D1
:102460000268143242E80013002BF3D100BF016B65
:1024700001290ED100BF00BF02680C3252E8002FC4
:1024800022F0100102680C3242E80013002BF3D155
:1024900000BF202180F8421000210163704710B571
:1024A00004462068C06820F040002168C8602020F1
:1024B00084F841002046FFF7F4FD002010BDF8B578
:1024C000044694F84200222875D1A068B0F5805FD8
:1024D0000CD1206950B90025A66A20684068C0F375
:1024E00008003080A06A801CA06215E0A56A002662
:1024F000A068B0F5805F03D0A06828B9206918B93A
:1025000020684068287004E02068406800F07F0080
:102510002870A06A401CA062E08D401E80B2E08559
:10252000002846D12068C06820F020002168C860DB
:102530002068C06820F480702168C8602068406905
:1025400020F0010021684861202084F8420000202A
:102550006063206B012826D10020206300BF00BFEC
:1025600021680C3151E8001F21F0100021680C3166
:1025700041E80002002AF3D100BF2068006800F0A3
:10258000100010280AD100BF0020009020680068C9
:10259000009020684068009000BF00BFA18D2046D9
:1025A000FFF7F3FA02E02046FFF702FD0020F8BD36
:1025B00001E00020FBE70220F9E7000070B50446C7
:1025C0002168096921F44051E268114322681161D0
:1025D0002269A1681143626941EA02052168C9685C
:1025E00041F20C62914329432268D1602168496914
:1025F00021F44071A2691143226851612D4A21687A
:10260000914202D1FEF7EEFD01E0FEF7DBFD00EBAB
:10261000C00101EB001162689200B1FBF2F100EB26
:10262000C00202EB001263689B00B2FBF3F264236A
:10263000B2FBF3F202EBC20303EB0212A1EB820145
:10264000322202EB01116422B1FBF2F101F0F00140
:1026500000EBC00202EB001263689B00B2FBF3F2D6
:102660006423B2FBF3F201EB021200EBC00101EBB9
:10267000001163689B00B1FBF3F100EBC00303EBB7
:1026800000136668B600B3FBF6F36426B3FBF6F3FB
:1026900003EBC30606EB0313A1EB8301322303EB29
:1026A00001116423B1FBF3F101F00F011144226821
:1026B000916070BD0038014010B5034699629A855B
:1026C000DA8500205864222083F84200186928B176
:1026D0001868C06840F480701C68E0601868406941
:1026E00040F001001C6860611868C06840F020007C
:1026F0001C68E060002010BD014691F841002128CF
:1027000028D18868B0F5805F0BD1086948B90A6A9A
:102710001088C0F308000B685860086A801C0862C3
:1027200005E00B6A581C086218780B685860C88C62
:10273000401E80B2C88458B90868C06820F0800084
:102740000B68D8600868C06840F040000B68D8602B
:10275000002070470220FCE72DE9F84304460D46AF
:1027600017469846089E31E0701C70B3FEF784FB54
:10277000A0EB0800B04200D816B90320BDE8F883EA
:102780002068C06800F00400F8B1802D1ED0402DF4
:102790001CD020680068C0F3C000B0B100BF0020AA
:1027A000009020680068009020684068009000BF9A
:1027B00000BF2046FFF73DFE0820606400BF0020F8
:1027C00084F8400000BF0120D8E7FFE720680068D8
:1027D0002840A84201D1012000E00020B842C3D027
:1027E0000020CBE710B50248FFF7D2F910BD00007A
:1027F0009801002000BFFEE702480068C0F30220F5
:10280000704700000CED00E010B5002804DB0A075B
:10281000130E054A135406E00A07140E034A00F08B
:102820000F031B1FD45410BD00E400E018ED00E0BE
:10283000704701460020087800024A7810430002E1
:102840008A7810430002CA78104370472DE9FE4F82
:1028500004464FF0000A9248204402909049601DBF
:10286000095C8F4A201D105C41EA00291146E01CDA
:1028700011F800B00298801D0190BBF10C0F7DD2C1
:10288000DFE80BF006090C0F1A1E227C437C4694ED
:1028900000F098F900E100F095FAFDE000F08AF907
:1028A000FAE07F49A01D085C7E49087000220321E0
:1028B000084600F06BFCEFE001207B490870EBE07C
:1028C00001207A490870E7E07549601D095C744A87
:1028D000201D105C41EA0029002613E0A01D3044B1
:1028E000801C6F49085C0502A01D3044C01C085CB8
:1028F00005442144891D881900F0E8F88046281D08
:10290000304486B24E45E9DBC6E0FFF791FFC3E0F5
:10291000002727B94FF48070654908800AE0012F2D
:1029200003D178026249088004E0022F02D17802C4
:102930005F4908805A49A01D085C5E490860084646
:102940000068000208605649E01D085C59490968A2
:10295000084358490860084600680002086050496A
:1029600004F10800085C53490968084351490860AC
:102970000846006800020860494900E08BE004F165
:102980000900085C4B49096808434A4908600A2065
:1029900049490870012049490870002048490860E9
:1029A000FFF792FB002000F035FB75E0424800780D
:1029B0000A286FD10120434908703949601D095C1C
:1029C000374A201D105C41EA00291146A01D0D5C0C
:1029D0002D02E01D085C05432D0204F10800085C8F
:1029E00005432D0204F10900085C0543A9F1040028
:1029F00035490880924604F10A0082443048006854
:102A0000A84203D000202F49087045E02E480088D6
:102A100028442B490860B9F1040F20D125480068EB
:102A200085421CD100222946504600F09FF9002023
:102A30002149087000212148017021480160FFF7F9
:102A400033FB0090009848B9002203210B2000F0CE
:102A50009DFBC820FDF78CFFFDF758FD17E01A48D5
:102A600000881349098888420DDC174802882946E6
:102A7000504600F07BF9012809D1002203210B20E8
:102A800000F084FB03E000200B4908708046002022
:102A90000C49087000E000BF00BFBDE8FE8F0000D9
:102AA000000200203B000020390000203A000020F6
:102AB0003E000020400000204400002000000020D4
:102AC00048000020380000204C0000202DE9F0478D
:102AD0000446267894F80180A0784FF6FF7101EA49
:102AE0000025E078284485B2304600F04BF80746D0
:102AF000084800EB47004078404502D00020BDE880
:102B0000F0872A46211D304600F01AF881464846D3
:102B1000F5E700001A3200082DE9F04104460D46A1
:102B20002946204600F03AF907463946652000F06C
:102B3000E1F80646012E01D1BDE8F0810020FBE757
:102B40002DE9F04104460D4616460127652C05D1B6
:102B500031462846FFF7E0FF074600E000BF00BF10
:102B60003846BDE8F08130B502460020002305E07C
:102B700012F8015B2C18E0B25C1CA3B28B42F7DBAD
:102B800030BD000070B5054600F012F8064600247E
:102B900007E0064810F81400A84200D103E0601CCA
:102BA000C4B2B442F5DB00BF204670BD1A32000843
:102BB0000220704710B5002422460321022000F0B5
:102BC000E5FA10BD10B500240B48007840B900218B
:102BD000204600F08DF9C4B201200749087004E0D6
:102BE0000121204600F084F9C4B2224603210020CE
:102BF00000F0CCFA10BD00003C000020FEF74EF9BA
:102C0000FFF753FBFFF788FAFFF714FBFFF7DAFA39
:102C1000FDF776FC012204212E48FEF727F92E4805
:102C2000006840686FF020002B49096808606FF069
:102C30004000294909680860012228492648FFF711
:102C4000A1F92548FDF73CFD00F0F2F92448FEF714
:102C5000F7FDFDF781FB10B10120224908702148E2
:102C6000007840B9FDF75AFB28B900201E490870CA
:102C700001201C4908701B48007890B94FF4FA6491
:102C8000FEF7FAF8054605E000F0E8F91548007887
:102C900000B104E0FEF7F0F8401BA042F4D300BFFF
:102CA00000BF1048007820B9FDF738FB08B1FDF7E8
:102CB0002DFC0DE000F0D2F90C48007840B10C4832
:102CC000007818B100200949087001E000F06EF8A2
:102CD000F0E70000000801409801002050000020AB
:102CE00050010020000000200800002010000020FB
:102CF0003900002070B505460C4600261A480078B9
:102D0000012800D170BD2946304600F0F1F8064692
:102D10000221304600F0ECF806460021304600F073
:102D2000E7F806460421304600F0E2F80646210E98
:102D3000304600F0DDF80646C4F30741304600F0A7
:102D4000D7F80646C4F30721304600F0D1F806460E
:102D5000E1B2304600F0CCF80646324603210720A7
:102D600000F014FA0120CDE7380000202DE9F041F1
:102D700004460D4616466EB1074805EB000832467C
:102D800021464046FFF7B6F9074617B10020BDE8D7
:102D9000F08100BF0120FAE70040000810B50346AB
:102DA0000C461846FFF745FD10BD000010B5002089
:102DB0000349087000220321042000F0E7F910BD48
:102DC0003900002030B595B00024002012901390F7
:102DD00014906846FDF74AFC9DF8040010B90120E4
:102DE0008DF80400BDF80630DAB29DF805109DF8A4
:102DF000040012ABFDF7BCFB26A000F0C3F885B2BF
:102E00002A4624A1204600F05FF8C4B223A000F0B7
:102E1000B9F885B22A4621A1204600F055F8C4B27F
:102E200023A000F0AFF885B22A4621A1204600F089
:102E30004BF8C4B212A800F0A5F885B22A4612A930
:102E4000204600F041F8C4B21BA000F09BF885B208
:102E50002A4619A1204600F037F8C4B218A000F0A5
:102E600091F885B22A4616A1204600F02DF8C4B28A
:102E700014A000F087F885B22A4612A1204600F07F
:102E800023F8C4B222460321012000F07FF915B0D7
:102E900030BD00007B2270223A220000666E6C6F0B
:102EA00069316E696F39367A6D6D656200000000B8
:102EB000222C2276223A2200222C226D223A000075
:102EC000320000007D0000002DE9F04104460E466E
:102ED0001546064807192A463146384600F030F8AC
:102EE000601984B22046BDE8F08100006C04002027
:102EF000024B1A181170431C98B270476C040020E2
:102F000000200C4909680C4A1268914210D0094906
:102F10000A680A498A4203D3A1F23311054A1160B3
:102F200004490968087803490968491C014A116085
:102F300070470000340000203000002066040020AC
:102F4000F0B505460E4613462A46344605B10EB97D
:102F50000020F0BDA24202D9E018904208D2002120
:102F600003E0605C5054481C81B29942F9DB07E0F1
:102F7000194603E0481E275C175481B20029F9DC8A
:102F80002846E6E70146002209B9002070470022E2
:102F900000E0521C11F8013B002BFAD11046F5E776
:102FA00013490968134A1268891A01291ED0114968
:102FB00009680F4A1268914207D90E4909680C4AFC
:102FC0001268891AB1F5997F10D80A490A680A4926
:102FD0008A4203D3A1F23311064A116005490968F8
:102FE000087004490968491C024A116070470000D2
:102FF00034000020300000206604002001B54FF0AE
:10300000FF33012269460248FEF7ECFF08BD0000CD
:103010009801002070B50446002521462846FFF798
:1030200067FF05462A4603210A2000F0AFF870BD6D
:1030300005480649086006490860002005490870EF
:10304000FF2005490870704733030020300000203E
:1030500034000020380000203B00002070B5002420
:10306000002509E0FFF74CFF3A490A880988491C06
:10307000384B19803849885436480088B0F5997F14
:1030800003D800F0A7F80028ECDC324800880728B5
:1030900000DA70BD46E03048005D552802D0601C63
:1030A00084B23FE02C49601C085CAA2802D0601C56
:1030B00084B237E02849A01C085C10B1A01C84B27F
:1030C00030E02549201D085C4FF6FF7101EA00251C
:1030D0002149601D085CC01D284485B2B5F59D7F5F
:1030E00005D91E481E4908601E4908601FE019489E
:1030F0000088001BA84200DA19E06A1E91B2164A45
:103100001019FFF730FD6119491E134A515C8842BE
:1031100002D0E01C84B205E02046FFF797FB60195F
:1031200084B200BF0B480088001B0728B3DA00BF39
:1031300008480088001B07490880084600880028C6
:1031400006DD05480119034802880348FFF7F8FE29
:1031500000BF9EE72C000020000200203303002067
:10316000340000203000002070B504460D4604B144
:1031700005B970BD03E02078FFF740FF641C281EEE
:10318000A5F101018DB2F6D100BFF2E72DE9F041C2
:1031900005460E461446002755200D490870AA2002
:1031A000487008468670C570201208714C71E01D89
:1031B00084B2601E81B20648FFF7D5FC0746601E48
:1031C00003490F5421460248FFF7CEFFBDE8F081C6
:1031D000660400200448006804490968884201D058
:1031E000012070470020FCE7300000203400002060
:1031F00002030405060708090A0B0C0D0E0F101038
:1032000001020000000000000000010203040607A4
:1032100008090000000001020304650266020000C4
:103220004032000800000020500000002801000883
:103230009032000850000020B00A0000440100084D
:103240000000000000006400010000000000000019
:10325000000000000000000010000000010000005D
:1032600000127A00000000000000000000000000D2
:10327000000000000000000000000000000000004E
:10328000000000000000000000000000000000003E
:04000005080000ED02
:00000001FF
