:020000040800F2
:10000000F80E002091010008452000083D1F00085F
:10001000412000083D0D0008892400080000000070
:100020000000000000000000000000005D2100084A
:10003000C10D00080000000049200008252200082A
:10004000AB010008AB010008AB010008AB010008E0
:10005000AB010008AB010008AB010008AB010008D0
:10006000AB010008AB010008AB010008AB010008C0
:10007000AB010008AB010008AB010008AB010008B0
:10008000AB010008AB010008AB010008AB010008A0
:10009000AB010008AB010008AB010008AB01000890
:1000A000AB010008AB010008AB010008AB01000880
:1000B000AB010008AB010008AB010008AB01000870
:1000C000AB010008AB010008AB010008AB01000860
:1000D000AB010008AB010008AB010008AB01000850
:1000E000AB010008AB010008AB01000800F002F80A
:1000F00000F03FF80AA090E8000C82448344AAF183
:100100000107DA4501D100F034F8AFF2090EBAE880
:100110000F0013F0010F18BFFB1A43F0010318473B
:10012000882C0000A82C0000103A24BF78C878C1A1
:10013000FAD8520724BF30C830C144BF04680C60ED
:10014000704700000023002400250026103A28BF35
:1001500078C1FBD8520728BF30C148BF0B60704739
:10016000642900F09780002070471FB51FBD10B5AF
:1001700010BD00F00AFA1146FFF7F7FF02F0C2F9CE
:1001800000F028FA03B4FFF7F2FF03BC00F030FAE6
:100190000948804709480047FEE7FEE7FEE7FEE71B
:1001A000FEE7FEE7FEE7FEE7FEE7FEE70448054957
:1001B000054A064B7047000093220008ED00000836
:1001C000F8080020F80E0020F80A0020F80A0020A5
:1001D000B2F120030AD5C2F1200320FA02F001FA9D
:1001E00003F321FA02F140EA0300704721FA03F019
:1001F0004FF00001704700000FB41CB50C0007AAB7
:10020000009001D02044401E074B7B44694601907A
:10021000069800F09AF9002C03D06946002000F0FF
:10022000A7F91CBC5DF814FB6D0300002DE9F0413B
:100230000E460446002020622046E168884730B31D
:10024000252805D0D4E901219047206A401CF2E717
:10025000E168204600278847050018D0A5F1410035
:10026000192802D820354FF4006732462946204627
:100270002760FFF775FF40B1012804D0F61D26F076
:1002800007060836D8E7361DD6E72846DAE7206A9B
:10029000BDE8F0812DE9F04106460024106875297B
:1002A000314616A510D0AFF30080002802DA404294
:1002B00013A507E031688A0701D512A502E04907B6
:1002C00004D511A5012401E0AFF3008000210A222A
:1002D00006F1240709E0B0FBF2FCB0FBF2F302FBED
:1002E0001C00303078541846491C0028F3D12346AE
:1002F0002A463046BDE8F04100F0C8B800000000D2
:100300002D0000002B0000002000000010B5431C51
:1003100002E010F8011B71B18107FAD14FF00132F0
:1003200002C88C1A8C4314EAC211F9D0C01A0A060A
:1003300003D0C01E10BDC01A10BD0A0401D0801E1B
:1003400010BD0902FCD0401E10BD032A40F23080CF
:1003500010F0030C00F0158011F8013BBCF1020F06
:10036000624498BF11F801CB00F8013B38BF11F887
:10037000013BA2F1040298BF00F801CB38BF00F89E
:10038000013B11F0030300F02580083AC0F008801B
:1003900051F8043B083A51F804CBA0E80810F5E7FF
:1003A000121D5CBF51F8043B40F8043BAFF30080E2
:1003B000D20724BF11F8013B11F801CB48BF11F857
:1003C000012B24BF00F8013B00F801CB48BF00F827
:1003D000012B704710B5203AC0F00B80B1E81850DF
:1003E000203AA0E81850B1E81850A0E81850BFF41F
:1003F000F5AF5FEA027C24BFB1E81850A0E81850BE
:1004000044BF18C918C0BDE810405FEA827C24BF11
:1004100051F8043B40F8043B08BF7047D20728BF9F
:1004200031F8023B48BF11F8012B28BF20F8023BEE
:1004300048BF00F8012B70474FF0000200B513468B
:1004400094469646203922BFA0E80C50A0E80C50F4
:10045000B1F12001BFF4F7AF090728BFA0E80C50A5
:1004600048BF0CC05DF804EB890028BF40F8042B9E
:1004700008BF704748BF20F8022B11F0804F18BF0B
:1004800000F8012B70477047704770472DE9F0471F
:100490000D4699469246044600F1240801688806F4
:1004A00004D5E06921F01001216000E00120A8429C
:1004B00001DD471B00E00027A1697A1902EB090062
:1004C000081AA0612078C00602D42046AFF300804D
:1004D000002608E0D4E901211AF806009047206AB6
:1004E000401C761C20624E45F4DB2078C0060AD5FD
:1004F0002046AFF3008006E0D4E901213020904788
:10050000206A401C2062381EA7F10107F4DC07E0D6
:10051000D4E9012118F805009047206A401C2062A8
:10052000281EA5F10105F3DC2046AFF300802078FA
:10053000000602D50220BDE8F0870120FBE700009D
:1005400001694A1C02610878704700B58FB0CDE997
:1005500001310021059105497944CDE90310114687
:100560006846FFF763FE0FB000BD0000E5FFFFFF28
:100570000A6802F8010B0A607047D1E900239A4229
:1005800002D2531C0B6010707047754600F02CF8B7
:10059000AE4605006946534620F00700854618B070
:1005A00020B5FFF703FEBDE820404FF000064FF0F6
:1005B00000074FF000084FF0000B21F00701AC4698
:1005C000ACE8C009ACE8C009ACE8C009ACE8C009B7
:1005D0008D46704710B50446AFF300802046BDE855
:1005E0001040FFF7CFBD000000487047980800207A
:1005F00001491820ABBEFEE726000200704700004C
:1006000030B503460C464FF0FF31002208E0985CFD
:100610004840C0B2044D55F8200080EA1121521C18
:10062000A242F4D3C84330BD642900080A480268D6
:1006300041680A4882420DD3094882420AD20648DC
:10064000814207D30748814204D201F0010008B17A
:10065000012070470020FCE7004000080010002047
:100660000050002000FC0008044801680448814252
:1006700001D1012070470020FCE7000000FC0008C9
:1006800055AA55AA00B585B00020009000F034FDB1
:10069000002001900548039001200490694601A8BC
:1006A00000F070FC00F0C6FC05B000BD00FC0008C6
:1006B000024602B111B96FF00100704710790B7951
:1006C000984201DD0120F8E710790B79984202DAAF
:1006D0004FF0FF30F1E750794B79984201DD01206E
:1006E000EBE750794B79984202DA4FF0FF30E4E7BC
:1006F000D088CB88984201DD0120DEE7D088CB8806
:10070000984202DA4FF0FF30D7E790688B68984242
:1007100001D90120D1E790688B68984202D24FF04E
:10072000FF30CAE7D068CB68984201D90120C4E7FE
:10073000D068CB68984202D24FF0FF30BDE700206E
:10074000BBE700002DE9F04385B004460E460020CB
:100750000090B4F1006F03D31848844200D21EB950
:10076000052005B0BDE8F0831548844201D205207C
:10077000F7E7204600F0DAFB0746A119481E00F013
:10078000D5FB8046A8EB070000F1010900F0B4FC9E
:1007900005460DB10220E4E7002001900394CDF856
:1007A0001090694601A800F0EDFB054600F042FC00
:1007B0000DB10220D5E70020D3E7000000000108BA
:1007C0000040000810B503460C46B3F1006F04D397
:1007D0000748834201D204B10AB9052010BD0021A7
:1007E00002E0585C6054491C9142FAD30020F5E7BE
:1007F000000001082DE9F84F05468B469046A946B2
:10080000C2465C463148854208D33148854205D20C
:10081000BBF1000F02D0B8F1000F02D10520BDE8F6
:10082000F88F05EB08002A49884201D90520F6E730
:1008300000F062FC06460EB10220F0E724E02078CA
:10084000617840EA0120A17840EA0140E17840EA7D
:1008500001600090002349460220009A00F0F4FB5A
:1008600006461EB100F0E6FB0220D8E7D9F80000EA
:100870000099884203D000F0DDFB0320CFE709F1A7
:100880000409241DAAF1040ABAF1040FD7D2BAF15F
:10089000000F16D04FF0FF300090002703E0E05D1E
:1008A0000DF807007F1C5745F9D300234946022065
:1008B000009A00F0C9FB06461EB100F0BBFB022007
:1008C000ADE700F0B7FB0020A9E7000000400008FA
:1008D00000FC000810B54FF0FF31084A09E013781A
:1008E00081EA0300C0B2064C54F8200080EA1121CE
:1008F000521C04488242F2D3C84310BD0040000895
:100900006429000800FC000810B5044694B10120D9
:10091000207000206070A0704FF480406060064836
:10092000A0604FF43C40E06004A2102104F11000EC
:10093000FFF762FC10BD00000040000853544D3327
:100940003246313033433800002001490870704787
:10095000180000200449054A0868904201D0002090
:1009600070470120FCE7000000FD00085256574682
:1009700070B5FFF75BFE18B372B600204FF0E021B0
:1009800008614861886100BF09E04FF0FF320D49FE
:1009900041F820200C4941F82020411CC8B2082809
:1009A000F3DB00F0C9FA09484468254601460868A7
:1009B00080F3088800BF08460549086062B6A8476A
:1009C00070BD000080E100E080E200E0004000082F
:1009D00008ED00E070B505460DB9052070BD074C67
:1009E00007492068884201D00120F7E748222146C4
:1009F0002846FFF7EFFC0020F0E7000000FD0008AC
:100A0000525657462DE9F04385B006460020009027
:100A10003746DFF88C804FF048091EB9052005B035
:100A2000BDE8F0831F48306000F066FB04460CB15F
:100A30000220F4E70020019019480390012004905F
:100A4000694601A800F09EFA04461CB100F0F2FAD3
:100A50000220E4E700251AE057F825C0624600238B
:100A60004146022000F0F0FA04461CB100F0E2FA20
:100A70000220D4E7D8F8000057F82510884203D0A8
:100A800000F0D8FA0320CAE708F104086D1C09F148
:100A90000300B5EB900FDFD300F0CCFA0020BEE7E7
:100AA00000FD00085256574610B500F025FB054AD8
:100AB00000230549022000F0C7FA044600F0BAFA04
:100AC00010BD000055AA55AA00FC000801490860A5
:100AD000704700001C000020F0B59BB000268A483B
:100AE000006808B91BB0F0BD87480068006800B90D
:100AF000F8E78548006890F8410000B9F2E78348BC
:100B000001F0B8FA00B1EDE780480078A0380B2872
:100B100072D2DFE800F08C1F358106106B599EB150
:100B2000C30013A8FFF7F0FE202313AA0021A4207E
:100B300001F016FBE4E001F013FA04460CB10120C9
:100B400000E00020064600231A463146A52001F0A9
:100B500007FBD5E06D494A884868083101F022FA60
:100B600004460CB9002604E0022C01D1032600E063
:100B7000012600231A463146A12001F0F1FABFE018
:100B800062484088B0F5806F17DC60494A88486841
:100B90000831FFF717FE044644B95C48438800F16A
:100BA00008020021A22001F0DBFA0CE000231A4623
:100BB0000121A22001F0D4FA05E000231A46052104
:100BC000A22001F0CDFA9BE050488568284601F04C
:100BD000DDF904460CB9002000E00220064600239F
:100BE0001A463146A72001F0BBFA89E001F0A8F9C6
:100BF000044614B1012001E07AE0002006460023FB
:100C00001A463146A62001F0ABFA24B9C82000F0FC
:100C1000A5F901F057FC73E000231A461946A320FA
:100C200001F09EFAC82000F099F901F04BFC374A18
:100C300051885068FFF786FD04460CB9002000E09B
:100C40000320064600231A463146A02001F088FA08
:100C500056E001A8FFF7BEFE044634B9482301AAB6
:100C60000021A82001F07CFA05E000231A460121AA
:100C7000A82001F075FA43E0244D08352846FFF717
:100C8000C1FE04460CB1012000E00020064600230E
:100C90001A463146A92001F063FA31E01B4F0837AC
:100CA00001A8FFF797FE044664B101208DF800000B
:100CB00000208DF8010002236A460021AA2001F0DD
:100CC0004FFA14E001A93846FFF7F2FC0546002D63
:100CD00001DD012000E000208DF80000E8B28DF871
:100CE000010002236A460021AA2001F039FA07E038
:100CF0000649087800231A46042101F031FA00BFA2
:100D000000BF00BFEEE600001C00002088000020AD
:100D100070B504460848006860B15CB12046FFF732
:100D2000F5FA85B241F288332A4621460248006826
:100D300001F0A5F870BD00001C00002000BFFEE718
:100D400030B5ADF2B44D04460025227829466D1C1D
:100D500001A84254A27829466D1C42546088020AB8
:100D600029466D1C01A84254227929466D1C425423
:100D7000A088C0F3072229466D1C01A84254606870
:100D8000C0F3074229466D1C01A842546068010E59
:100D90002A466D1C01A881546088002809DD6288FC
:100DA00001A9481904F10801FFF7CFFA6088284427
:100DB00085B2294601A8FFF723FC0DF2B44D30BDE2
:100DC000704772B600BFFEE70021074AD1610749AC
:100DD000096941F00401054A11611146096941F0B0
:100DE00040011161704700006800002000200240AF
:100DF0000021074AD1610749096941F00201054A0A
:100E0000116111464861096941F040011161704763
:100E100068000020002002400022054BDA61054AEC
:100E2000126942F00102034B1A6101807047000011
:100E3000680000200020024000201E49C96801F01F
:100E4000100139B11C49C96941F002011A4AD16146
:100E500040F010001749C96801F0040139B1164982
:100E6000C96941F00101144AD16140F004001149FF
:100E7000C96901F0010169B10F49C96941F0040173
:100E80000D4AD16100BF0B49C96921F00101094A2E
:100E9000D16100BF00BF40F20111884206D105496F
:100EA000C96921F00101034AD16101E00149C8602B
:100EB00000BF7047002002406800002070B5044663
:100EC00000F0C2FA054609E0601C38B124B100F018
:100ED000BBFA401BA04201D9032070BD1248C06874
:100EE00000F001000028EFD10F48C06800F020009A
:100EF00020B100BF20200C49C86000BF0A48C0686C
:100F000000F0100048B90848C06900F0010020B99D
:100F10000548C06800F0040018B1FFF78DFF0120FC
:100F2000DBE70020D9E70000002002400146A1F1E4
:100F30000060800A7047000010B54FF0FF3006498E
:100F4000086100200861401EC8600020C86000F0F1
:100F5000C7FA002010BD00000010024070B5044622
:100F600000F072FA06462546681C10B10448007865
:100F7000054400BF00F068FA801BA842FAD370BD98
:100F8000100000202DE9F04104460E4601270025FF
:100F900000BF2648007E012802D10220BDE8F08172
:100FA00001202249087600BF2068022813D14CF2A4
:100FB0005030FFF783FF90BB0120FFF705FF4CF295
:100FC0005030FFF77BFF07461948006920F0040006
:100FD0001749086123E04CF25030FFF76FFFF0B97A
:100FE0004FF0FF303060A56812E02846FFF700FFA1
:100FF0004CF25030FFF762FF07460D48006920F0C1
:1010000002000B4908610FB1356007E005F5806506
:10101000D4E9021001EB8020A842E6D800BF00BF4F
:1010200000200249087600BF3846B7E76800002074
:10103000002002400348006940F080000149086137
:1010400000207047002002402DE9FE4F05468B46E8
:1010500017469846012600240020029000BF24482D
:10106000007E012802D10220BDE8FE8F0120204928
:10107000087600BF4CF25030FFF720FF064686BBD3
:10108000012D02D10120029006E0022D02D10220A2
:10109000029001E00420029000241EE02201B946E3
:1010A000C24648465146FFF793F880B201900220AD
:1010B00000FB04B000900199FFF7AEFE4CF25030F7
:1010C000FFF7FCFE06460B48006920F001000949C5
:1010D000086106B104E0601CC4B202988442DDDB02
:1010E00000BF00BF00200249087600BF3046BBE7C2
:1010F000680000200020024000200849096901F032
:10110000800151B10649054A5160064951601146B6
:10111000096901F0800101B10120704700200240FF
:1011200023016745AB89EFCD2DE9F847034600223F
:1011300094466EE14FF0010808FA02F4D1F80080FD
:1011400008EA0400A0427DD1DFF8DCA2D1F80480D7
:10115000A8EB0A09D0453AD014DCB8F1030F50D0FF
:1011600009DCB8F1000F31D0B8F1010F1CD0B8F193
:10117000020F49D120E0B8F1110F18D0B8F1120FC9
:1011800042D11EE0B9F5881F25D006DCB9F5803FB5
:1011900020D0B9F5801F37D11AE0B9F5001F18D05B
:1011A000B9F5041F30D117E0D1F80CC02DE0D1F80B
:1011B0000C8008F1040C28E0D1F80C8008F1080C30
:1011C00023E0D1F80C8008F10C0C1EE000BF00BF3A
:1011D00000BF00BF00BF00BFD1F80880B8F1000F0A
:1011E00002D14FF0040C0BE0D1F80880B8F1010FE8
:1011F00003D14FF0080C1C6102E04FF0080C5C6159
:1012000003E04FF0000C00E000BF00BFFF2801D852
:10121000984601E003F104084646FF2802D84FEA49
:10122000820803E0A2F108084FEA88084746D6F88A
:1012300000804FF00F0909FA07F928EA09080CFAAB
:1012400007F900E088E048EA0908C6F80080D1F80C
:10125000048008F08058B8F1805F7DD100BFDFF8CE
:10126000CC81D8F8188048F00108DFF8C091C9F89F
:101270001880C846D8F8188008F00108CDF800801A
:1012800000BF00BF4FEAB9384FEA920958F8295019
:101290004FEA82784FEA18794FF00F0808FA09F8F8
:1012A00025EA0805DFF88881434502D14FF00008A0
:1012B00016E0DFF88081434502D14FF001080FE0CE
:1012C000DFF87481434502D14FF0020808E0DFF8EF
:1012D0006C81434502D14FF0030801E04FF0040850
:1012E0004FEA82794FEA197908FA09F848EA0505C0
:1012F000DFF84C814FEA920948F82950D1F8048070
:1013000008F48018B8F5801F0AD1DFF83881D8F8C2
:10131000008048EA0008DFF82C91C9F8008009E055
:10132000DFF82081D8F8008028EA0008DFF814915F
:10133000C9F80080D1F8048008F40018B8F5001F3F
:1013400010D1DFF8008108F10408D8F8008048EADD
:101350000008DFF8F09000E05AE009F10409C9F84C
:1013600000800DE0DFF8DC8008F10408D8F8008088
:1013700028EA0008DFF8CC9009F10409C9F80080D8
:10138000D1F8048008F40038B8F5003F0ED1DFF83A
:10139000B480A8F10408D8F8008048EA0008DFF813
:1013A000A490A9F10409C9F800800DE0DFF8948049
:1013B000A8F10408D8F8008028EA0008DFF8849033
:1013C000A9F10409C9F80080D1F8048008F4803834
:1013D000B8F5803F0ED1DFF86C80A8F10808D8F886
:1013E000008048EA0008DFF85C90A9F10809C9F814
:1013F00000800DE0DFF84C80A8F10808D8F80080E4
:1014000028EA0008DFF83C90A9F10809C9F8008033
:10141000521CD1F8008028FA02F8B8F1000F7FF4CE
:1014200089AEBDE8F88700000000111000100240EE
:1014300000080140000C0140001001400014014070
:10144000080001400804014001480068704700009E
:10145000080000200348006803490978084401494E
:1014600008607047080000201000002010B50848F0
:10147000006840F0100006490860032000F09AF868
:101480000F2000F007F800F02DF8002010BD00003C
:101490000020024070B504460E4800784FF47A717F
:1014A000B1FBF0F00C490968B1FBF0F5284600F0FB
:1014B000EBFB08B1012070BD102C07D200222146A1
:1014C000501E00F039F80548046001E00120F2E701
:1014D0000020F0E710000020140000200C00002085
:1014E0007047000008B500BF1148806940F0010056
:1014F0000F4988610846806900F00100009000BF34
:1015000000BF00BF0846C06940F08050C86108466F
:10151000C06900F08050009000BF00BF00BF0549C7
:10152000486820F0E06040F00070486000BF08BDEF
:1015300000100240000001402DE9F05F80460D469A
:101540001646002700F0A2FF074639462A463346D2
:1015500001F00700C0F1070ABAF1040F02D94FF0F9
:10156000040A01E0C0F1070AD14600F1040ABAF109
:10157000070F02D24FF0000A01E0A0F1030AD4469F
:101580004FF0010A0AFA09FAAAF1010A0AEA020A64
:101590000AFA0CFA4FF0010B0BFA0CFBABF1010B42
:1015A0000BEA030B4AEA0B042146404600F076FFA3
:1015B000BDE8F09F00BF00F00702064B19684FF628
:1015C000FF031940044B0B4343EA0221014B19600E
:1015D00000BF70470CED00E00000FA0570B504464E
:1015E0000D460CB9012070BD5A48006800F0070094
:1015F000A8420ED25748006820F0070028435549FA
:1016000008600846006800F00700A84201D00120E9
:10161000E9E7207800F0020002281DD1207800F0D0
:101620000400042805D14C48406840F4E0604A4971
:101630004860207800F00800082805D14648406836
:1016400040F46050444948604348406820F0F0004E
:10165000A168084340494860207800F0010078B351
:101660006068012806D13C48006800F4003090B959
:101670000120B8E76068022806D13748006800F00A
:10168000007040B90120AEE73348006800F0020066
:1016900008B90120A7E73048406820F003006168DE
:1016A00008432D494860FFF7CFFE064609E0FFF7E3
:1016B000CBFE801B41F28831884202D9032092E799
:1016C00007E02548406800F00C006168B0EB810F2E
:1016D000EDD12048006800F00700A8420ED91D484F
:1016E000006820F0070028431A490860084600688F
:1016F00000F00700A84201D0012074E7207800F034
:101700000400042807D11448406820F4E060E16830
:10171000084311494860207800F00800082808D1E3
:101720000D48406820F46050216940EAC1000A4930
:10173000486000F03FF808494968C1F30311074ABF
:10174000515CC8400649086006480068FFF7A2FEE1
:10175000002048E700200240001002404A2900080B
:10176000140000200C0000200148006870470000B1
:101770001400002000B5FFF7F7FF04494968C1F3E2
:101780000221034A515CC84000BD00000010024025
:101790005A29000800B5FFF7E7FF04494968C1F37B
:1017A000C221034A515CC84000BD00000010024045
:1017B0005A29000870B500210022002400230020CF
:1017C000134D696801F00C05F5B1042D02D0082D08
:1017D00019D101E00F4819E00F4DC1F38346AB5D0D
:1017E00001F4803555B10A4D6D68C5F340450B4E87
:1017F000725D084D5D43B5FBF2F402E0084D03FB5A
:1018000005F4204602E000BF024800BF00BF70BDE3
:101810000010024000127A00382900084829000808
:1018200000093D00F8B504460CB90120F8BD207848
:1018300000F00100002878D0F848406800F00C0063
:1018400004280CD0F548406800F00C00082811D19D
:10185000F248406800F48030B0F5803F0AD1EF488C
:10186000006800F4003000285FD0606800285CD178
:101870000120DBE700BF6068B0F5803F06D1E74894
:10188000006840F48030E549086028E0606858B995
:10189000E248006820F48030E049086008460068AB
:1018A00020F4802008601AE06068B0F5A02F0BD10A
:1018B000DA48006840F48020D8490860084600688B
:1018C00040F4803008600AE0D448006820F480309A
:1018D000D24908600846006820F48020086000BFF4
:1018E000606888B1FFF7B0FD054606E0FFF7ACFD84
:1018F000401B642801D9032098E7C848006800F419
:1019000000300028F2D010E0FFF79EFD054606E00B
:10191000FFF79AFD401B642801D9032086E7BF48E2
:10192000006800F400300028F2D1207800F00200B6
:10193000022857D1B948406800F00C0050B1B748B0
:10194000406800F00C00082818D1B448406800F442
:10195000803098B9B148006800F0020020B12069D9
:10196000012801D0012061E7AC48006820F0F800B0
:10197000616940EAC100A949086033E02069E8B123
:101980000120A7490860FFF75FFD054606E0FFF765
:101990005BFD401B022801D9032047E79F480068F0
:1019A00000F002000028F2D09C48006820F0F80007
:1019B000616940EAC1009949086013E00020984934
:1019C0000860FFF741FD054606E0FFF73DFD401BBF
:1019D000022801D9032029E79048006800F002009E
:1019E0000028F2D1207800F0080008282DD1A06945
:1019F000B8B101208B490860FFF726FD054606E0D7
:101A0000FFF722FD401B022801D903200EE783487F
:101A1000406A00F002000028F2D0012000F016FB1E
:101A200013E000207F490860FFF70EFD054606E041
:101A3000FFF70AFD401B022801D90320F6E677488C
:101A4000406A00F002000028F2D1207800F0040083
:101A5000042873D100277148C06900F0805070B924
:101A600000BF6E48C06940F080506C49C8610846AC
:101A7000C06900F08050009000BF00BF01276A4895
:101A8000006800F48070B0B96748006840F4807066
:101A900065490860FFF7D8FC054606E0FFF7D4FC6F
:101AA000401B642801D90320C0E65F48006800F4A9
:101AB00080700028F2D000BFE068012806D15748A6
:101AC000006A40F001005549086227E0E06858B913
:101AD0005248006A20F00100504908620846006A36
:101AE00020F00400086219E0E06805280BD14B489B
:101AF000006A40F00400494908620846006A40F064
:101B0000010008620AE04548006A20F001004349EC
:101B100008620846006A20F00400086200BFE0681E
:101B2000A0B1FFF791FC054609E0FFF78DFC401BD3
:101B300041F28831884202D9032077E622E0374813
:101B4000006A00F002000028EFD012E0FFF77CFCF2
:101B5000054608E0FFF778FC401B41F288318842D7
:101B600001D9032062E62D48006A00F00200002837
:101B7000F0D1012F05D12948C06920F080502749B4
:101B8000C86100BFE069C8B32448406800F00C0099
:101B9000082860D0E069022848D100202049086662
:101BA000FFF752FC054606E0FFF74EFC401B0228FB
:101BB00001D903203AE61948006800F000700028B7
:101BC000F2D1206AB0F5803F07D11448406820F474
:101BD0000030A168084311494860D4E9080108436E
:101BE0000E49496821F4741108430C4948600120EA
:101BF0000B490866FFF728FC054607E03DE0FFF7C4
:101C000023FC401B022801D903200FE6034800688B
:101C100000F000700028F2D02FE000000010024019
:101C200000004242800442420070004000201449FB
:101C30000866FFF709FC054606E0FFF705FC401BB8
:101C4000022801D90320F1E50E48006800F0007079
:101C50000028F2D111E0E069012800D1E6E5094849
:101C6000466806F48031206A814204D106F470117E
:101C7000606A814201D00120D8E50020D6E500004D
:101C8000000042420010024070B504462546681E1E
:101C9000B0F1807F01D301200FE0681E4FF0E021FA
:101CA00048610F214FF0FF3000F0F8FB00204FF0AB
:101CB000E021886107200861002070BD10B504464E
:101CC0000CB9012010BDA06900B100E000BF94F87C
:101CD000410028B9002084F84000204600F02AF88E
:101CE000242084F841002068C06820F40050216856
:101CF000C860204600F004FB2068006920F4904092
:101D0000216808612068406920F02A002168486144
:101D10002068C06840F400502168C86000206064FA
:101D2000202084F8410084F842000020606300BF56
:101D3000C8E7000010B586B004460020029003906A
:101D4000049005901A49206888422ED100BF194896
:101D5000806940F48040174988610846806900F432
:101D60008040019000BF00BF00BF0846806940F07E
:101D7000040088610846806900F00400019000BFFB
:101D800000BF48150290022003900320059002A98D
:101D90000948FFF7C9F94FF48060029000200390D2
:101DA000049002A90448FFF7BFF906B010BD000077
:101DB0000038014000100240000801402DE9F84FB2
:101DC00004460E46174699464FF0000A94F8420022
:101DD000202852D106B117B90120BDE8F88F0020A4
:101DE0006064222084F8420000202063FFF72CFB6F
:101DF0008246A785E785A068B0F5805F04D1206999
:101E000010B90025B04602E035464FF000082CE03E
:101E10005346002220212046CDF8009000F0EEFA33
:101E200020B1202084F842000320D6E745B920687D
:101E30004068C0F30800A8F8000008F1020811E0AB
:101E4000A068B0F5805F03D0A06828B9206918B9F0
:101E500020684068287004E02068406800F07F0037
:101E600028706D1CE08D401EE085E08D0028CFD1EC
:101E7000202084F842000020AFE70220ADE72DE9E2
:101E8000F84F04460E46174699464FF0000A94F85C
:101E90004100202850D106B117B90120BDE8F88FC4
:101EA00000206064212084F84100FFF7CDFA8246CB
:101EB000A784E784A068B0F5805F04D1206910B9D9
:101EC0000025B04602E035464FF000081EE05346BC
:101ED000002280212046CDF8009000F08FFA20B13A
:101EE000202084F841000320D8E745B9B8F8000065
:101EF000C0F308002168486008F1020803E0287870
:101F0000216848606D1CE08C401EE084E08C002855
:101F1000DDD15346002240212046CDF8009000F04C
:101F20006DFA20B1202084F841000320B6E720207C
:101F300084F841000020B1E70220AFE700BFFEE7D0
:101F400010B5002005490870FEF770FB08B906209F
:101F500010BDFEF797FB0020FAE7000018000020F4
:101F600010B54FF43C410748FEF7ECFB04460CB1BA
:101F7000204610BD012004490870FEF795FD0020A1
:101F8000F7E70000004000081800002030B50446C4
:101F9000FEF7A0FC0546A54201D0032030BD00207D
:101FA000FCE7000070B504460D461646054800786B
:101FB00008B9012070BD324629462046FEF71AFCBA
:101FC000F8E700001800002008B500BF0D48806940
:101FD00040F020000B4988610846806900F020002D
:101FE000009000BF00BF00BF0846806940F00400B9
:101FF00088610846806900F00400009000BF00BFBF
:1020000008BD00000010024010B50B480B490860E5
:102010004FF4E1304860002108488160C1600161EF
:102020000C21416100218161C161FFF747FE08B1C8
:10203000FEF7C7FE10BD0000003801402000002060
:1020400000BFFEE700BFFEE77047000008B5084983
:102050000968C9084FF47A72B1FBF2F1414300916B
:1020600000BF00BF00994A1E00920029F9D108BDA7
:10207000140000207CB504463648006808B90120E9
:102080007CBD4FF0FF33022201A93348FFF796FED3
:1020900005462DB9BDF804004AF65521884201D005
:1020A0000120EDE741F288330122214629480068EA
:1020B000FFF784FE05460DB10120E1E741F28833C8
:1020C0000222A11C23480068FFF778FE05460DB1E7
:1020D0000120D5E741F288330422211D1D48006804
:1020E000FFF76CFE05460DB10120C9E760880028A6
:1020F00012DD6088B0F5806F01D90120C0E76288E9
:1021000041F2883304F1080112480068FFF756FED7
:1021100005460DB10120B3E741F288330422694638
:102120000C480068FFF74AFE05460DB10120A7E7FD
:102130002046FEF705FE06460098B04207D02078FC
:1021400000231A46022100F00BF8012098E7002036
:1021500096E700001C0000202000002070470000CF
:102160002DE9FC4106460F4615461C464AF6552009
:1021700001902A48006808B9BDE8FC81284806702B
:10218000601C27494880002048600846077235B126
:10219000002C04DD224629460930FEF7D6F82048F7
:1021A000FEF7CEFD009041F28833022201A91B48C0
:1021B0000068FFF764FE41F288330122184917488E
:1021C0000068FFF75CFE41F2883302221449891C43
:1021D00012480068FFF753FE41F288330422104989
:1021E000091D0E480068FFF74AFE0D484088002888
:1021F00009DD0B48428841F2883300F108010748A5
:102200000068FFF73CFE41F2883304226946034828
:102210000068FFF734FE00BFAEE700001C0000209E
:102220009004002010B5FFF715F910BD00B58FB070
:10223000282105A8FEF700F914216846FEF7FCF8EE
:1022400001200590000406900020079001200990CD
:1022500002200C90C1030D914FF4E0110E9105A8DE
:10226000FFF7E0FA08B1FEF7ACFD0F200090022066
:102270000190002002904FF48060039000200490B1
:1022800002216846FFF7AAF908B1FEF79AFD0FB0E0
:1022900000BD704700BF00BF02680C3252E8002F3B
:1022A00022F4907102680C3242E80013002BF3D143
:1022B00000BF00BF00BF0268143252E8002F22F0B6
:1022C00001010268143242E80013002BF3D100BF71
:1022D000016B01290ED100BF00BF02680C3252E829
:1022E000002F22F0100102680C3242E80013002B8C
:1022F000F3D100BF202180F8421000210163704714
:1023000070B504462168096921F44051E26811431F
:10231000226811612269A1681143626941EA0205DC
:102320002168C96841F20C62914329432268D16057
:102330002168496921F44071A26911432268516101
:102340002D4A2168914202D1FFF724FA01E0FFF7FC
:1023500011FA00EBC00101EB001162689200B1FBC1
:10236000F2F100EBC00202EB001263689B00B2FBCB
:10237000F3F26423B2FBF3F202EBC20303EB0212AB
:10238000A1EB8201322202EB01116422B1FBF2F1D6
:1023900001F0F00100EBC00202EB001263689B0049
:1023A000B2FBF3F26423B2FBF3F201EB021200EB97
:1023B000C00101EB001163689B00B1FBF3F100EB7E
:1023C000C00303EB00136668B600B3FBF6F36426A4
:1023D000B3FBF6F303EBC30606EB0313A1EB830198
:1023E000322303EB01116423B1FBF3F101F00F0180
:1023F00011442268916070BD003801402DE9F84316
:1024000004460D4617469846089E31E0701C70B38E
:10241000FFF71AF8A0EB0800B04200D816B9032065
:10242000BDE8F8832068C06800F00400F8B1802D92
:102430001ED0402D1CD020680068C0F3C000B0B191
:1024400000BF00200090206800680090206840686D
:10245000009000BF00BF2046FFF71CFF082060640B
:1024600000BF002084F8400000BF0120D8E7FFE74C
:10247000206800682840A84201D1012000E0002027
:10248000B842C3D00020CBE700BFFEE70248006897
:10249000C0F30220704700000CED00E010B50028EA
:1024A00004DB0A07130E054A135406E00A07140E4C
:1024B000034A00F00F031B1FD45410BD00E400E0DA
:1024C00018ED00E000BF00BF00BFBFF34F8F00BF9B
:1024D00000BF00BF0948006800F4E06008490843F5
:1024E000001D0649086000BF00BF00BFBFF34F8F4B
:1024F00000BF00BF00BF00BF00BFFDE70CED00E064
:102500000000FA05A4B0FEF7B1FFFFF78FFEFFF75A
:102510005BFDFFF779FDFEF717FA75480068406824
:102520006FF020007249096808606FF04000704940
:10253000096808606E48FEF7C9FA6EA0FEF7E8FB6E
:102540006DA0FEF7E5FB76A0FEF7E2FB7CA0FEF7B0
:10255000DFFB69A0FEF7DCFBFEF786F838B17EA052
:10256000FEF7D6FBFEF78EF80120844908708348F9
:10257000007840B9FEF75AF828B981A0FEF7C8FBE9
:1025800001207E4908707D480078002851D159A06B
:10259000FEF7BEFB80A0FEF7BBFB8DA0FEF7B8FBED
:1025A00047F23054FEF750FF054638E0FEF74CFF87
:1025B0008A490968401AB0F5FA7F06D988A0FEF763
:1025C000A7FBFEF741FF854908600A23012223A9E2
:1025D0004748FFF7F3FBF8B99DF88C00552803D066
:1025E0009DF88C00752809D142A0FEF791FB7DA0D3
:1025F000FEF78EFB01206149087015E09DF88C0004
:10260000AA2809D13BA0FEF783FB7CA0FEF780FB44
:1026100001205A49087007E00A20FEF79FFCFEF7E8
:1026200013FF401BA042C1D300BF32A0FEF770FBD6
:1026300000BF5248007800281BD02EA0FEF768FB90
:1026400074A0FEF765FB81A0FEF762FB71A0FEF7A8
:102650005FFB84A0FEF75CFB26A0FEF759FB88A079
:10266000FEF756FB8B48FEF753FB22A0FEF750FB0C
:102670003AE0FDF7DBFF002830D0FEF76BF908B336
:1026800012A8FEF7A7F9E0B9BDF84E009DF84D106D
:10269000CDE900109DF84C307FA2402102A8FDF743
:1026A000ABFD02A8FEF734FB9DF8600040B180A0AE
:1026B000FEF72EFB18A8FEF72BFB0EA0FEF728FB5B
:1026C00000BF00BF7EA0FEF723FB6420FEF746FCA0
:1026D000FEF74EF981A0FEF71BFB02E089A0FEF792
:1026E00017FB90A0FEF714FB01E0FEF7F5F9FCE7FD
:1026F000200000200D0A00003D3D3D3D3D3D3D3D9B
:102700003D3D3D3D3D3D3D3D3D3D3D3D3D3D3D3DF9
:102710003D3D3D3D3D3D3D3D3D3D3D3D0D0A0000C6
:10272000202053544D33322049415020426F6F7462
:102730006C6F616465722076312E302E300D0A0088
:1027400020204D43553A2053544D333246313033D7
:1027500043380D0A000000005741524E494E473A97
:10276000204C6173742075706461746520696E63B8
:102770006F6D706C657465210D0A0000000000200B
:102780004170706C69636174696F6E20696E766107
:102790006C6964210D0A000050726573732027551F
:1027A0002720746F20656E74657220494150206D3A
:1027B0006F64652C206F72207761697420746F20BC
:1027C00072756E204150502E2E2E0D0A0000000012
:1027D00057616974696E67200000000004000020E2
:1027E0002E00000049415020636F6D6D616E6420C2
:1027F0007265636569766564210D0A004941502060
:102800007061636B657420646574656374656421CD
:102810000D0A00003D3D3D3D3D3D3D3D3D3D3D3DC5
:102820003D3D3D3D3D3D3D3D3D3D3D3D3D3D3D3DD8
:102830003D3D3D3D3D3D3D3D3D3D3D3D3D3D3D3DC8
:102840003D3D3D3D3D3D0D0A000000002020456E10
:10285000746572696E6720494150204D6F64650D43
:102860000A00000057616974696E6720666F722004
:102870006669726D776172652E2E2E0D0A0000005A
:1028800055706C6F616420636F6D6D616E643A0D9D
:102890000A000000642D00084150502056657273F4
:1028A000696F6E3A2025642E25642E25640D0A007A
:1028B0004465736372697074696F6E3A200000003A
:1028C0004A756D70696E6720746F206170706C69F5
:1028D000636174696F6E2E2E2E0D0A004552524FA1
:1028E000523A204A756D7020746F206170706C6967
:1028F000636174696F6E206661696C6564210D0A9D
:10290000000000004552524F523A204170706C69ED
:10291000636174696F6E20696E76616C6964210D04
:102920000A000000456E74657220494150206D6FA9
:1029300064652E2E2E0D0A00020304050607080901
:102940000A0B0C0D0E0F1010010200000000000019
:10295000000001020304060708090000000001024C
:102960000304000000000000963007772C610EEE93
:10297000BA51099919C46D078FF46A7035A563E9D6
:10298000A395649E3288DB0EA4B8DC791EE9D5E0FD
:1029900088D9D2972B4CB609BD7CB17E072DB8E7FC
:1029A000911DBF906410B71DF220B06A4871B9F351
:1029B000DE41BE847DD4DA1AEBE4DD6D51B5D4F48A
:1029C000C785D38356986C13C0A86B647AF962FDEF
:1029D000ECC9658A4F5C0114D96C0663633D0FFA3C
:1029E000F50D088DC8206E3B5E10694CE44160D542
:1029F000727167A2D1E4033C47D4044BFD850DD22C
:102A00006BB50AA5FAA8B5356C98B242D6C9BBDB3E
:102A100040F9BCACE36CD832755CDF45CF0DD6DC39
:102A2000593DD1ABAC30D9263A00DE518051D7C8E0
:102A30001661D0BFB5F4B42123C4B3569995BACF6B
:102A40000FA5BDB89EB802280888055FB2D90CC68C
:102A500024E90BB1877C6F2F114C6858AB1D61C105
:102A60003D2D66B69041DC760671DB01BC20D29824
:102A70002A10D5EF8985B1711FB5B606A5E4BF9FB1
:102A800033D4B8E8A2C9077834F9000F8EA80996A4
:102A900018980EE1BB0D6A7F2D3D6D08976C64910F
:102AA000015C63E6F4516B6B62616C1CD830658528
:102AB0004E0062F2ED95066C7BA5011BC1F4088205
:102AC00057C40FF5C6D9B06550E9B712EAB8BE8B46
:102AD0007C88B9FCDF1DDD62492DDA15F37CD38CCF
:102AE000654CD4FB5861B24DCE51B53A7400BCA3CD
:102AF000E230BBD441A5DF4AD795D83D6DC4D1A4FF
:102B0000FBF4D6D36AE96943FCD96E34468867ADD5
:102B1000D0B860DA732D0444E51D03335F4C0AAA74
:102B2000C97C0DDD3C710550AA41022710100BBE77
:102B300086200CC925B56857B3856F2009D466B9BE
:102B40009FE461CE0EF9DE5E98C9D9292298D0B0F3
:102B5000B4A8D7C7173DB359810DB42E3B5CBDB7A0
:102B6000AD6CBAC02083B8EDB6B3BF9A0CE2B60321
:102B70009AD2B1743947D5EAAF77D29D1526DB04D6
:102B80008316DC73120B63E3843B64943E6A6D0D21
:102B9000A85A6A7A0BCF0EE49DFF099327AE000A6C
:102BA000B19E077D44930FF0D2A3088768F2011EFF
:102BB000FEC206695D5762F7CB67658071366C1996
:102BC000E7066B6E761BD4FEE02BD3895A7ADA10B7
:102BD000CC4ADD676FDFB9F9F9EFBE8E43BEB71798
:102BE000D58EB060E8A3D6D67E93D1A1C4C2D83822
:102BF00052F2DF4FF167BBD16757BCA6DD06B53F88
:102C00004B36B248DA2B0DD84C1B0AAFF64A0336C6
:102C1000607A0441C3EF60DF55DF67A8EF8E6E3145
:102C200079BE69468CB361CB1A8366BCA0D26F258E
:102C300036E2685295770CCC03470BBBB9160222DB
:102C40002F260555BE3BBAC5280BBDB2925AB42BF0
:102C5000046AB35CA7FFD7C231CFD0B58B9ED92C05
:102C60001DAEDE5BB0C2649B26F263EC9CA36A756A
:102C70000A936D02A906099C3F360EEB8567077221
:102C800013570005824ABF95147AB8E2AE2BB17B88
:102C9000381BB60C9B8ED2920DBED5E5B7EFDC7C0F
:102CA00021DFDB0BD4D2D38642E2D4F1F8B3DD6866
:102CB0006E83DA1FCD16BE815B26B9F6E177B06F61
:102CC0007747B718E65A0888706A0FFFCA3B06664E
:102CD0005C0B0111FF9E658F69AE62F8D3FF6B61DB
:102CE00045CF6C1678E20AA0EED20DD75483044E7D
:102CF000C2B30339612667A7F71660D04D4769490B
:102D0000DB776E3E4A6AD1AEDC5AD6D9660BDF401D
:102D1000F03BD83753AEBCA9C59EBBDE7FCFB247D0
:102D2000E9FFB5301CF2BDBD8AC2BACA3093B353B5
:102D3000A6A3B4240536D0BA9306D7CD2957DE54BE
:102D4000BF67D9232E7A66B3B84A61C4021B685D97
:102D5000942B6F2A37BE0BB4A18E0CC31BDF055A10
:102D60008DEF022D2020707974686F6E206961707C
:102D70005F75706C6F61642E7079202D7020434FE9
:102D80004D78202D66206669726D776172652E62BE
:102D9000696E202D2D76657273696F6E20312E302D
:102DA0002E300D0A00000000C82D00080000002091
:102DB0002000000028010008E82D00082000002065
:102DC000D80E0000440100080000000000000000D0
:102DD00000000000100000000100000000127A0056
:082DE0000000000000000000EB
:04000005080000ED02
:00000001FF
